:020000021000EC
:10F000000C9446F80C9465F80C9465F80C9465F82B
:10F010000C9465F80C9465F80C9465F80C9465F8FC
:10F020000C9465F80C9465F80C9465F80C9465F8EC
:10F030000C9465F80C9465F80C9465F80C9465F8DC
:10F040000C9465F80C9465F80C9465F80C9465F8CC
:10F050000C9465F80C9465F80C9465F80C9465F8BC
:10F060000C9465F80C9465F80C9465F80C9465F8AC
:10F070000C9465F80C9465F80C9465F80C9465F89C
:10F080000C9465F80C9465F80C9465F811241FBE77
:10F09000CFEFD0E4DEBFCDBF11E0A0E0B1E0E0E90A
:10F0A000FBEF01E00BBF02C007900D92A630B10745
:10F0B000D9F722E0A6E0B1E001C01D92A237B20765
:10F0C000E1F70E9411FB0C94C6FD0C9400F890919E
:10F0D000C00095FFFCCF8093C6000895FB012081FE
:10F0E000318198E0432F441F4427441F220F331FD0
:10F0F00087FD2160442321F0F2E02F27F0E13F2734
:10F10000880F915079F7FB01318320830895109285
:10F1100019021092180210921C028FEF9FEF909329
:10F1200005018093040110921B0208950F931F9311
:10F13000CF93DF93D1E00FEF1FEF80911702811182
:10F14000C7C08091C00087FFC3C0C091C60083E0E4
:10F150008C0F8230B0F4D0931902109218021092E2
:10F160001C02109305010093040110921B021093DE
:10F1700003010093020162E071E08C2F0E946EF89F
:10F18000DCCF809119028823C1F2CC3F19F4D093CF
:10F190001802D3CF80911802882319F0C06810920A
:10F1A000180262E071E08C2F0E946EF880911C02C0
:10F1B0008035B8F4E82FF0E0E35EFD4FC083843083
:10F1C00081F49C2F987129F091E02C2F237023302B
:10F1D00009F490E090931A02992369F19AE09093D0
:10F1E0001B0220911B02222371F0422F50E0BA0132
:10F1F000615071098617170631F44C0F511D509359
:10F200000501409304018F5F80931C02409104012B
:10F2100050910501141615060CF056C084171506FA
:10F2200009F052C08091020190910301892B29F0CD
:10F230000E9487F882CF96E0D2CF60911D02709134
:10F240001E0280911F02909120020E94A7FD6093F0
:10F25000130270931402809315029093160280910A
:10F26000210280930E0280911A02882349F1609155
:10F2700022027091230280912402909125020E9423
:10F28000A7FD60930F027093100280931102909378
:10F290001202822F90E0FC01E45EFD4F20812230BB
:10F2A00008F422E0225020930B02835E9D4F90933E
:10F2B0000D0280930C020E9487F8D09317023DCF75
:10F2C00060E070E0CB01DDCF803508F436CFB0CF01
:10F2D000DF91CF911F910F91089507B600FE089519
:10F2E0000E9496F8FACFCF93C82F0E946EF884E060
:10F2F0008C0F833040F48CEF0E9467F88C2F8F774F
:10F30000CF910C9467F88C2FFBCFCF92DF92EF92C6
:10F31000FF921F93CF93DF9380910A01882309F412
:10F320003EC0C0910001D09101016E01F12CE12C91
:10F3300083E0F601E0925B0080935700E8950E941D
:10F340006DF92BE032E0ABE0B1E011E0CE018B5083
:10F350009140AC014A0F5B1F70E060E01196CC91C8
:10F360001197EC91DC2FCE2F0E01FA0160935B0018
:10F3700010935700E895112412962A173B0749F776
:10F3800085E0F601E0925B0080935700E8950E94CB
:10F390006DF981E180935700E89510920A01DF91A1
:10F3A000CF911F91FF90EF90DF90CF9008955A98E2
:10F3B0001092C100F894F0E0E0E00994CF9394E05B
:10F3C000980F933030F4C82F8CEF0E9467F88C2F81
:10F3D0008F77CF910C9467F8AF92BF92CF92DF9264
:10F3E000EF92FF920F931F93CF93DF9300D0CDB78F
:10F3F000DEB7F62EE72EB82EA92E142F69018FEF57
:10F400009FEF9A8389835C9A8DEF0E9467F8BE0113
:10F410006F5F7F4F8DEF0E946EF8BE016F5F7F4F71
:10F420008A2D0E9473F9BE016F5F7F4F8B2D0E9462
:10F4300073F9BE016F5F7F4F8E2D0E9473F9BE017D
:10F440006F5F7F4F8F2D0E9473F9BE016F5F7F4FFB
:10F45000812F0E9473F913FF1FC010916E02F0906C
:10F460006F02E090700280917102BE016F5F7F4F6A
:10F470000E9473F9BE016F5F7F4F8E2D0E9473F95A
:10F48000BE016F5F7F4F8F2D0E9473F9BE016F5FCA
:10F490007F4F812F0E9473F9BE016F5F7F4F82E023
:10F4A000800F0E9473F976010C0D1D2D111DBE01F8
:10F4B0006F5F7F4FE016F10631F580E00E946EF835
:10F4C000BE016F5F7F4F80E00E946EF88A810E94CC
:10F4D000DEF989810E94DEF98091C00086FFFCCFB1
:10F4E0008091C00080648093C0005C980F900F9062
:10F4F000DF91CF911F910F91FF90EF90DF90CF9010
:10F50000BF90AF900895F70181917F010E9473F938
:10F51000CECF0F9340916D024295440F407E4961DA
:10F5200000E030E020E00E94ECF90F9108950F9385
:10F53000CF93DF9300D0CDB7DEB78FEF898388E01C
:10F540008A8302E09E012F5F3F4F48EF6FEF7FEF0E
:10F55000CB010E94ECF90F900F90DF91CF910F91AA
:10F5600008958F929F92AF92BF92CF92DF92EF92C7
:10F57000FF920F931F93CF93DF93CDB7DEB76097C2
:10F580000FB6F894DEBF0FBECDBF81E489831A8227
:10F590001B821C821D8281E08E8360916E027091BD
:10F5A0006F02809170029091710228E42F8322E40F
:10F5B000288727E529878E010F5F1F4F7E0126E0F0
:10F5C000E21AF10868012AE0822E912CA12CB12CBC
:10F5D000A50194010E9485FD605DF8016787B9016E
:10F5E000CA0101501109E016F10691F700E19601F8
:10F5F00048EF6FEF7FEFCB010E94ECF960960FB6FA
:10F60000F894DEBF0FBECDBFDF91CF911F910F9158
:10F61000FF90EF90DF90CF90BF90AF909F908F9032
:10F620000895CF93DF93CDB7DEB7C454D1090FB699
:10F63000F894DEBF0FBECDBF14B714BE0FB6F8945A
:10F64000A8958091600088618093600010926000AE
:10F650000FBE1BBE8CEF9FE00E94BEFD082F8DEFFA
:10F660009FE00E94BEFD90E0B0E0A0E07C01DD24C0
:10F67000CC24F02A8EEF9FE00E94BEFD082F8FEF72
:10F680009FE00E94BEFD9601282BD701C901902B57
:10F6900080936E0290936F02A0937002B0937102F8
:10F6A0008F3F9F4FAF4FBF4F61F48FEF9FEFAFEF93
:10F6B000B2E480936E0290936F02A0937002B093B5
:10F6C000710213FD08C0F0E0E0E08591949101968D
:10F6D00011F00E94D7F91092C50083E38093C40013
:10F6E00086E28093C20088E18093C100549A5C98BE
:10F6F000529A88EC90E020E931E0F9013197F1F776
:10F700000197D9F70E9497FA80E29EE40197F1F7FA
:10F710000E94B1FA1092800085E0809381001092DF
:10F7200085001092840081E086BB10E0CE01019636
:10F730001C01DE0114962596BFAFAEAF2597772446
:10F74000739428E4622E809184009091850020912A
:10F750000801222309F43FC093FF42C05A9A0E9435
:10F7600096F880911702882309F44BC01092170273
:10F770008091130290911402A0911502B09116028B
:10F78000C0900F02D0901002E0901102F09012028F
:10F7900040900C0250900D0200910B0290900E02CE
:10F7A0009694E92DE3709E2EE0936D028F3FFFEF5C
:10F7B0009F07AF07BF07B1F040916E0250916F02F3
:10F7C000609170027091710284179507A607B707C0
:10F7D00049F010E016C09F738115944008F4BECF25
:10F7E0005A98BDCF0023A9F3D2018C918A37D9F45E
:10F7F00010910701112319F070920601EACF70925F
:10F800000701B09BA0CF81E086BB1F5F163008F4D4
:10F8100096CFF0E0E0E085919491019609F48FCFC6
:10F820000E94D7F98CCF8A3529F4109206011092E4
:10F830000701CFCF10910601112379F0853749F6E2
:10F840001092060110920701C701B6010E9489FAC1
:10F850000E9497FA0E94B1FABCCF803709F4B5C074
:10F86000E0F5873609F40BC140F4813409F44AC14C
:10F87000C701B6010E9489FAC4CF883609F4C8C00E
:10F880008E36B1F760916E0270916F0280917002B6
:10F8900090917102698222E42A8327E52B835E011D
:10F8A0002BE0A20EB11C2AE030E040E050E00E94C4
:10F8B00085FD605DD5016E935D01B901CA01259694
:10F8C000EEADFFAD2597EA17FB0769F7492D429585
:10F8D000440F407E48690AE08DC0853709F4B0CFF7
:10F8E00008F5823729F6043008F473CFF201A180BD
:10F8F000B280BA24AB24BA240381709208010E941A
:10F9000085F9013408F000E4D101A218B3088A2F68
:10F910008219801708F4ADC0492D4295440F407EEE
:10F92000496168C0863709F46BC0873709F0A0CFFA
:10F93000043008F44ECF1196AD90BC901297BA24C3
:10F94000AB24BA2413968C919CEF892E800E8815D7
:10F9500008F4882E22961FAE229723968FAE239707
:10F96000492D4295440F407E496102E09E012F5B84
:10F970003F4FC701B6010E94ECF970920801082DB3
:10F98000013408F000E4402F50E0B2016C5F7F4F7B
:10F99000C1010E94AEFD80910901811112C083E076
:10F9A00020E030E0A901F90140935B00809357000B
:10F9B000E8950E946DF991E190935700E895709257
:10F9C00009016101A218B3084FC00E9485F9EFEF49
:10F9D000FFEFF0930101E093000110920A011092F1
:10F9E00009011982F0E4FA83492D4295440F407EC3
:10F9F000496102E09101C701B6010E94ECF901CF13
:10FA000019827A82492D4295440F407E4869F1CF90
:10FA100019821A82F7CF7501EC0CFD1C470188246E
:10FA200080910001909101018816990671F00E9461
:10FA300085F9909201018092000140E051E06FEF62
:10FA400070E08BE091E00E94B7FDD6018D916D01D1
:10FA50002091000130910101F701E21BF30BE55FFA
:10FA6000FE4F808370920A018C2D8219801798F2C4
:10FA7000C8CEF501EA0FFB1FE491ED9348CF0530A6
:10FA800058F111968D909C9012979824892498246F
:10FA90001396AD90BC90BA24AB24BA240E9485F989
:10FAA000C701B6010E9489FA80E29EE40197F1F74E
:10FAB000053000F1EFEFFFEFFA83E983F12CE12C41
:10FAC0008E149F0471F489819A81A816B90609F0F1
:10FAD00080CE0E94D7F995CEB12CA12C912C812CEF
:10FAE000DDCFF7018491B1010E946EF8FFEFEF1AAC
:10FAF000FF0AE6CFF0E0E0E085919491019609F4E9
:10FB000068CEE7CF0E94B1FA7CCEA1E21A2EAA1BE2
:10FB1000BB1BFD010DC0AA1FBB1FEE1FFF1FA217BD
:10FB2000B307E407F50720F0A21BB30BE40BF50BBA
:10FB3000661F771F881F991F1A9469F76095709543
:10FB4000809590959B01AC01BD01CF010895692777
:10FB5000962769277827872778270895FB01DC01F6
:10FB600002C001900D9241505040D8F70895DC0139
:10FB700001C06D9341505040E0F70895F999FECFD0
:10FB800092BD81BDF89A992780B50895F894FFCF6A
:06FB9000FFFFFFFFFFFF75
:040000031000F000F9
:00000001FF
