:100000000C942B000C9453000C9453000C9453004C
:100010000C9453000C9453000C9453000C94530014
:100020000C9453000C9453000C9453000C94BD0298
:100030000C9453000C942D030C9407030C94530060
:100040000C9453000C9453000C9453000C945300E4
:100050000C945300820511241FBECFE5D8E0DEBF0B
:10006000CDBF10E0A0E6B0E0ECEBFBE002C00590F5
:100070000D92A637B107D9F721E0A6E7B0E001C09D
:100080001D92A837B207E1F710E0CBE2D0E004C040
:100090002197FE010E94D605CA32D107C9F70E94F6
:1000A0005F030C94DC050C9400003FB7F89480913A
:1000B000740190917501A0917601B091770122B7FA
:1000C00008B600FE05C02F3F19F00196A11DB11D15
:1000D0003FBFBA2FA92F982F8827BC01CD01620FEF
:1000E000711D811D911D42E0660F771F881F991FAA
:1000F0004A95D1F70895AF92BF92CF92DF92EF92D7
:10010000FF920F931F93CF93DF936C017B018B01C1
:10011000040F151FEB015E01AE18BF08C017D10711
:1001200059F06991D601ED91FC910190F081E02D9B
:10013000C6010995892B79F7C501DF91CF911F91F0
:100140000F91FF90EF90DF90CF90BF90AF90089508
:10015000FC01538D448D252F30E0842F90E0821BCD
:10016000930B541710F0CF96089501970895FC0152
:10017000918D828D981761F0A28DAE0FBF2FB11DAA
:100180005D968C91928D9F5F9F73928F90E0089502
:100190008FEF9FEF0895FC01918D828D981731F0BC
:1001A000828DE80FF11D858D90E008958FEF9FEF10
:1001B0000895FC01918D228D892F90E0805C9F4FE6
:1001C000821B91098F73992708958BEC90E00E9410
:1001D000D90021E0892B09F420E0822F089580E0E6
:1001E00090E0892B29F00E94E50081110C94000019
:1001F0000895FC01A48DA80FB92FB11DA35ABF4FBC
:100200002C91848D90E001968F739927848FA68915
:10021000B7892C93A089B1898C9182748C93938D2A
:10022000848D981306C00288F389E02D80818F7D2C
:1002300080830895EF92FF920F931F93CF93DF93E4
:10024000EC0181E0888F9B8D8C8D981319C0E88913
:10025000F989808185FF14C09FB7F894EE89FF89E2
:100260006083E889F9898081827480839FBF81E0FF
:1002700090E0DF91CF911F910F91FF90EF90089543
:10028000F62E0B8D10E00F5F1F4F0F731127E02E1E
:100290008C8D8E110CC00FB607FCFACFE889F98956
:1002A000808185FFF5CFCE010E94F900F1CFEB8D63
:1002B000EC0FFD2FF11DE35AFF4FF0829FB7F8942A
:1002C0000B8FEA89FB8980818062CFCFCF93DF9348
:1002D000EC01888D8823B9F0AA89BB89E889F9895E
:1002E0008C9185FD03C0808186FD0DC00FB607FC93
:1002F000F7CF8C9185FFF2CF808185FFEDCFCE01C6
:100300000E94F900E9CFDF91CF9108951092CA00C1
:100310001092C9001092C8008FEF9FEF9093630076
:10032000809362001092C7000895FB012081318103
:1003300098E0432F441F4427441F220F331F87FD9B
:100340002160442321F0F2E02F27F0E13F27880FBE
:10035000915079F7FB01318320830895CF93C82F03
:100360006115710511F00E94950184E08C0F6C2FCE
:10037000833038F46CEF8BEC90E00E941A016C2F04
:100380006F778BEC90E0CF910C941A01AF92BF92F3
:10039000CF92DF92EF92FF920F931F93CF93DF9351
:1003A00000D0CDB7DEB7F62EE72EB82EA92E142F2B
:1003B00069018FEF9FEF9A838983929A6DEF8BEC9F
:1003C00090E00E941A01BE016F5F7F4F8DEF0E9487
:1003D0009501BE016F5F7F4F8A2D0E94AE01BE0165
:1003E0006F5F7F4F8B2D0E94AE01BE016F5F7F4F0D
:1003F0008E2D0E94AE01BE016F5F7F4F8F2D0E9438
:10040000AE01BE016F5F7F4F812F0E94AE0113FFCF
:1004100018C0BE016F5F7F4F82E40E94AE01BE0133
:100420006F5F7F4F8FEF0E94AE01BE016F5F7F4F06
:100430008FEF0E94AE01BE016F5F7F4F8FEF0E9472
:10044000AE01BE016F5F7F4F82E0800F0E94AE0160
:1004500076010C0D1D2D111DBE016F5F7F4F0E1516
:100460001F0531F0F70181917F010E94AE01F4CFA9
:1004700080E00E949501BE016F5F7F4F80E00E9487
:10048000950170E060E08A810E94AE0170E060E05A
:1004900089810E94AE018BEC90E00E9466019298E7
:1004A0000F900F90DF91CF911F910F91FF90EF90E0
:1004B000DF90CF90BF90AF9008958F929F92AF92B0
:1004C000BF92CF92DF92EF92FF920F931F93CF9341
:1004D000DF93CDB7DEB760970FB6F894DEBF0FBEDF
:1004E000CDBF80E19E012F5F3F4F7901F901282F99
:1004F00011922A95E9F791E499838B8383E08E83A7
:1005000088E48F8382E4888787E5898787016E0185
:1005100036E0C31AD1086FEF7FEF8FEF92E42AE045
:10052000822E912CA12CB12CA50194010E94AD0525
:10053000605DF8016787B901CA01015011090C1506
:100540001D0591F700E1970148EF6FEF7FEFCB01B9
:100550000E94C60160960FB6F894DEBF0FBECDBFF5
:10056000DF91CF911F910F91FF90EF90DF90CF908F
:10057000BF90AF909F908F9008951F920F920FB6EB
:100580000F9211242F933F938F939F93AF93BF9319
:100590008091700190917101A0917201B0917301ED
:1005A00030916F0123E0230F2D3768F126E8230FE8
:1005B0000296A11DB11D20936F018093700190934D
:1005C0007101A0937201B0937301809174019091B5
:1005D0007501A0917601B09177010196A11DB11D21
:1005E0008093740190937501A0937601B093770185
:1005F000BF91AF919F918F913F912F910F900FBE1F
:100600000F901F9018950196A11DB11DD4CF1F9278
:100610000F920FB60F9211242F933F934F935F9336
:100620006F937F938F939F93AF93BF93EF93FF93BA
:100630008BEC90E00E94F900FF91EF91BF91AF9198
:100640009F918F917F916F915F914F913F912F91EA
:100650000F900FBE0F901F9018951F920F920FB61C
:100660000F9211242F938F939F93EF93FF93E09119
:10067000DB00F091DC008081E091E100F091E2008C
:1006800082FD1BC090818091E4008F5F8F73209169
:10069000E500821741F0E091E400F0E0E553FF4F00
:1006A000958F8093E400FF91EF919F918F912F910F
:1006B0000F900FBE0F901F9018958081F4CFCF93AD
:1006C000DF93CDB7DEB72D970FB6F894DEBF0FBE20
:1006D000CDBF789483B7836083BF83B7886483BFBB
:1006E00089B7816089BF92E09EBD8EB581608EBD65
:1006F0008FB581608FBD85B5846085BD85B580640B
:1007000085BD87E886B91AB80FB6F894A89581B563
:10071000886181BD11BC0FBE8A9A9298E091DB007E
:10072000F091DC009083E091D700F091D800108226
:10073000E091D900F091DA0087E680831092E3001F
:10074000E091DF00F091E00086EA8083E091DD0037
:10075000F091DE00808188698083E091DD00F09176
:10076000DE0080818F7D80830E9455006B017C01BB
:1007700038EC832E912CA12CB12C0E9455006C19C1
:100780007D098E099F09683E734081059105A8F394
:1007900021E0821A9108A108B10838EEC30E33E0B7
:1007A000D31EE11CF11C81149104A104B10429F7AA
:1007B0000E945D029E01265031093D872C8722242C
:1007C0002A94322CDD24D39498E4C92E8BEC90E04B
:1007D0000E94D900892B09F475C08BEC90E00E942F
:1007E000B700182F83E0810F8230B0F4D092CA0096
:1007F0001092C9001092C8003092630020926200EB
:100800001092C700309261002092600060E670E0B4
:10081000812F0E949501DACF8091CA008823B1F21E
:100820001C3F19F4D092C900D1CF8091C900882310
:1008300019F010681092C90060E670E0812F0E94E4
:1008400095012091C800203598F4E22FF0E0E95896
:10085000FF4F1083243061F410FF72C0812F877026
:10086000813009F46DC01092760086E08093C70055
:10087000E090C700EE2071F08E2D90E0AC01415069
:1008800051092417150631F4810F911D90936300CF
:10089000809362002F5F2093C80080916200909146
:1008A0006300181619060CF09BC02817190609F0EA
:1008B00097C08091600090916100892B09F449C034
:1008C0000E9486012FB7F894809170019091710178
:1008D000A0917201B09173012FBF40916B015091B3
:1008E0006C0160916D0170916E01841B950BA60BDC
:1008F000B70B893B9B40A105B105A8F02FB7F89431
:100900008091700190917101A0917201B091730179
:100910002FBF80936B0190936C01A0936D01B093F6
:100920006E010E945D0280E090E0892B09F44ECFB9
:100930000E94E500882309F445CF0E94000042CFC1
:10094000812F887080937600882309F48ECF8AE007
:100950008DCF6091770070917800809179009091AF
:100960007A000E94CF052B013C0110917B00809101
:100970007600812C912C5401882361F060917C00D9
:1009800070917D0080917E0090917F000E94CF0544
:100990004B015C01F12CC70189589F4F7C01FC0180
:1009A000319700810E948601412F50E0559547956F
:1009B000142F137010936A019FEF491659066906A8
:1009C0007906A1F4033008F47DCFF70180818A37DE
:1009D000C9F480916901882391F0D092680172CFA7
:1009E000203508F4F3CE0E948601F0CEEFEF4E16CC
:1009F0005E066E06E2E47E0609F064CFE3CFD09295
:100A0000690160CF8A3529F410926801109269015A
:100A100059CF909168019923E1F0853709F052CFC1
:100A2000412F4295440F407E496100E030E020E0D4
:100A3000C501B4010E94C6018BEC90E00E946601E2
:100A400088E198E00FB6F894A89581BD0FBE91BDDE
:100A5000FFCF8E3651F180F4813409F450C08836CE
:100A600009F030CF1A8219828983412F4295440FB1
:100A7000407E486902E011C0853791F2863709F05F
:100A800021CF19821A821B8293E09B838983412F95
:100A90004295440F407E486903E09E012F5F3F4F1F
:100AA000C501B4010E94C6010DCF8983CA8282E4C8
:100AB0008B8387E58C839E012F5F3F4F79016FEF1A
:100AC0007FEF8FEF92E439012AE030E040E050E020
:100AD0000E94AD05605DF7016287B901CA01F1E0CE
:100AE000EF1AF1082C853D85E216F30669F7412FD0
:100AF0004295440F407E48690BE09301D1CF0E949C
:100B00005D02E0CEEBECF0E01382128288EE93E01F
:100B1000A0E0B0E084839583A683B78388E690E065
:100B20009183808380E490E09587848729E230E098
:100B3000378726872BE230E0318B208B2AE230E0AA
:100B4000338B228B958B848B8CE290E0978B868BFA
:100B5000118E128E138E148E0895A1E21A2EAA1BE6
:100B6000BB1BFD010DC0AA1FBB1FEE1FFF1FA2175D
:100B7000B307E407F50720F0A21BB30BE40BF50B5A
:100B8000661F771F881F991F1A9469F760957095E3
:100B9000809590959B01AC01BD01CF010895692717
:100BA000962769277827872778270895EE0FFF1F54
:0C0BB0000590F491E02D0994F894FFCF1B
:100BBC00FFFFFFFF000000001A017B00A800660188
:060BCC00D900B700CB00C8
:00000001FF
