:107000000C942A380C9447380C9447380C94473821
:107010000C9447380C9447380C9447380C944738F4
:107020000C9447380C9447380C9447380C944738E4
:107030000C9447380C9447380C9447380C944738D4
:107040000C9447380C9447380C9447380C944738C4
:107050000C94473811241FBECFE5D8E0DEBFCDBF6A
:1070600010E0A0E6B0E0E4E9FBE702C005900D9275
:10707000A636B107D9F721E0A6E6B0E001C01D921F
:10708000A33DB207E1F70E94E63A0C94C83D0C9488
:1070900000385D9BFECF8CB90895FB0120813181C2
:1070A00098E0432F441F4427441F220F331F87FDBE
:1070B0002160442321F0F2E02F27F0E13F27880FE1
:1070C000915079F7FB0131832083089510927A0162
:1070D0001092790110927D018FEF9FEF90936500E0
:1070E0008093640010927C0108950F931F93CF93B7
:1070F000DF93D1E00FEF1FEF809178018111C4C0C1
:107100005F9BC2C0CCB183E08C0F8230B0F4D093CF
:107110007A011092790110927D011093650000931D
:10712000640010927C01109363000093620062E699
:1071300070E08C2F0E944D38DFCF80917A01882338
:10714000D9F2CC3F19F4D0937901D6CF809179014F
:10715000882319F0C0681092790162E670E08C2FE4
:107160000E944D3880917D018035B8F4E82FF0E021
:10717000E258FE4FC083843081F49C2F987129F02F
:1071800091E02C2F2370233009F490E090937B0141
:10719000992369F19AE090937C0120917C0122234C
:1071A00071F0422F50E0BA0161507109861717063D
:1071B00031F44C0F511D50936500409364008F5F74
:1071C00080937D014091640050916500141615066E
:1071D0000CF056C08417150609F052C08091620069
:1071E00090916300892B29F00E94663885CF96E044
:1071F000D2CF60917E0170917F018091800190914A
:1072000081010E94A93D6093740170937501809380
:107210007601909377018091820180936F01809134
:107220007B01882349F160918301709184018091F1
:107230008501909186010E94A93D60937001709331
:1072400071018093720190937301822F90E0FC0191
:10725000E358FE4F2081223008F422E02250209390
:107260006C0182589E4F90936E0180936D010E9435
:107270006638D093780140CF60E070E0CB01DDCF7D
:10728000803508F439CFB0CFDF91CF911F910F91A6
:10729000089507B600FE08950E947538FACF0F933F
:1072A0001F93CF93DF938C01EB0183E0F801809370
:1072B0005700E8950E9449399E0120583F4F41E010
:1072C000B8016C1B7D0BFB01EC0FFD1F89819881C0
:1072D0008927982789270C0140935700E8951124A6
:1072E00022962C173D0779F785E0F8018093570027
:1072F000E8950E94493981E180935700E895DF9134
:10730000CF911F910F910895CF93C82F0E944D38B0
:1073100084E08C0F833040F48CEF0E9449388C2F2E
:107320008F77CF910C9449388C2FFBCF8091EB0055
:10733000882399F08091600090916100009771F42A
:1073400040E850E06CEE70E089E690E00E94B03DCD
:1073500081E0809368001092EB0008956CEE70E07D
:107360000E944F39F8CF92981AB8F894F0E0E0E014
:107370000994CF9394E0980F933030F4C82F8CEF9A
:107380000E9449388C2F8F77CF910C944938AF9257
:10739000BF92CF92DF92EF92FF920F931F93CF9302
:1073A000DF9300D0CDB7DEB7F62EE72EB82EA92E8C
:1073B000142F69018FEF9FEF9A838983949A8DEF41
:1073C0000E944938BE016F5F7F4F8DEF0E944D389C
:1073D000BE016F5F7F4F8A2D0E948439BE016F5FAF
:1073E0007F4F8B2D0E948439BE016F5F7F4F8E2DA2
:1073F0000E948439BE016F5F7F4F8F2D0E948439B8
:10740000BE016F5F7F4F812F0E94843913FF1FC021
:107410001091CF01F090D001E090D1018091D20184
:10742000BE016F5F7F4F0E948439BE016F5F7F4F47
:107430008E2D0E948439BE016F5F7F4F8F2D0E9479
:107440008439BE016F5F7F4F812F0E948439BE0156
:107450006F5F7F4F82E0800F0E94843976010C0DB0
:107460001D2D111DBE016F5F7F4FE016F10601F566
:1074700080E00E944D38BE016F5F7F4F80E00E9428
:107480004D388A810E94B93989810E94B9395E9B41
:10749000FECF5E9A94980F900F90DF91CF911F913D
:1074A0000F91FF90EF90DF90CF90BF90AF90089535
:1074B000F70181917F010E948439D4CF0F934091CD
:1074C000CE014295440F407E496100E030E020E06B
:1074D0000E94C7390F9108950F93CF93DF9300D087
:1074E000CDB7DEB78FEF898388E08A8302E09E0103
:1074F0002F5F3F4F48EF6FEF7FEFCB010E94C739FF
:107500000F900F90DF91CF910F9108958F929F92DE
:10751000AF92BF92CF92DF92EF92FF920F931F93A1
:10752000CF93DF93CDB7DEB760970FB6F894DEBF89
:107530000FBECDBF81E489831A821B821C821D820B
:1075400081E08E836091CF017091D0018091D10153
:107550009091D20128E42F8322E4288727E5298708
:107560008E010F5F1F4F7E0126E0E21AF1086801CD
:107570002AE0822E912CA12CB12CA50194010E940D
:10758000873D605DF8016787B901CA0101501109A3
:10759000E016F10691F700E1960148EF6FEF7FEFFB
:1075A000CB010E94C73960960FB6F894DEBF0FBEBC
:1075B000CDBFDF91CF911F910F91FF90EF90DF90A2
:1075C000CF90BF90AF909F908F900895CF93DF930F
:1075D000CDB7DEB7C554D1090FB6F894DEBF0FBEE4
:1075E000CDBF14B714BE0FB6F894A89581B58861C5
:1075F00081BD11BC0FBE8CEF93E00E94C03D082FEF
:107600008DEF93E00E94C03D90E0B0E0A0E07C01EF
:10761000DD24CC24F02A8EEF93E00E94C03D082F99
:107620008FEF93E00E94C03D9601282BD701C9013E
:10763000902B8093CF019093D001A093D101B09370
:10764000D2018F3F9F4FAF4FBF4F61F48FEF9FEF3E
:10765000AFEFB2E48093CF019093D001A093D1011A
:10766000B093D20113FD08C0F0E0E0E08591949161
:10767000019611F00E94B33910BC83E389B986EA00
:1076800080BD88E18AB98C9A94988A9A88EC90E0B7
:1076900020E931E0F9013197F1F70197D9F70E941C
:1076A0006C3A80E29EE40197F1F70E94863A1FBC93
:1076B00085E08EBD1DBC1CBC84E088BF10E0CE01FF
:1076C00001962C01312C212CFE0134962596FFAF1A
:1076D000EEAF2597772473948CB59DB52091E90082
:1076E000222309F43FC093FF42C0929A0E9475384A
:1076F00080917801882309F44BC010927801809121
:10770000740190917501A0917601B09177018090FC
:10771000700190907101A0907201B0907301E0909F
:107720006D01F0906E0100916C0160906F016694A4
:10773000262D2370622E2093CE018F3F3FEF9307BB
:10774000A307B307B1F04091CF015091D0016091F0
:10775000D1017091D20184179507A607B70749F0A8
:1077600010E016C09F738115944008F4BECF929824
:10777000BDCF0023A9F3F70180818A37D9F4109196
:107780006700112319F070926600EACF70926700CB
:1077900008B602FEA1CF84E088BF1F5F163008F450
:1077A00099CFF10185919491019609F493CF0E94AC
:1077B000B33990CF8A3529F4109266001092670091
:1077C000CFCF10916600112379F0853749F61092DA
:1077D000660010926700C501B4010E945E3A0E94E3
:1077E0006C3A0E94863ABCCF803709F4F5C0E8F5C0
:1077F000873609F42AC140F4813409F485C1C501F2
:10780000B4010E945E3AC4CF883609F409C18E36AD
:10781000B1F76091CF017091D0018091D101909129
:10782000D20148E4498352E45A8327E52B837E0141
:10783000EBE0EE0EF11C2AE030E040E050E00E9468
:10784000873D605DF70162937F01B901CA0125960A
:107850002EAD3FAD25972E173F0769F7462D429570
:10786000440F407E48690AE0CDC0853709F4AFCFA8
:1078700008F5823721F6043008F472CFC180D28037
:10788000DC24CD24DC2403817092E9000E94963927
:10789000013408F000E490916800D2018A2F841925
:1078A000801708F4C0C04091CE014295440F407E3D
:1078B0004961A8C0863709F4ABC0873709F09FCF6C
:1078C000043008F44DCFC180D280DC24CD24DC24E8
:1078D0008381045026960FAF2697801718F42696BA
:1078E0008FAF269722961FAE22972696FFAD26973A
:1078F0002396FFAF2397462D4295440F407E496162
:1079000002E09E012F5B3F4FC501B4010E94C739C1
:107910007092E90026960FAD2697013408F000E436
:10792000402F50E0B7016C5F7F4FC2010E94B03D15
:107930008091EA0081110FC023E0F10120935700EC
:10794000E8950E94493931E130935700E8957092EB
:10795000EA0010926800802F90E0B0E0A0E08C0D6B
:107960009D1DA11DB11D5201C418D508813090473D
:10797000A105B10508F00CCF8A2D8419801708F0F5
:1079800007CF7601EA0CFB1C470150E88522809165
:107990006000909161008816990671F00E949639F6
:1079A000909261008092600040E850E06FEF70E0DC
:1079B0008CEE90E00E94B93DF50181915F0120912C
:1079C000600030916100F701E21BF30BE451FF4FBF
:1079D00080837092EB00D0CF0E9496392FEF3FEF5B
:1079E00030936100209360001092EB001092EA0047
:1079F000198230E43A834091CE014295440F407E93
:107A0000496102E09201C501B4010E94C739C0CEAC
:107A100019827A82462D4295440F407E4869F1CF03
:107A200019821A82F7CF992369F0F0E8CF16D104B2
:107A300048F4F601E759FF4F80818D93FFEFCF1A8D
:107A4000DF0A2CCFF6018491F8CF0530A0F1C18078
:107A5000D280DC24CD24DC24E380F480FE24EF24D7
:107A6000FE240E949639C501B4010E945E3A80E26C
:107A70009EE40197F1F70530C0F12FEF3FEF3A8315
:107A80002983B12CA12CCA14DB04D1F489819A81F9
:107A9000E816F90609F064CE80916800882341F069
:107AA00069E670E090E080E00E944F391092680033
:107AB0000E94B3396DCEF12CE12CD12CC12CD1CF49
:107AC00080916800F501882371F030E8A316B104B5
:107AD00050F4E759FF4F8081B2010E944D38FFEF0B
:107AE000AF1ABF0AD0CF8491F7CF8091680081117F
:107AF000D7CFF10185919491019609F431CE80910F
:107B0000EA0081112DCED4CF0E94863A41CEA1E267
:107B10001A2EAA1BBB1BFD010DC0AA1FBB1FEE1F07
:107B2000FF1FA217B307E407F50720F0A21BB30B52
:107B3000E40BF50B661F771F881F991F1A9469F7CE
:107B400060957095809590959B01AC01BD01CF012A
:107B50000895692796276927782787277827089522
:107B6000FB01DC0102C001900D9241505040D8F75A
:107B70000895DC0101C06D9341505040E0F7089535
:107B8000E199FECF9FBB8EBBE09A99278DB30895F4
:047B9000F894FFCF97
:067B9400FFFFFFFFFFFFF1
:040000030000700089
:00000001FF
