:107000000C942A380C9447380C9447380C94473821
:107010000C9447380C9447380C9447380C944738F4
:107020000C9447380C9447380C9447380C944738E4
:107030000C9447380C9447380C9447380C944738D4
:107040000C9447380C9447380C9447380C944738C4
:107050000C94473811241FBECFE5D8E0DEBFCDBF6A
:1070600010E0A0E6B0E0E6E5FAE702C005900D9278
:10707000A636B107D9F721E0A6E6B0E001C01D921F
:10708000A434B207E1F70E94F9390C94293D0C941D
:1070900000385D9BFECF8CB90895FB0120813181C2
:1070A00098E0432F441F4427441F220F331F87FDBE
:1070B0002160442321F0F2E02F27F0E13F27880FE1
:1070C000915079F7FB013183208308951092EB00F2
:1070D0001092EA001092EE008FEF9FEF9093650000
:1070E000809364001092ED0008951AB8F894F0E0CF
:1070F000E0E00994CF93C82F0E944D3884E08C0FB4
:10710000833040F48CEF0E9449388C2F8F77CF91D9
:107110000C9449388C2FFBCFCF93DF93809169007B
:10712000882309F435C0809160009091610023E0CC
:10713000FC0120935700E89507B600FCFDCF4AEE0E
:1071400050E0AAE6B0E061E0EC01CA56D040FE0192
:10715000EA0FFB1F11962C9111973C9123273227A0
:107160002327090160935700E895112412964A17C6
:107170005B0769F725E0FC0120935700E89507B607
:1071800000FCFDCF81E180935700E89510926900E3
:10719000DF91CF910895CF9394E0980F933030F41E
:1071A000C82F8CEF0E9449388C2F8F77CF910C9489
:1071B0004938AF92BF92CF92DF92EF92FF920F9336
:1071C0001F93CF93DF9300D0CDB7DEB7F62EE72E17
:1071D000B82EA92E142F69018FEF9FEF9A83898310
:1071E000929A8DEF0E944938BE016F5F7F4F8DEFFD
:1071F0000E944D38BE016F5F7F4F8A2D0E947A3802
:10720000BE016F5F7F4F8B2D0E947A38BE016F5F8A
:107210007F4F8E2D0E947A38BE016F5F7F4F8F2D7A
:107220000E947A38BE016F5F7F4F812F0E947A38AB
:1072300013FF1FC010914001F0904101E090420106
:1072400080914301BE016F5F7F4F0E947A38BE017B
:107250006F5F7F4F8E2D0E947A38BE016F5F7F4F28
:107260008F2D0E947A38BE016F5F7F4F812F0E9461
:107270007A38BE016F5F7F4F82E0800F0E947A38BC
:1072800076010C0D1D2D111DBE016F5F7F4FE016A5
:10729000F10601F580E00E944D38BE016F5F7F4F1F
:1072A00080E00E944D388A810E94CB3889810E94FB
:1072B000CB385E9BFECF5E9A92980F900F90DF9135
:1072C000CF911F910F91FF90EF90DF90CF90BF90E3
:1072D000AF900895F70181917F010E947A38D4CF51
:1072E0000F9340913F014295440F407E496100E079
:1072F00030E020E00E94D9380F9108950F93CF938A
:10730000DF9300D0CDB7DEB78FEF898388E08A8323
:1073100002E09E012F5F3F4F48EF6FEF7FEFCB0101
:107320000E94D9380F900F90DF91CF910F9108955F
:107330008F929F92AF92BF92CF92DF92EF92FF9285
:107340000F931F93CF93DF93CDB7DEB760970FB640
:10735000F894DEBF0FBECDBF81E489831A8280E13D
:107360008B831C821D8281E08E836091400170912D
:107370004101809142019091430128E42F8322E44E
:10738000288727E529878E010F5F1F4F7E0126E0A2
:10739000E21AF10868012AE0822E912CA12CB12C6E
:1073A000A50194010E94F13C605DF8016787B90175
:1073B000CA0101501109E016F10691F700E19601AA
:1073C00048EF6FEF7FEFCB010E94D93860960FB680
:1073D000F894DEBF0FBECDBFDF91CF911F910F910B
:1073E000FF90EF90DF90CF90BF90AF909F908F90E5
:1073F0000895CF93DF93CDB7DEB7C854D1090FB648
:10740000F894DEBF0FBECDBF14B714BE0FB6F8940C
:10741000A89581B5886181BD11BC0FBE8CEF93E04A
:107420000E94213D082F8DEF93E00E94213D90E0C6
:10743000B0E0A0E07C01DD24CC24F02A8EEF93E0C4
:107440000E94213D082F8FEF93E00E94213D96017D
:10745000282BD701C901902B8093400190934101C3
:10746000A0934201B09343018F3F9F4FAF4FBF4F57
:1074700061F48FEF9FEFAFEFB2E480934001909300
:107480004101A0934201B093430113FD08C0F0E015
:10749000E0E085919491019611F00E94753810BC3E
:1074A00083E389B986EA80BD88E18AB98A9A92988D
:1074B00088EC90E020E931E0F9013197F1F701978C
:1074C000D9F70E947E3980E29EE40197F1F70E948D
:1074D00098391FBC85E08EBD1DBC1CBC84E088BFF4
:1074E00010E0CE0101963C01DE0116972396BFAF56
:1074F000AEAF239722242A94322C442443945F9BDA
:1075000076C00CB183E0800F8230B0F44092EB0083
:107510001092EA001092EE00309265002092640012
:107520001092ED00309263002092620062E670E0FB
:10753000802F0E944D38E3CF8091EB008823F9F231
:107540000C3F19F44092EA00DACF8091EA008823D8
:1075500019F000681092EA0062E670E0802F0E9445
:107560004D388091EE008035C0F4E82FF0E0E15115
:10757000FF4F0083843089F4902F987129F091E0B7
:10758000202F2370233009F490E09093EC0099238E
:1075900009F440C09AE09093ED00E090ED00EE20F9
:1075A00071F02E2D30E0A9014150510984171506C4
:1075B00031F4200F311D30936500209364008F5FFC
:1075C0008093EE002091640030916500121613063E
:1075D0000CF077C08217130609F073C0C0906200E8
:1075E000D0906300C114D104B9F00E94663808B687
:1075F00002FE85CF84E088BF1F5F163008F47DCF80
:10760000F0E0E0E085919491019609F476CF0E9434
:10761000753873CF96E0BFCF6091EF007091F000A6
:107620008091F1009091F2000E94133D27966CAF7B
:107630007DAF8EAF9FAF27971091F3008091EC0044
:10764000812C912C5401882361F06091F400709199
:10765000F5008091F6009091F7000E94133D4B01D8
:107660005C01F12CF701E151FF4F2996FFAFEEAF1E
:107670002997319750800E946638169513701093A1
:107680003F0127962CAD3DAD4EAD5FAD27972F3F07
:107690003F4F4F4F5F4FD9F4952D923008F492E051
:1076A0000EEF090F39F12996AEADBFAD29978C9138
:1076B0008A3749F580916700882311F1409266006E
:1076C00019C0803508F41BCF0E94663818CF80910E
:1076D000400190914101A0914201B0914301279650
:1076E0002CAD3DAD4EAD5FAD2797281739074A0742
:1076F0005B0791F21DBC1CBC84E088BF10E077CF13
:1077000040926700F7CF8A3529F4109266001092F4
:107710006700F0CF20916600222379F0853751F77A
:107720001092660010926700C501B4010E94703982
:107730000E947E390E949839DDCFF701E151FF4F59
:107740007F01803709F4E7C008F047C0873609F4A5
:107750000FC138F4813471F3C501B4010E9470394E
:10776000C9CF883609F4F6C08E36B1F78EE6898324
:1077700060914001709141018091420190914301DB
:1077800028E42A8322E42B8327E52C839E012F5FA4
:107790003F4F790169012AE030E040E050E00E946B
:1077A000F13C605DD7011A966C93B901CA01B1E052
:1077B000EB1AF1082396EEADFFAD2397EE16FF0608
:1077C00051F7412F4295440F407E48690BE09601E6
:1077D000C501B4010E94D9388DCF853709F4A0CFF7
:1077E00000F5823709F0B8CF0E948C38043008F4D5
:1077F00081CFF7018181928198278927982703817A
:10780000013408F000E4D301861997092A2F2619BC
:10781000201708F4A7C0412F4295440F407E4961CC
:1078200097C0863709F48BC0873709F095CF0430AD
:1078300008F460CFC180D280DC24CD24DC24838195
:107840002AEF522E590E851508F4582E19825A82A5
:10785000412F4295440F407E496102E09301C501EA
:10786000B4010E94D9388091680081110FC083E073
:10787000F0E0E0E080935700E89507B600FCFDCF0C
:1078800081E180935700E89540926800852D90E053
:10789000B0E0A0E08C0D9D1DA11DB11D8130904771
:1078A000A105B10508F026CF570186010E191F0961
:1078B0008A2D8E19851508F01DCF6801CA0CDB1CB6
:1078C000460120E882228091600090916100881634
:1078D000990671F00E948C3890926100809260004D
:1078E00040E850E06FEF70E08AE690E00E941A3DB9
:1078F0008091600090916100F601E81BF90BE65958
:10790000FF4FD50114968C91808340926900BFEFA0
:10791000AB1ABB0ACDCF0E948C3830926100209206
:1079200060001092690010926800198280E48A83D6
:10793000412F4295440F407E496102E009C089838E
:107940001A824B82412F4295440F407E486903E0E2
:1079500093013ECF89831A82412F4295440F407E86
:107960004869EBCFFC01EA0FFB1FE491ED934ECF8A
:107970000E948C38C501B4010E94703980E29EE4F7
:107980000197F1F7053028F1D70111960D911C915F
:1079900012971027012710271396ED90FC90FE24D4
:1079A000EF24FE243A8229820C151D0549F48981B1
:1079B0009A81E816F90609F09DCE0E9475389ACE94
:1079C000F6018491B3010E944D38FFEFCF1ADF0A10
:1079D000EBCFF0E0E0E085919491019609F48ACE36
:1079E000ECCFA1E21A2EAA1BBB1BFD010DC0AA1FE2
:1079F000BB1FEE1FFF1FA217B307E407F50720F018
:107A0000A21BB30BE40BF50B661F771F881F991F92
:107A10001A9469F760957095809590959B01AC01DB
:107A2000BD01CF0108956927962769277827872701
:107A300078270895DC0101C06D9341505040E0F774
:107A40000895E199FECF9FBB8EBBE09A99278DB335
:067A50000895F894FFCF39
:067A5600FFFFFFFFFFFF30
:040000030000700089
:00000001FF
