:107000000C9434380C9451380C9451380C945138F9
:107010000C9451380C9451380C9451380C945138CC
:107020000C9451380C9451380C9451380C945138BC
:107030000C9451380C9451380C9451380C945138AC
:107040000C9451380C9451380C9451380C9451389C
:107050000C9451380C9451380C9451380C9451388C
:107060000C9451380C94513811241FBECFEFD8E046
:10707000DEBFCDBF11E0A0E0B1E0E8E7FAE702C073
:1070800005900D92A630B107D9F721E0A6E0B1E056
:1070900001C01D92A43EB207E1F70E940C3A0C9485
:1070A0003A3D0C9400389091C00095FFFCCF80933E
:1070B000C6000895FB012081318198E0432F441FD1
:1070C0004427441F220F331F87FD2160442321F0F2
:1070D000F2E02F27F0E13F27880F915079F7FB016D
:1070E00031832083089510928B0110928A011092AF
:1070F0008E018FEF9FEF9093050180930401109212
:107100008D0108951092C100F894F0E0E0E0099438
:10711000CF93C82F0E945A3884E08C0F833040F4FC
:107120008CEF0E9453388C2F8F77CF910C9453386B
:107130008C2FFBCFCF93DF9380910901882309F433
:1071400035C0809100019091010123E0FC01209362
:107150005700E89507B600FCFDCF4AE851E0AAE0E9
:10716000B1E061E0EC01CA50D140FE01EA0FFB1F23
:1071700011962C9111973C9123273227232709013F
:1071800060935700E895112412964A175B0769F738
:1071900025E0FC0120935700E89507B600FCFDCFE1
:1071A00081E180935700E89510920901DF91CF911A
:1071B0000895CF9394E0980F933030F4C82F8CEF5C
:1071C0000E9453388C2F8F77CF910C945338AF9205
:1071D000BF92CF92DF92EF92FF920F931F93CF93C4
:1071E000DF9300D0CDB7DEB7F62EE72EB82EA92E4E
:1071F000142F69018FEF9FEF9A8389835A9A8DEF3D
:107200000E945338BE016F5F7F4F8DEF0E945A3846
:10721000BE016F5F7F4F8A2D0E948838BE016F5F6D
:107220007F4F8B2D0E948838BE016F5F7F4F8E2D60
:107230000E948838BE016F5F7F4F8F2D0E94883873
:10724000BE016F5F7F4F812F0E94883813FF1FC0E0
:107250001091E001F090E101E090E2018091E30102
:10726000BE016F5F7F4F0E948838BE016F5F7F4F06
:107270008E2D0E948838BE016F5F7F4F8F2D0E9438
:107280008838BE016F5F7F4F812F0E948838BE0112
:107290006F5F7F4F82E0800F0E94883876010C0D6F
:1072A0001D2D111DBE016F5F7F4FE016F10631F5F8
:1072B00080E00E945A38BE016F5F7F4F80E00E94DD
:1072C0005A388A810E94D93889810E94D9388091A0
:1072D000C00086FFFCCF8091C00080648093C00016
:1072E0005A980F900F90DF91CF911F910F91FF90BF
:1072F000EF90DF90CF90BF90AF900895F70181910C
:107300007F010E948838CECF0F934091DF014295D4
:10731000440F407E496100E030E020E00E94E73801
:107320000F9108950F93CF93DF9300D0CDB7DEB7C1
:107330008FEF898388E08A8302E09E012F5F3F4FB1
:1073400048EF6FEF7FEFCB010E94E7380F900F906F
:10735000DF91CF910F9108958F929F92AF92BF923C
:10736000CF92DF92EF92FF920F931F93CF93DF9311
:10737000CDB7DEB760970FB6F894DEBF0FBECDBFB6
:1073800081E489831A821B821C821D8281E08E83A4
:107390006091E0017091E1018091E2019091E3013F
:1073A00028E42F8322E4288727E529878E010F5FB1
:1073B0001F4F7E0126E0E21AF10868012AE0822EC2
:1073C000912CA12CB12CA50194010E94023D605D7D
:1073D000F8016787B901CA0101501109E016F106E9
:1073E00091F700E1960148EF6FEF7FEFCB010E942C
:1073F000E73860960FB6F894DEBF0FBECDBFDF91C1
:10740000CF911F910F91FF90EF90DF90CF90BF90A1
:10741000AF909F908F900895CF93DF93CDB7DEB755
:10742000C854D1090FB6F894DEBF0FBECDBF14B754
:1074300014BE0FB6F894A89580916000886180937F
:107440006000109260000FBE8CEF93E00E94323D0E
:10745000082F8DEF93E00E94323D90E0B0E0A0E075
:107460007C01DD24CC24F02A8EEF93E00E94323D93
:10747000082F8FEF93E00E94323D9601282BD70111
:10748000C901902B8093E0019093E101A093E20168
:10749000B093E3018F3F9F4FAF4FBF4F61F48FEF2A
:1074A0009FEFAFEFB2E48093E0019093E101A093EE
:1074B000E201B093E30113FD08C0F0E0E0E0859144
:1074C0009491019611F00E9482381092C50083E3D6
:1074D0008093C40086E28093C20088E18093C1005B
:1074E000529A5A9888EC90E020E931E0F9013197FE
:1074F000F1F70197D9F70E94923980E29EE4019753
:10750000F1F70E94AC391092800085E080938100F1
:10751000109285001092840081E086BB10E0CE01BD
:1075200001963C01DE0114962396BFAFAEAF2397C0
:1075300022242A94322C442443948091C00087FF53
:1075400077C00091C60083E0800F8230B0F4409293
:107550008B0110928A0110928E01309205012092C7
:10756000040110928D01309203012092020162E029
:1075700071E0802F0E945A38E0CF80918B018823E0
:10758000E1F20C3F19F440928A01D7CF80918A0131
:10759000882319F0006810928A0162E071E0802F60
:1075A0000E945A3880918E018035C0F4E82FF0E0B7
:1075B000E157FE4F0083843089F4902F987129F0B1
:1075C00091E0202F2370233009F490E090938C01F8
:1075D000992309F43FC09AE090938D01E0908D01CA
:1075E000EE2071F02E2D30E0A90141505109841791
:1075F000150631F4200F311D30930501209304014D
:107600008F5F80938E012091040130910501121645
:1076100013060CF076C08217130609F072C0C090F2
:107620000201D0900301C114D104B1F00E9473385B
:10763000B09B83CF81E086BB1F5F163008F47BCF01
:10764000F0E0E0E085919491019609F474CF0E94F6
:10765000823871CF96E0C0CF60918F017091900118
:1076600080919101909192010E94243D27966CAFE8
:107670007DAF8EAF9FAF27971091930180918C01C2
:10768000812C912C5401882361F0609194017091B8
:10769000950180919601909197010E94243D4B01A4
:1076A0005C01F12CF701E157FE4F2996FFAFEEAFD9
:1076B0002997319750800E94733816951370109354
:1076C000DF0127962CAD3DAD4EAD5FAD27972F3F27
:1076D0003F4F4F4F5F4FD9F4952D923008F492E011
:1076E0000EEF090F39F12996AEADBFAD29978C91F8
:1076F0008A3751F580910701882319F140920601DC
:1077000019C0803508F419CF0E94733816CF8091C4
:10771000E0019091E101A091E201B091E30127968F
:107720002CAD3DAD4EAD5FAD2797281739074A0701
:107730005B0791F2109285001092840046BA10E027
:1077400077CF40920701F6CF8A3529F410920601CF
:1077500010920701EFCF20910601222379F085379F
:1077600049F71092060110920701C501B4010E9469
:1077700084390E9492390E94AC39DCCFF701E1577D
:10778000FE4F7F01803709F4DAC0E0F5873609F44F
:1077900000C138F4813479F3C501B4010E94843901
:1077A000C9CF883609F4ECC08E36B1F76091E0019C
:1077B0007091E1018091E2019091E30128E4298335
:1077C00022E42A8327E52B837E01FBE0EF0EF11CE8
:1077D0002AE030E040E050E00E94023D605DD701C9
:1077E0006E937D01B901CA012396EEADFFAD2397DB
:1077F000AE17BF0769F7412F4295440F407E486995
:107800000AE0B0C0853709F4ACCFF8F4823721F62E
:107810000E949A38043008F48DCFF701818192815B
:107820009827892798270381013408F000E4D301C1
:10783000861997092A2F2619201708F4A4C0412F6A
:107840004295440F407E49618DC0863709F490C04F
:10785000873709F0A1CF043008F46CCFC180D28003
:10786000DC24CD24DC2483812AEF522E590E851589
:1078700008F4582E19825A82412F4295440F407EB7
:10788000496102E09301C501B4010E94E73880918B
:10789000080181110FC083E0F0E0E0E08093570021
:1078A000E89507B600FCFDCF81E180935700E8958D
:1078B00040920801852D90E0B0E0A0E08C0D9D1D68
:1078C000A11DB11D81309047A105B10508F032CF4F
:1078D000570186010E191F098A2D8E19851508F08A
:1078E00029CF6801CA0CDB1C460120E88222809166
:1078F0000001909101018816990671F00E949A3852
:10790000909201018092000140E850E06FEF70E03A
:107910008AE091E00E942B3D80910001909101014D
:10792000F601E81BF90BE65FFE4FD50114968C912A
:10793000808340920901BFEFAB1ABB0ACDCF0E94F2
:107940009A383092010120920001109209011092A0
:107950000801198280E48A83412F4295440F407EBA
:10796000496102E09301C501B4010E94E738E2CE0B
:1079700019824A82412F4295440F407E4869F1CFD7
:1079800019821A82F7CFFC01EA0FFB1FE491ED93F5
:1079900051CF0E949A38C501B4010E94843980E217
:1079A0009EE40197F1F7053028F1D70111960D916A
:1079B0001C9112971027012710271396ED90FC9029
:1079C000FE24EF24FE243A8229820C151D0549F479
:1079D00089819A81E816F90609F0ACCE0E948238B6
:1079E000A9CEF6018491B3010E945A38FFEFCF1A55
:1079F000DF0AEBCFF0E0E0E085919491019609F485
:107A000099CEECCFA1E21A2EAA1BBB1BFD010DC023
:107A1000AA1FBB1FEE1FFF1FA217B307E407F5073E
:107A200020F0A21BB30BE40BF50B661F771F881F1A
:107A3000991F1A9469F760957095809590959B01B0
:107A4000AC01BD01CF0108956927962769277827E2
:107A5000872778270895DC0101C06D93415050407D
:107A6000E0F70895F999FECF92BD81BDF89A992764
:087A700080B50895F894FFCFE2
:067A7800FFFFFFFFFFFF0E
:040000030000700089
:00000001FF
