:100000000C9447000C9471000C9471000C947100D6
:100010000C9471000C9471000C9471000C9471009C
:100020000C9471000C9471000C9471000C9471008C
:100030000C9471000C9471000C9471000C9471007C
:100040000C9471000C9471000C94E9020C947100F2
:100050000C945D030C9433030C9471000C947100A8
:100060000C9471000C9471000C9471000C9471004C
:100070000C9471000C9471000C9471000C9471003C
:100080000C9471000C9471000C947100C80511243B
:100090001FBECFEFD0E4DEBFCDBF11E0A0E0B1E0E6
:1000A000E2E5FCE000E00BBF02C007900D92A63134
:1000B000B107D9F722E0A6E1B1E001C01D92A83155
:1000C000B207E1F710E0C7E4D0E004C02197FE01D9
:1000D0000E941E06C634D107C9F70E9493030C94F0
:1000E00027060C9400003FB7F89480911402909179
:1000F0001502A0911602B091170226B5A89B05C063
:100100002F3F19F00196A11DB11D3FBFBA2FA92F96
:10011000982F8827BC01CD01620F711D811D911D93
:1001200042E0660F771F881F991F4A95D1F70895FF
:10013000AF92BF92CF92DF92EF92FF920F931F93F5
:10014000CF93DF936C017B018B01040F151FEB0133
:100150005E01AE18BF08C017D10759F06991D601EA
:10016000ED91FC910190F081E02DC6010995892B5C
:1001700079F7C501DF91CF911F910F91FF90EF901B
:10018000DF90CF90BF90AF900895FC01538D448DC8
:10019000252F30E0842F90E0821B930B541710F032
:1001A000CF96089501970895FC01918D828D98173F
:1001B00061F0A28DAE0FBF2FB11D5D968C91928D17
:1001C0009F5F9F73928F90E008958FEF9FEF089548
:1001D000FC01918D828D981731F0828DE80FF11D11
:1001E000858D90E008958FEF9FEF0895FC01918D2C
:1001F000228D892F90E0805C9F4F821B91098F7325
:10020000992708958BE691E00E94F60021E0892B62
:1002100009F420E0822F0895FC01A48DA80FB92FC6
:10022000B11DA35ABF4F2C91848D90E001968F731E
:100230009927848FA689B7892C93A089B1898C913D
:10024000837080648C93938D848D981306C002888C
:10025000F389E02D80818F7D80830895EF92FF9256
:100260000F931F93CF93DF93EC0181E0888F9B8DD9
:100270008C8D98131AC0E889F989808185FF15C093
:100280009FB7F894EE89FF896083E889F9898081B6
:100290008370806480839FBF81E090E0DF91CF9185
:1002A0001F910F91FF90EF900895F62E0B8D10E0A7
:1002B0000F5F1F4F0F731127E02E8C8D8E110CC016
:1002C0000FB607FCFACFE889F989808185FFF5CF61
:1002D000CE010E940C01F1CFEB8DEC0FFD2FF11D33
:1002E000E35AFF4FF0829FB7F8940B8FEA89FB899E
:1002F00080818062CFCFCF93DF93EC01888D8823FC
:10030000B9F0AA89BB89E889F9898C9185FD03C078
:10031000808186FD0DC00FB607FCF7CF8C9185FF5D
:10032000F2CF808185FFEDCFCE010E940C01E9CF95
:10033000DF91CF91089580E090E0892B29F00E9411
:10034000020181110E94000080E090E0892B49F0B9
:1003500080E090E0892B29F00E94000081110C942C
:100360000000089510926A011092690110926801CC
:100370008FEF9FEF9093030180930201109267012A
:100380000895FB012081318198E0432F441F4427C9
:10039000441F220F331F87FD2160442321F0F2E028
:1003A0002F27F0E13F27880F915079F7FB01318328
:1003B00020830895CF93C82F6115710511F00E9415
:1003C000C10184E08C0F6C2F833038F46CEF8BE626
:1003D00091E00E942E016C2F6F778BE691E0CF9118
:1003E0000C942E01AF92BF92CF92DF92EF92FF92C8
:1003F0000F931F93CF93DF9300D0CDB7DEB7F62EC8
:10040000E72EB82EA92E142F69018FEF9FEF9A8344
:1004100089835A9A6DEF8BE691E00E942E01BE010E
:100420006F5F7F4F8DEF0E94C101BE016F5F7F4FF5
:100430008A2D0E94DA01BE016F5F7F4F8B2D0E94D3
:10044000DA01BE016F5F7F4F8E2D0E94DA01BE017F
:100450006F5F7F4F8F2D0E94DA01BE016F5F7F4F6C
:10046000812F0E94DA0113FF18C0BE016F5F7F4F1A
:1004700082E40E94DA01BE016F5F7F4F8FEF0E941E
:10048000DA01BE016F5F7F4F8FEF0E94DA01BE017C
:100490006F5F7F4F8FEF0E94DA01BE016F5F7F4F6A
:1004A00082E0800F0E94DA0176010C0D1D2D111DD6
:1004B000BE016F5F7F4F0E151F0531F0F70181916F
:1004C0007F010E94DA01F4CF80E00E94C101BE01E9
:1004D0006F5F7F4F80E00E94C10170E060E08A8121
:1004E0000E94DA0170E060E089810E94DA018BE607
:1004F00091E00E947B015A980F900F90DF91CF916D
:100500001F910F91FF90EF90DF90CF90BF90AF9031
:1005100008958F929F92AF92BF92CF92DF92EF9207
:10052000FF920F931F93CF93DF93CDB7DEB7609702
:100530000FB6F894DEBF0FBECDBF80E19E012F5FE6
:100540003F4F7901F901282F11922A95E9F791E49B
:1005500099838B8383E08E8388E48F8382E488870A
:1005600087E5898787016E0136E0C31AD1086FEFEE
:100570007FEF8FEF92E42AE0822E912CA12CB12CF8
:10058000A50194010E94F505605DF8016787B90136
:10059000CA01015011090C151D0591F700E19701E1
:1005A00048EF6FEF7FEFCB010E94F20160960FB62C
:1005B000F894DEBF0FBECDBFDF91CF911F910F9199
:1005C000FF90EF90DF90CF90BF90AF909F908F9073
:1005D00008951F920F920FB60F9211242F933F93FD
:1005E0008F939F93AF93BF938091100290911102CC
:1005F000A0911202B091130230910F0223E0230F59
:100600002D3768F126E8230F0296A11DB11D209316
:100610000F028093100290931102A0931202B093E4
:1006200013028091140290911502A0911602B091CC
:1006300017020196A11DB11D80931402909315021B
:10064000A0931602B0931702BF91AF919F918F9123
:100650003F912F910F900FBE0F901F90189501960C
:10066000A11DB11DD4CF1F920F920FB60F9211246E
:100670000BB60F922F933F934F935F936F937F939C
:100680008F939F93AF93BF93EF93FF938BE691E08C
:100690000E940C01FF91EF91BF91AF919F918F91BB
:1006A0007F916F915F914F913F912F910F900BBE72
:1006B0000F900FBE0F901F9018951F920F920FB6BC
:1006C0000F9211240BB60F922F938F939F93EF935A
:1006D000FF93E0917B01F0917C018081E0918101A9
:1006E000F091820182FD1DC09081809184018F5F15
:1006F0008F7320918501821741F0E0918401F0E031
:10070000E559FE4F958F80938401FF91EF919F9162
:100710008F912F910F900BBE0F900FBE0F901F90D7
:1007200018958081F2CFCF93DF93CDB7DEB72D97A9
:100730000FB6F894DEBF0FBECDBF789484B583604A
:1007400084BD85B5836085BD80916E008160809396
:100750006E0092E09093810080918100816080938F
:100760008100809180008160809380008091B10041
:1007700084608093B1008091B00081608093B0006C
:1007800080919100836080939100809190008160BE
:100790008093900087E880937A001092C1000FB692
:1007A000F894A89580916000886180936000109211
:1007B00060000FBE529A5A98E0917B01F0917C0143
:1007C0009083E0917701F09178011082E0917901B6
:1007D000F0917A0187E6808310928301E0917F0196
:1007E000F091800186E28083E0917D01F0917E01AD
:1007F000808188698083E0917D01F0917E01808114
:100800008F7D80830E9473006B017C0138EC832E06
:10081000912CA12CB12C0E9473006C197D098E09BA
:100820009F09683E734081059105A8F321E0821A73
:100830009108A108B10838EEC30E33E0D31EE11CC5
:10084000F11C81149104A104B10429F70E948902CA
:10085000DD24D39492E4C92E9E01265031093D87B0
:100860002C8722242A94322C8BE691E00E94F600F9
:10087000892B09F475C08BE691E00E94D400182FF3
:1008800083E0810F8230B0F4D0926A011092690146
:1008900010926801309203012092020110926701C8
:1008A000309201012092000160E071E0812F0E94EE
:1008B000C101DACF80916A018823B1F21C3F19F49B
:1008C000D0926901D1CF80916901882319F0106815
:1008D0001092690160E071E0812F0E94C1012091B6
:1008E0006801203598F4E22FF0E0E95EFE4F1083B6
:1008F000243061F410FF68C0812F8770813009F4C3
:1009000063C01092160186E080936701E090670152
:10091000EE2071F08E2D90E0AC014150510924176A
:10092000150631F4810F911D90930301809302010C
:100930002F5F2093680180910201909103011816A6
:1009400019060CF091C02817190609F08DC0809186
:10095000000190910101892B09F43FC00E94B2016E
:100960002FB7F8948091100290911102A091120279
:10097000B09113022FBF40910B0250910C02609175
:100980000D0270910E02841B950BA60BB70B893BD1
:100990009B40A105B105A8F02FB7F89480911002F3
:1009A00090911102A0911202B09113022FBF809377
:1009B0000B0290930C02A0930D02B0930E020E94C2
:1009C00089020E949B0150CF812F8870809316016D
:1009D000882309F498CF8AE097CF6091170170912E
:1009E00018018091190190911A010E9417062B019C
:1009F0003C0110911B0180911601812C912C540116
:100A0000882361F060911C0170911D0180911E018D
:100A100090911F010E9417064B015C01F12CC70148
:100A2000895E9E4F7C01FC01319700810E94B201DA
:100A3000412F50E055954795142F137010930A02DB
:100A40009FEF4916590669067906A1F4033008F4A8
:100A500087CFF70180818A37C9F480910902882302
:100A600091F0D09208027CCF203508F4FDCE0E9490
:100A7000B201FACEEFEF4E165E066E06E2E47E0697
:100A800009F06ECFE3CFD09209026ACF8A3529F4FC
:100A9000109208021092090263CF909108029923E4
:100AA000F1F0853709F05CCF412F4295440F407E2D
:100AB000496100E030E020E0C501B4010E94F2018C
:100AC0008BE691E00E947B0188E198E00FB6F894F4
:100AD000A895809360000FBE90936000FFCF8E3684
:100AE00051F180F4813409F450C0883609F038CFD0
:100AF0001A8219828983412F4295440F407E4869AA
:100B000002E011C0853781F2863709F029CF1982BA
:100B10001A821B8293E09B838983412F4295440F65
:100B2000407E486903E09E012F5F3F4FC501B4013D
:100B30000E94F20115CF8983F8E4FA83CB8287E51E
:100B40008C839E012F5F3F4F79016FEF7FEF8FEF17
:100B500092E439012AE030E040E050E00E94F505DF
:100B6000605DF7016287B901CA01F1E0EF1AF1088F
:100B70002C853D85E216F30669F7412F4295440F17
:100B8000407E48690BE09301D1CF0E948902E8CEF4
:100B9000EBE6F1E01382128288EE93E0A0E0B0E091
:100BA00084839583A683B78388E091E091838083D3
:100BB00085EC90E09587848784EC90E09787868722
:100BC00080EC90E0918B808B81EC90E0938B828B1A
:100BD00082EC90E0958B848B86EC90E0978B868BF3
:100BE000118E128E138E148E0895A1E21A2EAA1B56
:100BF000BB1BFD010DC0AA1FBB1FEE1FFF1FA217CD
:100C0000B307E407F50720F0A21BB30BE40BF50BC9
:100C1000661F771F881F991F1A9469F76095709552
:100C2000809590959B01AC01BD01CF010895692786
:100C3000962769277827872778270895EE0FFF1FC3
:100C40000024001C0BBE0790F691E02D0994F89447
:020C5000FFCFD4
:100C5200FFFFFFFF000000002E019800C5007B018E
:060C6200F600D400E800DA
:00000001FF
