:020000040000FA
:100000000C945B000C9483000C9483000C9483008C
:100010000C9483000C9483000C9483000C94830054
:100020000C9483000C9483000C9483000C94830044
:100030000C9483000C9483000C9483000C94830034
:100040000C94FB020C9483000C946B030C944503FA
:100050000C9483000C9483000C9483000C94830014
:100060000C9483000C9483000C9483000C94830004
:100070000C9483000C9483000C9483000C948300F4
:100080000C9483000C9483000C9483000C948300E4
:100090000C9483000C9483000C9483000C948300D4
:1000A0000C9483000C9483000C9483000C948300C4
:1000B0000C948300DC0511241FBECFEFD8E0DEBF17
:1000C000CDBF11E0A0E0B1E0E4E7FCE002C00590A4
:1000D0000D92A631B107D9F722E0A6E1B1E001C047
:1000E0001D92A831B207E1F710E0CBE5D0E004C0E3
:1000F0002197FE010E943206CA35D107C9F70E9436
:100100009D030C9438060C9400003FB7F89480913E
:10011000140290911502A0911602B091170226B513
:10012000A89B05C02F3F19F00196A11DB11D3FBF2F
:10013000BA2FA92F982F8827BC01CD01620F711DFE
:10014000811D911D42E0660F771F881F991F4A95F8
:10015000D1F70895AF92BF92CF92DF92EF92FF92C4
:100160000F931F93CF93DF936C017B018B01040FDF
:10017000151FEB015E01AE18BF08C017D10759F07B
:100180006991D601ED91FC910190F081E02DC601BD
:100190000995892B79F7C501DF91CF911F910F91B7
:1001A000FF90EF90DF90CF90BF90AF900895FC014B
:1001B000538D448D252F30E0842F90E0821B930BCC
:1001C000541710F0CF96089501970895FC01918D72
:1001D000828D981761F0A28DAE0FBF2FB11D5D9675
:1001E0008C91928D9F5F9F73928F90E008958FEF17
:1001F0009FEF0895FC01918D828D981731F0828DCB
:10020000E80FF11D858D90E008958FEF9FEF089521
:10021000FC01918D228D892F90E0805C9F4F821B85
:1002200091098F73992708958BE691E00E94080148
:1002300021E0892B09F420E0822F0895FC01A48D90
:10024000A80FB92FB11DA35ABF4F2C91848D90E0F8
:1002500001968F739927848FA689B7892C93A089DB
:10026000B1898C91837080648C93938D848D981365
:1002700006C00288F389E02D80818F7D80830895F8
:10028000EF92FF920F931F93CF93DF93EC0181E0E6
:10029000888F9B8D8C8D98131AC0E889F98980818D
:1002A00085FF15C09FB7F894EE89FF896083E889C0
:1002B000F98980818370806480839FBF81E090E0B2
:1002C000DF91CF911F910F91FF90EF900895F62E3F
:1002D0000B8D10E00F5F1F4F0F731127E02E8C8DD9
:1002E0008E110CC00FB607FCFACFE889F98980811E
:1002F00085FFF5CFCE010E941E01F1CFEB8DEC0FF3
:10030000FD2FF11DE35AFF4FF0829FB7F8940B8F3A
:10031000EA89FB8980818062CFCFCF93DF93EC01A4
:10032000888D8823B9F0AA89BB89E889F9898C91DD
:1003300085FD03C0808186FD0DC00FB607FCF7CF99
:100340008C9185FFF2CF808185FFEDCFCE010E9499
:100350001E01E9CFDF91CF91089580E090E0892BD5
:1003600029F00E94140181110E94000080E090E0B9
:10037000892B49F080E090E0892B29F00E94000051
:1003800081110C940000089510926A011092690185
:10039000109268018FEF9FEF909303018093020109
:1003A000109267010895FB012081318198E0432F6D
:1003B000441F4427441F220F331F87FD216044231D
:1003C00021F0F2E02F27F0E13F27880F915079F7D5
:1003D000FB01318320830895CF93C82F61157105E8
:1003E00011F00E94D30184E08C0F6C2F833038F41D
:1003F0006CEF8BE691E00E9440016C2F6F778BE6EB
:1004000091E0CF910C944001AF92BF92CF92DF92D6
:10041000EF92FF920F931F93CF93DF9300D0CDB74E
:10042000DEB7F62EE72EB82EA92E142F69018FEF16
:100430009FEF9A8389835A9A6DEF8BE691E00E9431
:100440004001BE016F5F7F4F8DEF0E94D301BE015F
:100450006F5F7F4F8A2D0E94EC01BE016F5F7F4F5F
:100460008B2D0E94EC01BE016F5F7F4F8E2D0E948D
:10047000EC01BE016F5F7F4F8F2D0E94EC01BE012A
:100480006F5F7F4F812F0E94EC0113FF18C0BE01E8
:100490006F5F7F4F82E40E94EC01BE016F5F7F4F70
:1004A0008FEF0E94EC01BE016F5F7F4F8FEF0E94C4
:1004B000EC01BE016F5F7F4F8FEF0E94EC01BE0128
:1004C0006F5F7F4F82E0800F0E94EC0176010C0D80
:1004D0001D2D111DBE016F5F7F4F0E151F0531F0E1
:1004E000F70181917F010E94EC01F4CF80E00E942E
:1004F000D301BE016F5F7F4F80E00E94D30170E0A7
:1005000060E08A810E94EC0170E060E089810E94D5
:10051000EC018BE691E00E948D015A980F900F90AC
:10052000DF91CF911F910F91FF90EF90DF90CF90CF
:10053000BF90AF9008958F929F92AF92BF92CF924B
:10054000DF92EF92FF920F931F93CF93DF93CDB77C
:10055000DEB760970FB6F894DEBF0FBECDBF80E167
:100560009E012F5F3F4F7901F901282F11922A95A3
:10057000E9F791E499838B8383E08E8388E48F830A
:1005800082E4888787E5898787016E0136E0C31A90
:10059000D1086FEF7FEF8FEF92E42AE0822E912C4B
:1005A000A12CB12CA50194010E940906605DF801FF
:1005B0006787B901CA01015011090C151D0591F792
:1005C00000E1970148EF6FEF7FEFCB010E9404023B
:1005D00060960FB6F894DEBF0FBECDBFDF91CF910E
:1005E0001F910F91FF90EF90DF90CF90BF90AF9051
:1005F0009F908F9008951F920F920FB60F92112423
:100600002F933F938F939F93AF93BF93809110024B
:1006100090911102A0911202B091130230910F0239
:1006200023E0230F2D3768F126E8230F0296A11D42
:10063000B11D20930F028093100290931102A0939A
:100640001202B09313028091140290911502A091AE
:100650001602B09117020196A11DB11D80931402DC
:1006600090931502A0931602B0931702BF91AF9119
:100670009F918F913F912F910F900FBE0F901F90E0
:1006800018950196A11DB11DD4CF1F920F920FB6E0
:100690000F9211242F933F934F935F936F937F9308
:1006A0008F939F93AF93BF93EF93FF938BE691E06C
:1006B0000E941E01FF91EF91BF91AF919F918F9189
:1006C0007F916F915F914F913F912F910F900FBE4E
:1006D0000F901F9018951F920F920FB60F92112432
:1006E0002F938F939F93EF93FF93E0917B01F09172
:1006F0007C018081E0918101F091820182FD1BC02B
:100700009081809184018F5F8F7320918501821782
:1007100041F0E0918401F0E0E559FE4F958F809320
:100720008401FF91EF919F918F912F910F900FBEB8
:100730000F901F9018958081F4CFCF93DF93CDB7A2
:10074000DEB72D970FB6F894DEBF0FBECDBF7894FD
:1007500084B5836084BD85B5836085BD80916E005E
:10076000816080936E0092E090938100809181007F
:1007700081608093810080918000816080938000FF
:100780008091B10084608093B1008091B00081605D
:100790008093B0008091910083608093910080915C
:1007A00090008160809390008091A100836080938D
:1007B000A1008091A00081608093A00087E88093D1
:1007C0007A001092C1000FB6F894A895809160004D
:1007D000886180936000109260000FBE529A5A9810
:1007E000E0917B01F0917C019083E0917701F091A1
:1007F00078011082E0917901F0917A0187E6808397
:1008000010928301E0917F01F091800186E2808364
:10081000E0917D01F0917E01808188698083E09183
:100820007D01F0917E0180818F7D80830E94850013
:100830006B017C0138EC832E912CA12CB12C0E94F1
:1008400085006C197D098E099F09683E73408105FA
:100850009105A8F321E0821A9108A108B10838EEA9
:10086000C30E33E0D31EE11CF11C81149104A104DA
:10087000B10429F70E949B02DD24D39492E4C92E8F
:100880009E01265031093D872C8722242A94322C40
:100890008BE691E00E940801892B09F475C08BE674
:1008A00091E00E94E600182F83E0810F8230B0F4BF
:1008B000D0926A011092690110926801309203018E
:1008C00020920201109267013092010120920001F2
:1008D00060E071E0812F0E94D301DACF80916A013C
:1008E0008823B1F21C3F19F4D0926901D1CF8091D5
:1008F0006901882319F010681092690160E071E0C5
:10090000812F0E94D30120916801203598F4E22FB5
:10091000F0E0E95EFE4F1083243061F410FF68C000
:10092000812F8770813009F463C01092160186E030
:1009300080936701E0906701EE2071F08E2D90E0CA
:10094000AC01415051092417150631F4810F911D56
:1009500090930301809302012F5F2093680180919F
:10096000020190910301181619060CF091C0281786
:10097000190609F08DC08091000190910101892B29
:1009800009F43FC00E94C4012FB7F894809110026F
:1009900090911102A0911202B09113022FBF4091C9
:1009A0000B0250910C0260910D0270910E02841B9B
:1009B000950BA60BB70B893B9B40A105B105A8F091
:1009C0002FB7F8948091100290911102A091120219
:1009D000B09113022FBF80930B0290930C02A0934F
:1009E0000D02B0930E020E949B020E94AD0150CFF7
:1009F000812F887080931601882309F498CF8AE0AC
:100A000097CF609117017091180180911901909111
:100A10001A010E942B062B013C0110911B018091B1
:100A20001601812C912C5401882361F060911C01E6
:100A300070911D0180911E0190911F010E942B0653
:100A40004B015C01F12CC701895E9E4F7C01FC01CA
:100A5000319700810E94C401412F50E05595479580
:100A6000142F137010930A029FEF49165906690656
:100A70007906A1F4033008F487CFF70180818A3723
:100A8000C9F480910902882391F0D09208027CCFAA
:100A9000203508F4FDCE0E94C401FACEEFEF4E16C9
:100AA0005E066E06E2E47E0609F06ECFE3CFD092DA
:100AB00009026ACF8A3529F41092080210920902BD
:100AC00063CF909108029923F1F0853709F05CCF4C
:100AD000412F4295440F407E496100E030E020E024
:100AE000C501B4010E9404028BE691E00E948D01D1
:100AF00088E198E00FB6F894A895809360000FBE47
:100B000090936000FFCF8E3651F180F4813409F468
:100B100050C0883609F038CF1A8219828983412F54
:100B20004295440F407E486902E011C0853781F24A
:100B3000863709F029CF19821A821B8293E09B83A2
:100B40008983412F4295440F407E486903E09E010E
:100B50002F5F3F4FC501B4010E94040215CF898366
:100B6000F8E4FA83CB8287E58C839E012F5F3F4FA9
:100B700079016FEF7FEF8FEF92E439012AE030E0E7
:100B800040E050E00E940906605DF7016287B9010C
:100B9000CA01F1E0EF1AF1082C853D85E216F30653
:100BA00069F7412F4295440F407E48690BE093015D
:100BB000D1CF0E949B02E8CEEBE6F1E013821282D5
:100BC00088EE93E0A0E0B0E084839583A683B783AA
:100BD00088E091E09183808385EC90E0958784871D
:100BE00084EC90E09787868780EC90E0918B808BF7
:100BF00081EC90E0938B828B82EC90E0958B848BE0
:100C000086EC90E0978B868B118E128E138E148E4D
:100C10000895A1E21A2EAA1BBB1BFD010DC0AA1F3D
:100C2000BB1FEE1FFF1FA217B307E407F50720F055
:100C3000A21BB30BE40BF50B661F771F881F991FD0
:100C40001A9469F760957095809590959B01AC0119
:100C5000BD01CF010895692796276927782787273F
:100C600078270895EE0FFF1F0590F491E02D099469
:100C7000F894FFCFFFFFFFFF000000004001AA0033
:0A0C8000D7008D010801E600FA001C
:107000000C945A380C9477380C9477380C94773861
:107010000C9477380C9477380C9477380C94773834
:107020000C9477380C9477380C9477380C94773824
:107030000C9477380C9477380C9477380C94773814
:107040000C9477380C9477380C9477380C94773804
:107050000C9477380C9477380C9477380C947738F4
:107060000C9477380C9477380C9477380C947738E4
:107070000C9477380C9477380C9477380C947738D4
:107080000C9477380C9477380C9477380C947738C4
:107090000C9477380C9477380C9477380C947738B4
:1070A0000C9477380C9477380C9477380C947738A4
:1070B0000C94773811241FBECFEFD8E0DEBFCDBFD0
:1070C00011E0A0E0B1E0E4ECFAE702C005900D9217
:1070D000A630B107D9F721E0A6E0B1E001C01D92CA
:1070E000A43EB207E1F70E94323A0C94603D0C9442
:1070F00000389091C00095FFFCCF8093C6000895A2
:10710000FB012081318198E0432F441F4427441F15
:10711000220F331F87FD2160442321F0F2E02F2747
:10712000F0E13F27880F915079F7FB0131832083ED
:10713000089510928B0110928A0110928E018FEFA8
:107140009FEF909305018093040110928D010895A3
:107150001092C100F894F0E0E0E00994CF93C82FBA
:107160000E94803884E08C0F833040F48CEF0E94C2
:1071700079388C2F8F77CF910C9479388C2FFBCF67
:10718000CF93DF9380910901882309F435C0809162
:1071900000019091010123E0FC0120935700E89544
:1071A00007B600FCFDCF4AE851E0AAE0B1E061E09B
:1071B000EC01CA50D140FE01EA0FFB1F11962C9141
:1071C00011973C9123273227232709016093570009
:1071D000E895112412964A175B0769F725E0FC0130
:1071E00020935700E89507B600FCFDCF81E180931E
:1071F0005700E89510920901DF91CF910895CF9340
:1072000094E0980F933030F4C82F8CEF0E947938B7
:107210008C2F8F77CF910C947938AF92BF92CF9209
:10722000DF92EF92FF920F931F93CF93DF9300D0E3
:10723000CDB7DEB7F62EE72EB82EA92E142F690192
:107240008FEF9FEF9A8389835A9A8DEF0E94793846
:10725000BE016F5F7F4F8DEF0E948038BE016F5F70
:107260007F4F8A2D0E94AE38BE016F5F7F4F8B2DFE
:107270000E94AE38BE016F5F7F4F8E2D0E94AE38E8
:10728000BE016F5F7F4F8F2D0E94AE38BE016F5FD2
:107290007F4F812F0E94AE3813FF1FC01091E00175
:1072A000F090E101E090E2018091E301BE016F5FA7
:1072B0007F4F0E94AE38BE016F5F7F4F8E2D0E94C0
:1072C000AE38BE016F5F7F4F8F2D0E94AE38BE017A
:1072D0006F5F7F4F812F0E94AE38BE016F5F7F4F7F
:1072E00082E0800F0E94AE3876010C0D1D2D111D1D
:1072F000BE016F5F7F4FE016F10631F580E00E941E
:107300008038BE016F5F7F4F80E00E9480388A81A5
:107310000E94FF3889810E94FF388091C00086FF5B
:10732000FCCF8091C00080648093C0005A980F9079
:107330000F90DF91CF911F910F91FF90EF90DF9011
:10734000CF90BF90AF900895F70181917F010E9487
:10735000AE38CECF0F934091DF014295440F407E6F
:10736000496100E030E020E00E940D390F9108955E
:107370000F93CF93DF9300D0CDB7DEB78FEF898324
:1073800088E08A8302E09E012F5F3F4F48EF6FEF56
:107390007FEFCB010E940D390F900F90DF91CF91BD
:1073A0000F9108958F929F92AF92BF92CF92DF92EA
:1073B000EF92FF920F931F93CF93DF93CDB7DEB77A
:1073C00060970FB6F894DEBF0FBECDBF81E489830E
:1073D0001A821B821C821D8281E08E836091E001F3
:1073E0007091E1018091E2019091E30128E42F8303
:1073F00022E4288727E529878E010F5F1F4F7E0132
:1074000026E0E21AF10868012AE0822E912CA12CD4
:10741000B12CA50194010E94283D605DF8016787A9
:10742000B901CA0101501109E016F10691F700E116
:10743000960148EF6FEF7FEFCB010E940D39609608
:107440000FB6F894DEBF0FBECDBFDF91CF911F9175
:107450000F91FF90EF90DF90CF90BF90AF909F90F3
:107460008F900895CF93DF93CDB7DEB7C854D1097D
:107470000FB6F894DEBF0FBECDBF14B714BE0FB663
:10748000F894A895809160008861809360001092C4
:1074900060000FBE8CEF93E00E94583D082F8DEFE7
:1074A00093E00E94583D90E0B0E0A0E07C01DD2434
:1074B000CC24F02A8EEF93E00E94583D082F8FEFE6
:1074C00093E00E94583D9601282BD701C901902BCB
:1074D0008093E0019093E101A093E201B093E30176
:1074E0008F3F9F4FAF4FBF4F61F48FEF9FEFAFEFD5
:1074F000B2E48093E0019093E101A093E201B093A4
:10750000E30113FD08C0F0E0E0E08591949101965D
:1075100011F00E94A8381092C50083E38093C40044
:1075200086E28093C20088E18093C100529A5A9803
:1075300088EC90E020E931E0F9013197F1F701970B
:10754000D9F70E94B83980E29EE40197F1F70E94D2
:10755000D2391092800085E08093810010928500DE
:107560001092840081E086BB10E0CE0101963C01C0
:10757000DE0114962396BFAFAEAF239722242A9440
:10758000322C442443948091C00087FF77C000913F
:10759000C60083E0800F8230B0F440928B011092DD
:1075A0008A0110928E0130920501209204011092FE
:1075B0008D01309203012092020162E071E0802F80
:1075C0000E948038E0CF80918B018823E1F20C3F4C
:1075D00019F440928A01D7CF80918A01882319F04B
:1075E000006810928A0162E071E0802F0E9480386A
:1075F00080918E018035C0F4E82FF0E0E157FE4F16
:107600000083843089F4902F987129F091E0202F25
:107610002370233009F490E090938C01992309F4AE
:107620003FC09AE090938D01E0908D01EE2071F0C3
:107630002E2D30E0A901415051098417150631F46F
:10764000200F311D30930501209304018F5F80933B
:107650008E012091040130910501121613060CF0E1
:1076600076C08217130609F072C0C0900201D09054
:107670000301C114D104B1F00E949938B09B83CFAB
:1076800081E086BB1F5F163008F47BCFF0E0E0E0BE
:1076900085919491019609F474CF0E94A83871CF16
:1076A00096E0C0CF60918F0170919001809191011F
:1076B000909192010E944A3D27966CAF7DAF8EAFAC
:1076C0009FAF27971091930180918C01812C912C71
:1076D0005401882361F0609194017091950180912B
:1076E0009601909197010E944A3D4B015C01F12C5B
:1076F000F701E157FE4F2996FFAFEEAF299731977B
:1077000050800E949938169513701093DF012796C8
:107710002CAD3DAD4EAD5FAD27972F3F3F4F4F4F47
:107720005F4FD9F4952D923008F492E00EEF090FD7
:1077300039F12996AEADBFAD29978C918A3751F5B5
:1077400080910701882319F14092060119C0803504
:1077500008F419CF0E94993816CF8091E0019091DA
:10776000E101A091E201B091E30127962CAD3DAD7E
:107770004EAD5FAD2797281739074A075B0791F28F
:10778000109285001092840046BA10E077CF4092A4
:107790000701F6CF8A3529F41092060110920701ED
:1077A000EFCF20910601222379F0853749F7109217
:1077B000060110920701C501B4010E94AA390E9476
:1077C000B8390E94D239DCCFF701E157FE4F7F0173
:1077D000803709F4DAC0E0F5873609F400C138F4DF
:1077E000813479F3C501B4010E94AA39C9CF883622
:1077F00009F4ECC08E36B1F76091E0017091E101BF
:107800008091E2019091E30128E4298322E42A8314
:1078100027E52B837E01FBE0EF0EF11C2AE030E030
:1078200040E050E00E94283D605DD7016E937D01ED
:10783000B901CA012396EEADFFAD2397AE17BF077E
:1078400069F7412F4295440F407E48690AE0B0C075
:10785000853709F4ACCFF8F4823721F60E94C0389E
:10786000043008F48DCFF701818192819827892710
:1078700098270381013408F000E4D30186199709A1
:107880002A2F2619201708F4A4C0412F4295440F2F
:10789000407E49618DC0863709F490C0873709F072
:1078A000A1CF043008F46CCFC180D280DC24CD2479
:1078B000DC2483812AEF522E590E851508F4582EA8
:1078C00019825A82412F4295440F407E496102E05D
:1078D0009301C501B4010E940D3980910801811105
:1078E0000FC083E0F0E0E0E080935700E89507B632
:1078F00000FCFDCF81E180935700E895409208019C
:10790000852D90E0B0E0A0E08C0D9D1DA11DB11D66
:1079100081309047A105B10508F032CF57018601AB
:107920000E191F098A2D8E19851508F029CF6801B7
:10793000CA0CDB1C460120E8822280910001909154
:1079400001018816990671F00E94C03890920101D9
:107950008092000140E850E06FEF70E08AE091E033
:107960000E94513D8091000190910101F601E81BB8
:10797000F90BE65FFE4FD50114968C9180834092FF
:107980000901BFEFAB1ABB0ACDCF0E94C0383092BD
:107990000101209200011092090110920801198240
:1079A00080E48A83412F4295440F407E496102E082
:1079B0009301C501B4010E940D39E2CE19824A82B9
:1079C000412F4295440F407E4869F1CF19821A82B7
:1079D000F7CFFC01EA0FFB1FE491ED9351CF0E941A
:1079E000C038C501B4010E94AA3980E29EE4019723
:1079F000F1F7053028F1D70111960D911C911297DE
:107A00001027012710271396ED90FC90FE24EF24F9
:107A1000FE243A8229820C151D0549F489819A8138
:107A2000E816F90609F0ACCE0E94A838A9CEF601F6
:107A30008491B3010E948038FFEFCF1ADF0AEBCFA9
:107A4000F0E0E0E085919491019609F499CEECCFB5
:107A5000A1E21A2EAA1BBB1BFD010DC0AA1FBB1F52
:107A6000EE1FFF1FA217B307E407F50720F0A21BC4
:107A7000B30BE40BF50B661F771F881F991F1A9431
:107A800069F760957095809590959B01AC01BD015B
:107A9000CF010895692796276927782787277827B0
:107AA0000895DC0101C06D9341505040E0F7089506
:107AB000F999FECF92BD81BDF89A992780B50895B6
:0A7AC000F894FFCFFFFFFFFFFFFF68
:00000001FF
