:020000040000FA
:100000000C943F000C9467000C9467000C946700FC
:100010000C9467000C9467000C9467000C946700C4
:100020000C9467000C9467000C9467000C946700B4
:100030000C9467000C9467000C9467000C946700A4
:100040000C9467000C9467000C94DF020C9467001A
:100050000C944F030C9429030C9467000C946700D4
:100060000C9467000C9467000C9467000C94670074
:100070000C9467000C9467000C946700AC05112485
:100080001FBECFEFD0E1DEBFCDBF11E0A0E0B1E0F9
:10009000E4E1FCE002C005900D92A631B107D9F76A
:1000A00022E0A6E1B1E001C01D92A831B207E1F75C
:1000B00010E0CFE3D0E004C02197FE010E940206C9
:1000C000CE33D107C9F70E9481030C9408060C9423
:1000D00000003FB7F8948091140290911502A0910E
:1000E0001602B091170226B5A89B05C02F3F19F044
:1000F0000196A11DB11D3FBFBA2FA92F982F8827A8
:10010000BC01CD01620F711D811D911D42E0660F82
:10011000771F881F991F4A95D1F70895AF92BF9214
:10012000CF92DF92EF92FF920F931F93CF93DF93C3
:100130006C017B018B01040F151FEB015E01AE18F2
:10014000BF08C017D10759F06991D601ED91FC9114
:100150000190F081E02DC6010995892B79F7C50141
:10016000DF91CF911F910F91FF90EF90DF90CF9093
:10017000BF90AF900895FC01538D448D252F30E042
:10018000842F90E0821B930B541710F0CF960895A4
:1001900001970895FC01918D828D981761F0A28DD1
:1001A000AE0FBF2FB11D5D968C91928D9F5F9F7397
:1001B000928F90E008958FEF9FEF0895FC01918D4D
:1001C000828D981731F0828DE80FF11D858D90E0BA
:1001D00008958FEF9FEF0895FC01918D228D892F57
:1001E00090E0805C9F4F821B91098F73992708953F
:1001F0008BE691E00E94EC0021E0892B09F420E0DD
:10020000822F0895FC01A48DA80FB92FB11DA35A08
:10021000BF4F2C91848D90E001968F739927848F26
:10022000A689B7892C93A089B1898C918370806449
:100230008C93938D848D981306C00288F389E02DEA
:1002400080818F7D80830895EF92FF920F931F939B
:10025000CF93DF93EC0181E0888F9B8D8C8D981379
:100260001AC0E889F989808185FF15C09FB7F89485
:10027000EE89FF896083E889F989808183708064D1
:1002800080839FBF81E090E0DF91CF911F910F911C
:10029000FF90EF900895F62E0B8D10E00F5F1F4F2B
:1002A0000F731127E02E8C8D8E110CC00FB607FC3A
:1002B000FACFE889F989808185FFF5CFCE010E94C8
:1002C0000201F1CFEB8DEC0FFD2FF11DE35AFF4F33
:1002D000F0829FB7F8940B8FEA89FB898081806256
:1002E000CFCFCF93DF93EC01888D8823B9F0AA8913
:1002F000BB89E889F9898C9185FD03C0808186FDE1
:100300000DC00FB607FCF7CF8C9185FFF2CF80812F
:1003100085FFEDCFCE010E940201E9CFDF91CF91A1
:10032000089580E090E0892B29F00E94F800811167
:100330000E94000080E090E0892B49F080E090E08E
:10034000892B29F00E94000081110C94000008956F
:1003500010926A0110926901109268018FEF9FEF6D
:100360009093030180930201109267010895FB01AD
:100370002081318198E0432F441F4427441F220FDE
:10038000331F87FD2160442321F0F2E02F27F0E1A5
:100390003F27880F915079F7FB013183208308951F
:1003A000CF93C82F6115710511F00E94B70184E049
:1003B0008C0F6C2F833038F46CEF8BE691E00E9449
:1003C00024016C2F6F778BE691E0CF910C94240180
:1003D000AF92BF92CF92DF92EF92FF920F931F9353
:1003E000CF93DF9300D0CDB7DEB7F62EE72EB82E31
:1003F000A92E142F69018FEF9FEF9A8389835A9A50
:100400006DEF8BE691E00E942401BE016F5F7F4F8C
:100410008DEF0E94B701BE016F5F7F4F8A2D0E9452
:10042000D001BE016F5F7F4F8B2D0E94D001BE01B6
:100430006F5F7F4F8E2D0E94D001BE016F5F7F4F97
:100440008F2D0E94D001BE016F5F7F4F812F0E94D0
:10045000D00113FF18C0BE016F5F7F4F82E40E947E
:10046000D001BE016F5F7F4F8FEF0E94D001BE01B0
:100470006F5F7F4F8FEF0E94D001BE016F5F7F4F94
:100480008FEF0E94D001BE016F5F7F4F82E0800F2F
:100490000E94D00176010C0D1D2D111DBE016F5F54
:1004A0007F4F0E151F0531F0F70181917F010E94EA
:1004B000D001F4CF80E00E94B701BE016F5F7F4F93
:1004C00080E00E94B70170E060E08A810E94D00164
:1004D00070E060E089810E94D0018BE691E00E948B
:1004E00071015A980F900F90DF91CF911F910F914A
:1004F000FF90EF90DF90CF90BF90AF9008958F92D4
:100500009F92AF92BF92CF92DF92EF92FF920F93A2
:100510001F93CF93DF93CDB7DEB760970FB6F894F4
:10052000DEBF0FBECDBF80E19E012F5F3F4F79013F
:10053000F901282F11922A95E9F791E499838B8389
:1005400083E08E8388E48F8382E4888787E58987C8
:1005500087016E0136E0C31AD1086FEF7FEF8FEF8E
:1005600092E42AE0822E912CA12CB12CA5019401B9
:100570000E94D905605DF8016787B901CA01015081
:1005800011090C151D0591F700E1970148EF6FEF78
:100590007FEFCB010E94E80160960FB6F894DEBFB2
:1005A0000FBECDBFDF91CF911F910F91FF90EF90C4
:1005B000DF90CF90BF90AF909F908F9008951F9243
:1005C0000F920FB60F9211242F933F938F939F9307
:1005D000AF93BF938091100290911102A0911202EB
:1005E000B091130230910F0223E0230F2D3768F1F1
:1005F00026E8230F0296A11DB11D20930F028093C0
:10060000100290931102A0931202B09313028091F2
:10061000140290911502A0911602B0911702019652
:10062000A11DB11D8093140290931502A093160290
:10063000B0931702BF91AF919F918F913F912F91EE
:100640000F900FBE0F901F9018950196A11DB11D20
:10065000D4CF1F920F920FB60F9211242F933F9376
:100660004F935F936F937F938F939F93AF93BF93BA
:10067000EF93FF938BE691E00E940201FF91EF91CF
:10068000BF91AF919F918F917F916F915F914F91AA
:100690003F912F910F900FBE0F901F9018951F92B2
:1006A0000F920FB60F9211242F938F939F93EF9376
:1006B000FF93E0917B01F0917C018081E0918101C9
:1006C000F091820182FD1BC09081809184018F5F37
:1006D0008F7320918501821741F0E0918401F0E051
:1006E000E559FE4F958F80938401FF91EF919F9183
:1006F0008F912F910F900FBE0F901F9018958081B2
:10070000F4CFCF93DF93CDB7DEB72D970FB6F89424
:10071000DEBF0FBECDBF789484B5836084BD85B540
:10072000836085BD80916E00816080936E0092E051
:1007300090938100809181008160809381008091FD
:1007400080008160809380008091B10084608093FC
:10075000B1008091B00081608093B00087E8809301
:100760007A001092C1000FB6F894A89580916000AD
:10077000886180936000109260000FBE529A5A9870
:10078000E0917B01F0917C019083E0917701F09101
:1007900078011082E0917901F0917A0187E68083F7
:1007A00010928301E0917F01F091800186E28083C5
:1007B000E0917D01F0917E01808188698083E091E4
:1007C0007D01F0917E0180818F7D80830E94690090
:1007D0006B017C0138EC832E912CA12CB12C0E9452
:1007E00069006C197D098E099F09683E7340810577
:1007F0009105A8F321E0821A9108A108B10838EE0A
:10080000C30E33E0D31EE11CF11C81149104A1043A
:10081000B10429F70E947F02DD24D39492E4C92E0B
:100820009E01265031093D872C8722242A94322CA0
:100830008BE691E00E94EC00892B09F475C08BE6F1
:1008400091E00E94CA00182F83E0810F8230B0F43B
:10085000D0926A01109269011092680130920301EE
:100860002092020110926701309201012092000152
:1008700060E071E0812F0E94B701DACF80916A01B8
:100880008823B1F21C3F19F4D0926901D1CF809135
:100890006901882319F010681092690160E071E025
:1008A000812F0E94B70120916801203598F4E22F32
:1008B000F0E0E95EFE4F1083243061F410FF68C061
:1008C000812F8770813009F463C01092160186E091
:1008D00080936701E0906701EE2071F08E2D90E02B
:1008E000AC01415051092417150631F4810F911DB7
:1008F00090930301809302012F5F20936801809100
:10090000020190910301181619060CF091C02817E6
:10091000190609F08DC08091000190910101892B89
:1009200009F43FC00E94A8012FB7F89480911002EB
:1009300090911102A0911202B09113022FBF409129
:100940000B0250910C0260910D0270910E02841BFB
:10095000950BA60BB70B893B9B40A105B105A8F0F1
:100960002FB7F8948091100290911102A091120279
:10097000B09113022FBF80930B0290930C02A093AF
:100980000D02B0930E020E947F020E94910150CF8F
:10099000812F887080931601882309F498CF8AE00C
:1009A00097CF609117017091180180911901909172
:1009B0001A010E94FB052B013C0110911B01809143
:1009C0001601812C912C5401882361F060911C0147
:1009D00070911D0180911E0190911F010E94FB05E5
:1009E0004B015C01F12CC701895E9E4F7C01FC012B
:1009F000319700810E94A801412F50E055954795FD
:100A0000142F137010930A029FEF491659066906B6
:100A10007906A1F4033008F487CFF70180818A3783
:100A2000C9F480910902882391F0D09208027CCF0A
:100A3000203508F4FDCE0E94A801FACEEFEF4E1645
:100A40005E066E06E2E47E0609F06ECFE3CFD0923A
:100A500009026ACF8A3529F410920802109209021D
:100A600063CF909108029923F1F0853709F05CCFAC
:100A7000412F4295440F407E496100E030E020E084
:100A8000C501B4010E94E8018BE691E00E9471016A
:100A900088E198E00FB6F894A895809360000FBEA7
:100AA00090936000FFCF8E3651F180F4813409F4C9
:100AB00050C0883609F038CF1A8219828983412FB5
:100AC0004295440F407E486902E011C0853781F2AB
:100AD000863709F029CF19821A821B8293E09B8303
:100AE0008983412F4295440F407E486903E09E016F
:100AF0002F5F3F4FC501B4010E94E80115CF8983E4
:100B0000F8E4FA83CB8287E58C839E012F5F3F4F09
:100B100079016FEF7FEF8FEF92E439012AE030E047
:100B200040E050E00E94D905605DF7016287B9019D
:100B3000CA01F1E0EF1AF1082C853D85E216F306B3
:100B400069F7412F4295440F407E48690BE09301BD
:100B5000D1CF0E947F02E8CEEBE6F1E01382128251
:100B600088EE93E0A0E0B0E084839583A683B7830A
:100B700088E091E09183808385EC90E0958784877D
:100B800084EC90E09787868780EC90E0918B808B57
:100B900081EC90E0938B828B82EC90E0958B848B40
:100BA00086EC90E0978B868B118E128E138E148EAE
:100BB0000895A1E21A2EAA1BBB1BFD010DC0AA1F9E
:100BC000BB1FEE1FFF1FA217B307E407F50720F0B6
:100BD000A21BB30BE40BF50B661F771F881F991F31
:100BE0001A9469F760957095809590959B01AC017A
:100BF000BD01CF01089569279627692778278727A0
:100C000078270895EE0FFF1F0590F491E02D0994C9
:100C1000F894FFCFFFFFFFFF0000000024018E00CB
:0A0C2000BB007101EC00CA00DE0009
:10F000000C943E780C945B780C945B780C945B7851
:10F010000C945B780C945B780C945B780C945B7824
:10F020000C945B780C945B780C945B780C945B7814
:10F030000C945B780C945B780C945B780C945B7804
:10F040000C945B780C945B780C945B780C945B78F4
:10F050000C945B780C945B780C945B780C945B78E4
:10F060000C945B780C945B780C945B780C945B78D4
:10F070000C945B780C945B780C945B7811241FBE25
:10F08000CFEFD0E1DEBFCDBF11E0A0E0B1E0ECEA10
:10F09000FAEF02C005900D92A630B107D9F722E031
:10F0A000A6E0B1E001C01D92A436B207E1F70E94CC
:10F0B000177A0C94547D0C9400789091C00095FFC1
:10F0C000FCCF8093C6000895FB012081318198E038
:10F0D000432F441F4427441F220F331F87FD216005
:10F0E000442321F0F2E02F27F0E13F27880F9150D1
:10F0F00079F7FB0131832083089510920B0210925F
:10F100000A0210920E028FEF9FEF909305018093F9
:10F11000040110920D0208951092C100F894F0E0DD
:10F12000E0E00994CF93C82F0E94647884E08C0FAC
:10F13000833040F48CEF0E945D788C2F8F77CF91D5
:10F140000C945D788C2FFBCFCF93DF9380910901D6
:10F15000882309F435C0809100019091010123E0DA
:10F16000FC0120935700E89507B600FCFDCF4AE06C
:10F1700052E0AAE0B1E061E0EC01CA50D140FE01EA
:10F18000EA0FFB1F11962C9111973C9123273227F0
:10F190002327090160935700E895112412964A1716
:10F1A0005B0769F725E0FC0120935700E89507B657
:10F1B00000FCFDCF81E180935700E8951092090192
:10F1C000DF91CF910895CF9394E0980F933030F46E
:10F1D000C82F8CEF0E945D788C2F8F77CF910C9485
:10F1E0005D78AF92BF92CF92DF92EF92FF920F9332
:10F1F0001F93CF93DF9300D0CDB7DEB7F62EE72E67
:10F20000B82EA92E142F69018FEF9FEF9A8389835F
:10F210005A9A8DEF0E945D78BE016F5F7F4F8DEF30
:10F220000E946478BE016F5F7F4F8A2D0E949278A2
:10F23000BE016F5F7F4F8B2D0E949278BE016F5F82
:10F240007F4F8E2D0E949278BE016F5F7F4F8F2D72
:10F250000E949278BE016F5F7F4F812F0E9492784B
:10F2600013FF1FC010916002F0906102E0906202F3
:10F2700080916302BE016F5F7F4F0E949278BE0152
:10F280006F5F7F4F8E2D0E949278BE016F5F7F4F20
:10F290008F2D0E949278BE016F5F7F4F812F0E9459
:10F2A0009278BE016F5F7F4F82E0800F0E9492785C
:10F2B00076010C0D1D2D111DBE016F5F7F4FE016F5
:10F2C000F10631F580E00E946478BE016F5F7F4FE8
:10F2D00080E00E9464788A810E94E37889810E949C
:10F2E000E3788091C00086FFFCCF8091C0008064ED
:10F2F0008093C0005A980F900F90DF91CF911F918B
:10F300000F91FF90EF90DF90CF90BF90AF90089556
:10F31000F70181917F010E949278CECF0F934091A7
:10F320005F024295440F407E496100E030E020E0FA
:10F330000E94F1780F9108950F93CF93DF9300D03F
:10F34000CDB7DEB78FEF898388E08A8302E09E0124
:10F350002F5F3F4F48EF6FEF7FEFCB010E94F178B7
:10F360000F900F90DF91CF910F9108958F929F9200
:10F37000AF92BF92CF92DF92EF92FF920F931F93C3
:10F38000CF93DF93CDB7DEB760970FB6F894DEBFAB
:10F390000FBECDBF81E489831A8280E18B831C82FA
:10F3A0001D8281E08E836091600270916102809184
:10F3B00062029091630228E42F8322E4288727E5E4
:10F3C00029878E010F5F1F4F7E0126E0E21AF108A8
:10F3D00068012AE0822E912CA12CB12CA501940168
:10F3E0000E941C7D605DF8016787B901CA01015068
:10F3F0001109E016F10691F700E1960148EF6FEF71
:10F400007FEFCB010E94F17860960FB6F894DEBFD3
:10F410000FBECDBFDF91CF911F910F91FF90EF9065
:10F42000DF90CF90BF90AF909F908F900895CF9333
:10F43000DF93CDB7DEB7C854D1090FB6F894DEBF5D
:10F440000FBECDBF14B714BE0FB6F894A895809127
:10F450006000886180936000109260000FBE8CEFA6
:10F4600097E00E944C7D082F8DEF97E00E944C7D25
:10F4700090E0B0E0A0E07C01DD24CC24F02A8EEF07
:10F4800097E00E944C7D082F8FEF97E00E944C7D03
:10F490009601282BD701C901902B8093600290938D
:10F4A0006102A0936202B09363028F3F9F4FAF4F00
:10F4B000BF4F61F48FEF9FEFAFEFB2E48093600234
:10F4C00090936102A0936202B093630213FD08C09F
:10F4D000F0E0E0E085919491019611F00E948C7823
:10F4E0001092C50083E38093C40086E28093C2003B
:10F4F00088E18093C100529A5A9888EC90E020E904
:10F5000031E0F9013197F1F70197D9F70E949C7921
:10F5100080E29EE40197F1F70E94B6791092800094
:10F5200085E080938100109285001092840081E034
:10F5300086BB10E0CE0101963C01DE0116972396B2
:10F54000BFAFAEAF239722242A94322C4424439495
:10F550008091C00087FF77C00091C60083E0800FD4
:10F560008230B0F440920B0210920A0210920E0206
:10F57000309205012092040110920D023092030195
:10F580002092020162E071E0802F0E946478E0CF57
:10F5900080910B028823E1F20C3F19F440920A0299
:10F5A000D7CF80910A02882319F0006810920A02CE
:10F5B00062E071E0802F0E94647880910E028035B5
:10F5C000C0F4E82FF0E0E15FFD4F0083843089F460
:10F5D000902F987129F091E0202F2370233009F4A7
:10F5E00090E090930C02992309F43FC09AE0909325
:10F5F0000D02E0900D02EE2071F02E2D30E0A901F9
:10F60000415051098417150631F4200F311D3093F4
:10F610000501209304018F5F80930E022091040165
:10F6200030910501121613060CF076C082171306EE
:10F6300009F072C0C0900201D0900301C114D1043E
:10F64000B1F00E947D78B09B83CF81E086BB1F5FC5
:10F65000163008F47BCFF0E0E0E0859194910196BC
:10F6600009F474CF0E948C7871CF96E0C0CF60917E
:10F670000F027091100280911102909112020E946B
:10F680003E7D27966CAF7DAF8EAF9FAF27971091D1
:10F69000130280910C02812C912C5401882361F07B
:10F6A00060911402709115028091160290911702D8
:10F6B0000E943E7D4B015C01F12CF701E15FFD4FA3
:10F6C0002996FFAFEEAF2997319750800E947D7841
:10F6D0001695137010935F0227962CAD3DAD4EAD7D
:10F6E0005FAD27972F3F3F4F4F4F5F4FD9F4952D79
:10F6F000923008F492E00EEF090F39F12996AEAD81
:10F70000BFAD29978C918A3751F5809107018823E5
:10F7100019F14092060119C0803508F419CF0E94F2
:10F720007D7816CF8091600290916102A091620273
:10F73000B091630227962CAD3DAD4EAD5FAD2797DE
:10F74000281739074A075B0791F21092850010923B
:10F75000840046BA10E077CF40920701F6CF8A3591
:10F7600029F41092060110920701EFCF20910601B3
:10F77000222379F0853749F710920601109207018C
:10F78000C501B4010E948E790E949C790E94B679CD
:10F79000DCCFF701E15FFD4F7F01803709F4E6C060
:10F7A00008F047C0873609F40EC138F4813471F38C
:10F7B000C501B4010E948E79C8CF883609F4F5C01E
:10F7C0008E36B1F78EE68983609160027091610296
:10F7D000809162029091630228E42A8322E42B83C1
:10F7E00027E52C839E012F5F3F4F790169012AE0B5
:10F7F00030E040E050E00E941C7D605DD7011A9629
:10F800006C93B901CA01B1E0EB1AF1082396EEAD91
:10F81000FFAD2397EE16FF0651F7412F4295440F97
:10F82000407E48690BE09601C501B4010E94F17861
:10F830008CCF853709F4A0CF00F5823709F0B8CF17
:10F840000E94A478043008F480CFF701818192816E
:10F850009827892798270381013408F000E4D30111
:10F86000861997092A2F2619201708F4A6C0412FB8
:10F870004295440F407E496196C0863709F48AC09C
:10F88000873709F095CF043008F45FCFC180D2806C
:10F89000DC24CD24DC2483812AEF522E590E8515D9
:10F8A00008F4582E19825A82412F4295440F407E07
:10F8B000496102E09301C501B4010E94F178809191
:10F8C000080181110FC083E0F0E0E0E08093570071
:10F8D000E89507B600FCFDCF81E180935700E895DD
:10F8E00040920801852D90E0B0E0A0E08C0D9D1DB8
:10F8F000A11DB11D8130904FA105B10508F025CFA4
:10F90000570186010E191F098A2D8E19851508F0D9
:10F910001CCF6801CA0CDB1C4601882480910001C1
:10F92000909101018816990671F00E94A478909236
:10F9300001018092000140E051E06FEF70E08AE049
:10F9400091E00E94457D8091000190910101F601B6
:10F95000E81BF90BE65FFE4FD50114968C9180836E
:10F9600040920901BFEFAB1ABB0ACECF0E94A47828
:10F9700030920101209200011092090110920801B9
:10F98000198280E48A83412F4295440F407E496169
:10F9900002E009C089831A824B82412F4295440FAD
:10F9A000407E486903E093013FCF89831A82412F4B
:10F9B0004295440F407E4869EBCFFC01EA0FFB1FE4
:10F9C000E491ED934FCF0E94A478C501B4010E9449
:10F9D0008E7980E29EE40197F1F7053028F1D70196
:10F9E00011960D911C91129710270127102713963D
:10F9F000ED90FC90FE24EF24FE243A8229820C151F
:10FA00001D0549F489819A81E816F90609F09DCE11
:10FA10000E948C789ACEF6018491B3010E9464789A
:10FA2000FFEFCF1ADF0AEBCFF0E0E0E08591949191
:10FA3000019609F48ACEECCFA1E21A2EAA1BBB1BB9
:10FA4000FD010DC0AA1FBB1FEE1FFF1FA217B307AA
:10FA5000E407F50720F0A21BB30BE40BF50B661FC0
:10FA6000771F881F991F1A9469F760957095809584
:10FA700090959B01AC01BD01CF01089569279627A0
:10FA800069277827872778270895DC0101C06D93BF
:10FA900041505040E0F70895F999FECF92BD81BDE5
:10FAA000F89A992780B50895F894FFCFFFFFFFFFDC
:02FAB000FFFF56
:00000001FF
