:020000021000EC
:10F000000C9446F80C9465F80C9465F80C9465F82B
:10F010000C9465F80C9465F80C9465F80C9465F8FC
:10F020000C9465F80C9465F80C9465F80C9465F8EC
:10F030000C9465F80C9465F80C9465F80C9465F8DC
:10F040000C9465F80C9465F80C9465F80C9465F8CC
:10F050000C9465F80C9465F80C9465F80C9465F8BC
:10F060000C9465F80C9465F80C9465F80C9465F8AC
:10F070000C9465F80C9465F80C9465F80C9465F89C
:10F080000C9465F80C9465F80C9465F811241FBE77
:10F09000CFEFD0E4DEBFCDBF11E0A0E0B1E0E0EC07
:10F0A000FAEF01E00BBF02C007900D92A630B10746
:10F0B000D9F722E0A6E0B1E001C01D92A436B20764
:10F0C000E1F70E9432FA0C945EFD0C9400F89091E6
:10F0D000C00095FFFCCF8093C6000895FB012081FE
:10F0E000318198E0432F441F4427441F220F331FD0
:10F0F00087FD2160442321F0F2E02F27F0E13F2734
:10F10000880F915079F7FB01318320830895109285
:10F110000B0210920A0210920E028FEF9FEF909353
:10F1200005018093040110920D0208951092C10010
:10F13000F894F0E0E0E00994CF93C82F0E946EF8B5
:10F1400084E08C0F833040F48CEF0E9467F88C2FA2
:10F150008F77CF910C9467F88C2FFBCFCF92DF92F3
:10F16000EF92FF921F93CF93DF9380910901882341
:10F1700009F43DC080910001909101016C01F12CD6
:10F18000E12C23E0F601E0925B0020935700E89524
:10F1900007B600FCFDCFCAE0D2E0AAE0B1E011E082
:10F1A0008A509140AC014A0F5B1F70E060E01196FD
:10F1B0003C9111972C910901FA0160935B00109327
:10F1C0005700E89511241296CA17DB0759F785E016
:10F1D000F601E0925B0080935700E89507B600FCCB
:10F1E000FDCF81E180935700E89510920901DF91EE
:10F1F000CF911F91FF90EF90DF90CF900895CF9324
:10F2000094E0980F933030F4C82F8CEF0E9467F889
:10F210008C2F8F77CF910C9467F8AF92BF92CF92DB
:10F22000DF92EF92FF920F931F93CF93DF9300D063
:10F23000CDB7DEB7F62EE72EB82EA92E142F690112
:10F240008FEF9FEF9A8389835A9A8DEF0E9467F818
:10F25000BE016F5F7F4F8DEF0E946EF8BE016F5F42
:10F260007F4F8A2D0E949CF8BE016F5F7F4F8B2DD0
:10F270000E949CF8BE016F5F7F4F8E2D0E949CF80C
:10F28000BE016F5F7F4F8F2D0E949CF8BE016F5FA4
:10F290007F4F812F0E949CF813FF1FC010916002C6
:10F2A000F0906102E090620280916302BE016F5FA4
:10F2B0007F4F0E949CF8BE016F5F7F4F8E2D0E9492
:10F2C0009CF8BE016F5F7F4F8F2D0E949CF8BE019E
:10F2D0006F5F7F4F812F0E949CF8BE016F5F7F4F51
:10F2E00082E0800F0E949CF876010C0D1D2D111DEF
:10F2F000BE016F5F7F4FE016F10631F580E00E949E
:10F300006EF8BE016F5F7F4F80E00E946EF88A81C9
:10F310000E94FFF889810E94FFF88091C00086FF5B
:10F32000FCCF8091C00080648093C0005A980F90F9
:10F330000F90DF91CF911F910F91FF90EF90DF9091
:10F34000CF90BF90AF900895F70181917F010E9407
:10F350009CF8CECF0F9340915F024295440F407EC0
:10F36000496100E030E020E00E940DF90F9108951E
:10F370000F93CF93DF9300D0CDB7DEB78FEF8983A4
:10F3800088E08A8302E09E012F5F3F4F48EF6FEFD6
:10F390007FEFCB010E940DF90F900F90DF91CF917D
:10F3A0000F9108958F929F92AF92BF92CF92DF926A
:10F3B000EF92FF920F931F93CF93DF93CDB7DEB7FA
:10F3C00060970FB6F894DEBF0FBECDBF81E489838E
:10F3D0001A821B821C821D8281E08E8360916002F2
:10F3E00070916102809162029091630228E42F8300
:10F3F00022E4288727E529878E010F5F1F4F7E01B2
:10F4000026E0E21AF10868012AE0822E912CA12C54
:10F41000B12CA50194010E9426FD605DF80167876B
:10F42000B901CA0101501109E016F10691F700E196
:10F43000960148EF6FEF7FEFCB010E940DF96096C8
:10F440000FB6F894DEBF0FBECDBFDF91CF911F91F5
:10F450000F91FF90EF90DF90CF90BF90AF909F9073
:10F460008F900895CF93DF93CDB7DEB7C854D109FD
:10F470000FB6F894DEBF0FBECDBF14B714BE0FB6E3
:10F48000F894A89580916000886180936000109244
:10F4900060000FBE1BBE8CEF9FE00E9456FD082F40
:10F4A0008DEF9FE00E9456FD90E0B0E0A0E07C016F
:10F4B000DD24CC24F02A8EEF9FE00E9456FD082F19
:10F4C0008FEF9FE00E9456FD9601282BD701C901BE
:10F4D000902B8093600290936102A0936202B0939C
:10F4E00063028F3F9F4FAF4FBF4F61F48FEF9FEF8E
:10F4F000AFEFB2E48093600290936102A093620246
:10F50000B093630213FD08C0F0E0E0E085919491B0
:10F51000019611F00E9496F81092C50083E3809343
:10F52000C40086E28093C20088E18093C100529AB1
:10F530005A9888EC90E020E931E0F9013197F1F731
:10F540000197D9F70E94B8F980E29EE40197F1F79C
:10F550000E94D2F91092800085E080938100109281
:10F5600085001092840081E086BB10E0CE010196F8
:10F570003C01DE0114962396BFAFAEAF2397222441
:10F580002A94322C442443948091C00087FF77C092
:10F590000091C60083E0800F8230B0F440920B02ED
:10F5A00010920A0210920E0230920501209204017C
:10F5B00010920D02309203012092020162E071E08C
:10F5C000802F0E946EF8E0CF80910B028823E1F239
:10F5D0000C3F19F440920A02D7CF80910A02882387
:10F5E00019F0006810920A0262E071E0802F0E9418
:10F5F0006EF880910E028035C0F4E82FF0E0E15FF4
:10F60000FD4F0083843089F4902F987129F091E0A8
:10F61000202F2370233009F490E090930C0299235B
:10F6200009F43FC09AE090930D02E0900D02EE20A5
:10F6300071F02E2D30E0A9014150510984171506B3
:10F6400031F4200F311D30930501209304018F5FA9
:10F6500080930E02209104013091050112161306C9
:10F660000CF076C08217130609F072C0C090020138
:10F67000D0900301C114D104B1F00E9487F8B09B6F
:10F6800083CF81E086BB1F5F163008F47BCFF0E0AC
:10F69000E0E085919491019609F474CF0E9496F868
:10F6A00071CF96E0C0CF60910F02709110028091EF
:10F6B0001102909112020E9448FD27966CAF7DAF17
:10F6C0008EAF9FAF27971091130280910C02812C6F
:10F6D000912C5401882361F06091140270911502FD
:10F6E00080911602909117020E9448FD4B015C0127
:10F6F000F12CF701E15FFD4F2996FFAFEEAF29979F
:10F70000319750800E9487F81695137010935F020E
:10F7100027962CAD3DAD4EAD5FAD27972F3F3F4FA8
:10F720004F4F5F4FD9F4952D923008F492E00EEFD1
:10F73000090F39F12996AEADBFAD29978C918A3763
:10F7400051F580910701882319F14092060119C0F3
:10F75000803508F419CF0E9487F816CF8091600297
:10F7600090916102A0916202B091630227962CAD44
:10F770003DAD4EAD5FAD2797281739074A075B07A8
:10F7800091F2109285001092840046BA10E077CF73
:10F7900040920701F6CF8A3529F4109206011092A3
:10F7A0000701EFCF20910601222379F0853749F731
:10F7B0001092060110920701C501B4010E94AAF936
:10F7C0000E94B8F90E94D2F9DCCFF701E15FFD4F4A
:10F7D0007F01803709F4A6C0E0F5873609F4FDC043
:10F7E00038F4813479F3C501B4010E94AAF9C9CF74
:10F7F000883609F4B8C08E36B1F760916002709116
:10F800006102809162029091630228E4298322E4DC
:10F810002A8327E52B837E01FBE0EF0EF11C2AE013
:10F8200030E040E050E00E9426FD605DD7016E931D
:10F830007D01B901CA012396EEADFFAD2397AE1746
:10F84000BF0769F7412F4295440F407E48690AE09F
:10F850007CC0853709F4ACCFF8F4823721F60E94DA
:10F86000AEF8043008F48DCFF7018181928198279A
:10F87000892798270381013408F000E4D301861911
:10F8800097092A2F2619201708F4A1C0412F429565
:10F89000440F407E496159C0863709F45CC0873700
:10F8A00009F0A1CF043008F46CCFDF01218132814F
:10F8B000F22FE32F2596FFAFEEAF259713968C918D
:10F8C0002AEF522E590E851508F4582E19825A82A5
:10F8D000412F4295440F407E496102E09301C501EA
:10F8E000B4010E940DF980910801811113C083E0D9
:10F8F00020E030E0A901F90140935B0080935700BC
:10F90000E89507B600FCFDCF81E180935700E895AC
:10F910004092080167012596AEACBFAC2597AE18A2
:10F92000BF0850C00E94AEF8309201012092000141
:10F930001092090110920801198280E48A83412FF4
:10F940004295440F407E496102E09301C501B40134
:10F950000E940DF916CF19824A82412F4295440F19
:10F96000407E4869F1CF19821A82F7CF85010C0DCC
:10F970001D1D480188248091000190910101881685
:10F98000990671F00E94AEF89092010180920001F8
:10F9900040E051E06FEF70E08AE091E00E944FFD9F
:10F9A0008091000190910101081B190BF801E65F9D
:10F9B000FE4FD60114968C91808340920901BFEFCF
:10F9C000CB1ADB0A8C2D8E19851580F2DACEFC015C
:10F9D000EA0FFB1FE491ED9354CF0E94AEF8C501EE
:10F9E000B4010E94AAF980E29EE40197F1F7053084
:10F9F00028F1D70111960D911C911297102701271C
:10FA000010271396ED90FC90FE24EF24FE243A82FA
:10FA100029820C151D0549F489819A81E816F90699
:10FA200009F0AFCE0E9496F8ACCEF6018491B301F6
:10FA30000E946EF8FFEFCF1ADF0AEBCFF0E0E0E0B4
:10FA400085919491019609F49CCEECCFA1E21A2EF7
:10FA5000AA1BBB1BFD010DC0AA1FBB1FEE1FFF1F72
:10FA6000A217B307E407F50720F0A21BB30BE40BC2
:10FA7000F50B661F771F881F991F1A9469F7609509
:10FA80007095809590959B01AC01BD01CF010895C3
:10FA90006927962769277827872778270895DC0123
:10FAA00001C06D9341505040E0F70895F999FECFA1
:10FAB00092BD81BDF89A992780B50895F894FFCF3B
:06FAC000FFFFFFFFFFFF46
:040000031000F000F9
:00000001FF
