:10F000000C943E780C945B780C945B780C945B7851
:10F010000C945B780C945B780C945B780C945B7824
:10F020000C945B780C945B780C945B780C945B7814
:10F030000C945B780C945B780C945B780C945B7804
:10F040000C945B780C945B780C945B780C945B78F4
:10F050000C945B780C945B780C945B780C945B78E4
:10F060000C945B780C945B780C945B780C945B78D4
:10F070000C945B780C945B780C945B7811241FBE25
:10F08000CFEFD0E1DEBFCDBF11E0A0E0B1E0E4E51D
:10F09000FBEF02C005900D92A630B107D9F722E030
:10F0A000A6E0B1E001C01D92A237B207E1F70E94CD
:10F0B000F27A0C94A87D0C9400789091C00095FF92
:10F0C000FCCF8093C6000895FB012081318198E038
:10F0D000432F441F4427441F220F331F87FD216005
:10F0E000442321F0F2E02F27F0E13F27880F9150D1
:10F0F00079F7FB0131832083089510921902109251
:10F10000180210921C028FEF9FEF909305018093DD
:10F11000040110921B0208950F931F93CF93DF9366
:10F12000D1E00FEF1FEF809117028111C7C08091CE
:10F13000C00087FFC3C0C091C60083E08C0F82303F
:10F14000B0F4D09319021092180210921C0210937E
:10F1500005010093040110921B0210930301009318
:10F16000020162E071E08C2F0E946478DCCF809114
:10F1700019028823C1F2CC3F19F4D0931802D3CFDF
:10F1800080911802882319F0C0681092180262E07A
:10F1900071E08C2F0E94647880911C028035B8F455
:10F1A000E82FF0E0E35EFD4FC083843081F49C2FB4
:10F1B000987129F091E02C2F2370233009F490E00E
:10F1C00090931A02992369F19AE090931B0220917F
:10F1D0001B02222371F0422F50E0BA0161507109E5
:10F1E0008617170631F44C0F511D509305014093BB
:10F1F00004018F5F80931C0240910401509105012E
:10F20000141615060CF056C08417150609F052C0E6
:10F210008091020190910301892B29F00E947D7851
:10F2200082CF96E0D2CF60911D0270911E02809134
:10F230001F02909120020E94897D609313027093B7
:10F2400014028093150290931602809121028093FC
:10F250000E0280911A02882349F160912202709176
:10F26000230280912402909125020E94897D60935F
:10F270000F02709310028093110290931202822F5A
:10F2800090E0FC01E45EFD4F2081223008F422E092
:10F29000225020930B02835E9D4F90930D0280932A
:10F2A0000C020E947D78D09317023DCF60E070E0A1
:10F2B000CB01DDCF803508F436CFB0CFDF91CF91D1
:10F2C0001F910F91089507B600FE08950E948C7853
:10F2D000FACFCF93C82F0E94647884E08C0F8330DC
:10F2E00040F48CEF0E945D788C2F8F77CF910C9437
:10F2F0005D788C2FFBCFCF93DF9380910A01882319
:10F3000009F433C0C0910001D091010183E0FE01F6
:10F3100080935700E8950E9463792BE032E0ABE0E0
:10F32000B1E041E0BE016B507140FB01EA0FFB1FF1
:10F3300011968C9111979C918927982789270C0108
:10F3400040935700E895112412962A173B0769F756
:10F3500085E0FE0180935700E8950E94637981E182
:10F3600080935700E89510920A01DF91CF9108959C
:10F370005A981092C100F894F0E0E0E00994CF931D
:10F3800094E0980F933030F4C82F8CEF0E945D7892
:10F390008C2F8F77CF910C945D78AF92BF92CF92E4
:10F3A000DF92EF92FF920F931F93CF93DF9300D0E2
:10F3B000CDB7DEB7F62EE72EB82EA92E142F690191
:10F3C0008FEF9FEF9A8389835C9A8DEF0E945D781F
:10F3D000BE016F5F7F4F8DEF0E946478BE016F5F4B
:10F3E0007F4F8A2D0E946979BE016F5F7F4F8B2D01
:10F3F0000E946979BE016F5F7F4F8E2D0E946979EF
:10F40000BE016F5F7F4F8F2D0E946979BE016F5FD4
:10F410007F4F812F0E94697913FF1FC010916E02E8
:10F42000F0906F02E090700280917102BE016F5FF8
:10F430007F4F0E946979BE016F5F7F4F8E2D0E94C2
:10F440006979BE016F5F7F4F8F2D0E946979BE0180
:10F450006F5F7F4F812F0E946979BE016F5F7F4F81
:10F4600082E0800F0E94697976010C0D1D2D111D1F
:10F47000BE016F5F7F4FE016F10631F580E00E941C
:10F480006478BE016F5F7F4F80E00E9464788A815C
:10F490000E94BF7989810E94BF798091C00086FF58
:10F4A000FCCF8091C00080648093C0005C980F9076
:10F4B0000F90DF91CF911F910F91FF90EF90DF9010
:10F4C000CF90BF90AF900895F70181917F010E9486
:10F4D0006979CECF0F9340916D024295440F407EE3
:10F4E000496100E030E020E00E94CD790F9108955D
:10F4F0000F93CF93DF9300D0CDB7DEB78FEF898323
:10F5000088E08A8302E09E012F5F3F4F48EF6FEF54
:10F510007FEFCB010E94CD790F900F90DF91CF91BB
:10F520000F9108958F929F92AF92BF92CF92DF92E8
:10F53000EF92FF920F931F93CF93DF93CDB7DEB778
:10F5400060970FB6F894DEBF0FBECDBF81E489830C
:10F550001A821B821C821D8281E08E8360916E0262
:10F5600070916F02809170029091710228E42F8354
:10F5700022E4288727E529878E010F5F1F4F7E0130
:10F5800026E0E21AF10868012AE0822E912CA12CD3
:10F59000B12CA50194010E94677D605DF801678729
:10F5A000B901CA0101501109E016F10691F700E115
:10F5B000960148EF6FEF7FEFCB010E94CD79609607
:10F5C0000FB6F894DEBF0FBECDBFDF91CF911F9174
:10F5D0000F91FF90EF90DF90CF90BF90AF909F90F2
:10F5E0008F900895CF93DF93CDB7DEB7C454D10980
:10F5F0000FB6F894DEBF0FBECDBF14B714BE0FB662
:10F60000F894A895809160008861809360001092C2
:10F6100060000FBE8CEF97E00E94A07D082F8DEF59
:10F6200097E00E94A07D90E0B0E0A0E07C01DD24A6
:10F63000CC24F02A8EEF97E00E94A07D082F8FEF58
:10F6400097E00E94A07D9601282BD701C901902B3D
:10F6500080936E0290936F02A0937002B093710238
:10F660008F3F9F4FAF4FBF4F61F48FEF9FEFAFEFD3
:10F67000B2E480936E0290936F02A0937002B093F5
:10F68000710213FD08C0F0E0E0E0859194910196CD
:10F6900011F00E94B8791092C50083E38093C400F2
:10F6A00086E28093C20088E18093C100549A5C98FE
:10F6B000529A88EC90E020E931E0F9013197F1F7B6
:10F6C0000197D9F70E94787A80E29EE40197F1F7DA
:10F6D0000E94927A1092800085E0809381001092BF
:10F6E00085001092840081E086BB10E0CE01019677
:10F6F0002C01FE0134962596FFAFEEAF25977724B7
:10F7000073948091840090918500209108012223B8
:10F7100009F43FC093FF42C05A9A0E948C788091AE
:10F720001702882309F44BC010921702809113022C
:10F7300090911402A0911502B091160280900F02D0
:10F7400090901002A0901102B0901202E0900C0272
:10F75000F0900D0200910B0260900E026694262D2F
:10F760002370622E20936D028F3F3FEF9307A30714
:10F77000B307B1F040916E0250916F026091700238
:10F780007091710284179507A607B70749F010E03A
:10F7900016C09F738115944008F4BECF5A98BDCF10
:10F7A0000023A9F3F70180818A37D9F4109107016A
:10F7B000112319F070920601EACF70920701B09BF5
:10F7C000A0CF81E086BB1F5F163008F498CFF0E031
:10F7D000E0E085919491019609F491CF0E94B87967
:10F7E0008ECF8A3529F41092060110920701CFCFEF
:10F7F00010910601112379F0853749F61092060120
:10F8000010920701C501B4010E946A7A0E94787AB9
:10F810000E94927ABCCF803709F4EAC0E8F58736B7
:10F8200009F412C140F4813409F44EC1C501B40198
:10F830000E946A7AC4CF883609F4FDC08E36B1F7CB
:10F8400060916E0270916F028091700290917102CE
:10F8500048E4498352E45A8327E52B837E01EBE099
:10F86000EE0EF11C2AE030E040E050E00E94677D9F
:10F87000605DF70162937F01B901CA0125962EAD43
:10F880003FAD25972E173F0769F7462D4295440F48
:10F89000407E48690AE0C1C0853709F4AFCF00F562
:10F8A000823721F6043008F472CFC180D280DC2484
:10F8B000CD24DC240381709208010E947B790134FD
:10F8C00008F000E4D201C418D5088A2F84198017E3
:10F8D00008F4B4C0462D4295440F407E49619DC056
:10F8E000863709F4A0C0873709F0A0CF043008F4A8
:10F8F0004ECF2180328032242324322483819CEF16
:10F90000D92ED00E8D1508F4D82E22961FAE229730
:10F910002396DFAE2397462D4295440F407E4961E2
:10F9200002E09E012F5B3F4FC501B4010E94CD79DB
:10F93000709208010D2D013408F000E4402F50E0D2
:10F94000B7016C5F7F4FC2010E94907D80910901D9
:10F9500081110EC023E0F0E0E0E020935700E8952D
:10F960000E94637931E130935700E8957092090164
:10F97000802F90E0B0E0A0E0820D931DA11DB11D8D
:10F980006201241835088130904FA105B10508F0B7
:10F9900016CF8C2D8419801708F011CF7101EC0C53
:10F9A000FD1C470188248091000190910101881677
:10F9B000990671F00E947B7990920101809200017A
:10F9C00040E051E06FEF70E08BE091E00E94997DA4
:10F9D000F60181916F012091000130910101F70141
:10F9E000E21BF30BE55FFE4F808370920A01D1CFDB
:10F9F0000E947B792FEF3FEF3093010120930001AC
:10FA000010920A0110920901198230E43A83462DBE
:10FA10004295440F407E496102E09201C501B40164
:10FA20000E94CD79CCCE19827A82462D4295440F20
:10FA3000407E4869F1CF19821A82F7CFF601EA0FAA
:10FA4000FB1FE491ED9341CF053040F1C180D2809E
:10FA5000DC24CD24DC24E380F480FE24EF24FE2487
:10FA60000E947B79C501B4010E946A7A80E29EE41B
:10FA70000197F1F7053000F12FEF3FEF3A8329832B
:10FA8000B12CA12CCA14DB0471F489819A81E81687
:10FA9000F90609F07CCE0E94B87991CEF12CE12CC8
:10FAA000D12CC12CDDCFF5018491B2010E94647884
:10FAB000FFEFAF1ABF0AE6CFF0E0E0E08591949146
:10FAC000019609F464CEE7CF0E94927A78CEA1E243
:10FAD0001A2EAA1BBB1BFD010DC0AA1FBB1FEE1FC8
:10FAE000FF1FA217B307E407F50720F0A21BB30B13
:10FAF000E40BF50B661F771F881F991F1A9469F78F
:10FB000060957095809590959B01AC01BD01CF01EA
:10FB100008956927962769277827872778270895E2
:10FB2000FB01DC0102C001900D9241505040D8F71A
:10FB30000895DC0101C06D9341505040E0F70895F5
:10FB4000F999FECF92BD81BDF89A992780B50895A5
:04FB5000F894FFCF57
:06FB5400FFFFFFFFFFFFB1
:040000030000F00009
:00000001FF
