:107000000C9434380C9451380C9451380C945138F9
:107010000C9451380C9451380C9451380C945138CC
:107020000C9451380C9451380C9451380C945138BC
:107030000C9451380C9451380C9451380C945138AC
:107040000C9451380C9451380C9451380C9451389C
:107050000C9451380C9451380C9451380C9451388C
:107060000C9451380C94513811241FBECFEFD8E046
:10707000DEBFCDBF11E0A0E0B1E0E6E5FBE702C076
:1070800005900D92A630B107D9F721E0A6E0B1E056
:1070900001C01D92A23FB207E1F70E94E83A0C94AA
:1070A000A93D0C9400389091C00095FFFCCF8093CF
:1070B000C6000895FB012081318198E0432F441FD1
:1070C0004427441F220F331F87FD2160442321F0F2
:1070D000F2E02F27F0E13F27880F915079F7FB016D
:1070E0003183208308951092990110929801109293
:1070F0009C018FEF9FEF9093050180930401109204
:107100009B0108950F931F93CF93DF93D1E00FEF6F
:107110001FEF809197018111C7C08091C00087FF48
:10712000C3C0C091C60083E08C0F8230B0F4D0930E
:1071300099011092980110929C01109305010093FF
:10714000040110929B01109303010093020162E07D
:1071500071E08C2F0E945A38DCCF809199018823EE
:10716000C1F2CC3F19F4D0939801D3CF809198010C
:10717000882319F0C0681092980162E071E08C2FAA
:107180000E945A3880919C018035B8F4E82FF0E0D5
:10719000E356FE4FC083843081F49C2F987129F010
:1071A00091E02C2F2370233009F490E090939A0102
:1071B000992369F19AE090939B0120919B012223EE
:1071C00071F0422F50E0BA0161507109861717061D
:1071D00031F44C0F511D50930501409304018F5F12
:1071E00080939C01409104015091050114161506ED
:1071F0000CF056C08417150609F052C080910201A8
:1072000090910301892B29F00E94733882CF96E078
:10721000D2CF60919D0170919E0180919F019091CC
:10722000A0010E948A3D6093930170939401809322
:107230009501909396018091A10180938E01809198
:107240009A01882349F16091A2017091A301809174
:10725000A4019091A5010E948A3D60938F017093D3
:1072600090018093910190939201822F90E0FC0114
:10727000E456FE4F2081223008F422E02250209371
:107280008B0183569E4F90938D0180938C010E94B9
:107290007338D09397013DCF60E070E0CB01DDCF34
:1072A000803508F436CFB0CFDF91CF911F910F9189
:1072B000089507B600FE08950E948238FACFCF9352
:1072C000C82F0E945A3884E08C0F833040F48CEF32
:1072D0000E9453388C2F8F77CF910C9453388C2F7A
:1072E000FBCFCF93DF9380910A01882309F433C049
:1072F000C0910001D091010183E0FE01809357000D
:10730000E8950E9459392BE831E0ABE0B1E041E06B
:10731000BE016B507140FB01EA0FFB1F11968C916F
:1073200011979C918927982789270C014093570032
:10733000E895112412962A173B0769F785E0FE01AC
:1073400080935700E8950E94593981E18093570056
:10735000E89510920A01DF91CF9108952D9810922F
:10736000C100F894F0E0E0E00994CF9394E0980F26
:10737000933030F4C82F8CEF0E9453388C2F8F77C6
:10738000CF910C945338AF92BF92CF92DF92EF928D
:10739000FF920F931F93CF93DF9300D0CDB7DEB74B
:1073A000F62EE72EB82EA92E142F69018FEF9FEF2E
:1073B0009A8389835A9A8DEF0E945338BE016F5F7A
:1073C0007F4F8DEF0E945A38BE016F5F7F4F8A2D2D
:1073D0000E945F39BE016F5F7F4F8B2D0E945F3926
:1073E000BE016F5F7F4F8E2D0E945F39BE016F5FC0
:1073F0007F4F8F2D0E945F39BE016F5F7F4F812FBE
:107400000E945F3913FF1FC01091EE01F090EF0151
:10741000E090F0018091F101BE016F5F7F4F0E940B
:107420005F39BE016F5F7F4F8E2D0E945F39BE01B5
:107430006F5F7F4F8F2D0E945F39BE016F5F7F4F5F
:10744000812F0E945F39BE016F5F7F4F82E0800F06
:107450000E945F3976010C0D1D2D111DBE016F5F5D
:107460007F4FE016F10631F580E00E945A38BE01E8
:107470006F5F7F4F80E00E945A388A810E94B53941
:1074800089810E94B5398091C00086FFFCCF809130
:10749000C00080648093C0005A980F900F90DF91D5
:1074A000CF911F910F91FF90EF90DF90CF90BF9001
:1074B000AF900895F70181917F010E945F39CECF8F
:1074C0000F934091ED014295440F407E496100E0E9
:1074D00030E020E00E94C3390F9108950F93CF93BD
:1074E000DF9300D0CDB7DEB78FEF898388E08A8342
:1074F00002E09E012F5F3F4F48EF6FEF7FEFCB0120
:107500000E94C3390F900F90DF91CF910F91089592
:107510008F929F92AF92BF92CF92DF92EF92FF92A3
:107520000F931F93CF93DF93CDB7DEB760970FB65E
:10753000F894DEBF0FBECDBF81E489831A821B821F
:107540001C821D8281E08E836091EE017091EF01BB
:107550008091F0019091F10128E42F8322E42887A3
:1075600027E529878E010F5F1F4F7E0126E0E21A73
:10757000F10868012AE0822E912CA12CB12CA501E2
:1075800094010E94683D605DF8016787B901CA01F6
:1075900001501109E016F10691F700E1960148EF5C
:1075A0006FEF7FEFCB010E94C33960960FB6F8945E
:1075B000DEBF0FBECDBFDF91CF911F910F91FF9026
:1075C000EF90DF90CF90BF90AF909F908F900895F5
:1075D000CF93DF93CDB7DEB7C454D1090FB6F8947B
:1075E000DEBF0FBECDBF14B714BE0FB6F894A8957A
:1075F00080916000886180936000109260000FBEEF
:107600008CEF93E00E94A13D082F8DEF93E00E9444
:10761000A13D90E0B0E0A0E07C01DD24CC24F02A84
:107620008EEF93E00E94A13D082F8FEF93E00E9420
:10763000A13D9601282BD701C901902B8093EE0123
:107640009093EF01A093F001B093F1018F3F9F4F12
:10765000AF4FBF4F61F48FEF9FEFAFEFB2E4809376
:10766000EE019093EF01A093F001B093F10113FDAF
:1076700008C0F0E0E0E085919491019611F00E943D
:10768000AE391092C50083E38093C40086E28093F4
:10769000C20088E18093C100529A5A98259A88ECDA
:1076A00090E020E931E0F9013197F1F70197D9F73E
:1076B0000E946E3A80E29EE40197F1F70E94883AB8
:1076C0001092800085E080938100109285001092D6
:1076D000840081E086BB10E0CE0101961C01FE0112
:1076E00034962596FFAFEEAF25977724739422E466
:1076F000622E8091840090918500209108012223C0
:1077000009F43FC093FF42C02D9A0E9482388091B5
:107710009701882309F44BC010929701409193017F
:10772000509194016091950170919601C0908F01E4
:10773000D0909001E0909101F090920140908C01E6
:1077400050908D0100918B0190908E019694292D7F
:107750002370922E2093ED014F3F3FEF53076307B5
:107760007307B1F08091EE019091EF01A091F001CB
:10777000B091F101481759076A077B0749F010E0FB
:1077800016C09F738115944008F4BECF2D98BDCFCD
:107790000023A9F3F20180818A37D9F410910701FF
:1077A000112319F070920601EACF70920701B09B85
:1077B000A0CF81E086BB1F5F163008F496CFF0E0C3
:1077C000E0E085919491019609F48FCF0E94AE3943
:1077D0008CCF8A3529F41092060110920701CFCF81
:1077E0004F3F5F4F6F4F7F4F51F2109106011123B2
:1077F00081F0853709F0C3CF10920601109207017E
:10780000C701B6010E94603A0E946E3A0E94883A0F
:10781000B6CF803709F4ECC0E0F5873609F414C11F
:1078200040F4813409F451C1C701B6010E94603AA5
:10783000BECF883609F4FFC08E36B1F76091EE01F5
:107840007091EF018091F0019091F10148E449833A
:107850006A8227E52B835E015BE0A50EB11C2AE05E
:1078600030E040E050E00E94683D605DF5016293C9
:107870005F01B901CA0125962EAD3FAD25972E17A0
:107880003F0769F7492D4295440F407E48690AE059
:10789000C4C0853709F4B0CF08F5823729F6043023
:1078A00008F46DCFF201A180B280BA24AB24BA24CF
:1078B0000381709208010E947139013408F000E4DC
:1078C000D101A218B3088A2F8219801708F4B6C014
:1078D000492D4295440F407E49619FC0863709F487
:1078E000A2C0873709F0A0CF043008F448CFF201D6
:1078F000A180B280BA24AB24BA2483819CEF892E64
:10790000800E881508F4882E22961FAE22972396A3
:107910008FAE2397492D4295440F407E496102E086
:107920009E012F5B3F4FC701B6010E94C339709281
:107930000801082D013408F000E4402F50E0B201A6
:107940006C5F7F4FC1010E94913D809109018111BF
:107950000EC023E0F0E0E0E020935700E8950E949D
:10796000593931E130935700E89570920901802F21
:1079700090E0B0E0A0E08A0D9B1DA11DB11D61014A
:10798000A218B30881309047A105B10508F00FCFC8
:107990008C2D8219801708F00ACF7501EC0CFD1CA4
:1079A000470150E8852280910001909101018816DD
:1079B000990671F00E947139909201018092000144
:1079C00040E850E06FEF70E08BE091E00E949A3D5C
:1079D000F60181916F012091000130910101F701C1
:1079E000E21BF30BE55FFE4F808370920A01D0CF5C
:1079F0000E9471392FEF3FEF309301012093000176
:107A000010920A0110920901198230E43A83492D3B
:107A10004295440F407E496102E09101C701B601E1
:107A20000E94C339C4CE19827A82492D4295440FEF
:107A3000407E4869F1CF19821A82F7CFF501EA0F2B
:107A4000FB1FE491ED933FCF053048F1F2018180B7
:107A50009280982489249824A380B480BA24AB24EB
:107A6000BA240E947139C701B6010E94603A80E2CF
:107A70009EE40197F1F7053000F12FEF3FEF3A83D5
:107A80002983F12CE12C8E149F0471F489819A8151
:107A9000A816B90609F073CE0E94AE3988CEB12C73
:107AA000A12C912C812CDDCFF7018491B1010E9492
:107AB0005A38FFEFEF1AFF0AE6CFF0E0E0E08591D9
:107AC0009491019609F45BCEE7CF0E94883A6FCE7D
:107AD000A1E21A2EAA1BBB1BFD010DC0AA1FBB1FD2
:107AE000EE1FFF1FA217B307E407F50720F0A21B44
:107AF000B30BE40BF50B661F771F881F991F1A94B1
:107B000069F760957095809590959B01AC01BD01DA
:107B1000CF0108956927962769277827872778272F
:107B20000895FB01DC0102C001900D9241505040CC
:107B3000D8F70895DC0101C06D9341505040E0F743
:107B40000895F999FECF92BD81BDF89A992780B525
:067B50000895F894FFCF38
:067B5600FFFFFFFFFFFF2F
:040000030000700089
:00000001FF
