:100000000C9427010C944F010C944F010C946C1A22
:100010000C946C1A0C946C1A0C944F010C94941957
:100020000C944F010C944F010C944F010C944F0110
:100030000C944F010C944F010C944F010C944F0100
:100040000C944A190C944F010C943A1A0C94141AFB
:100050000C944F010C944F010C944F010C944F01E0
:100060000C944F010C944F01206C6F636B656421FD
:10007000000A00207354696D65723A002D3E00201D
:1000800073746174653A0073657453206E65787497
:100090003A007353742073617665640A0076616C6C
:1000A00075650A00544F47474C450A00544F47476F
:1000B0004C455F494E565F544F5F430A00544F47CB
:1000C000474C455F544F5F430A006A756D70546F2B
:1000D0005461726765740A007365743A2000523A7D
:1000E0002041434B0A000A00543A2000453A20437D
:1000F00052430A000A00453A204D7367546F6F4C13
:100100006F6E670A003A00523A200046414C534550
:100110000A00545255450A0073657420696E686977
:100120006269743A200063683A2000543A204657C6
:100130005665720A00543A2048575665722C547915
:10014000700A00433A205772697465204545505241
:100150004F4D0A00433A2052656164204545505294
:100160004F4D0A00403A2072656A65637465640AFF
:1001700000403A2053657420416464726573730AC9
:10018000002000533A20000A00207066783D0044A9
:10019000495343204D415443482076623D00020AB2
:1001A000002C206672656552616D3D004842572DF6
:1001B000494F2D342D464D2C206265686176696F5C
:1001C00075723D30780000000000240027002A00EE
:1001D00000000000250028002B0000000000230084
:1001E0002600290004040404040404040202020298
:1001F00002020303030303030102040810204080EA
:100200000102040810200102040810200000000868
:1002100000020100000304070000000000000000CD
:10022000730A0020743A0064656661756C7421215C
:100230000A002076616C3A002067657444656C6141
:1002400079466F7253746174652000002A1C112472
:100250001FBECFEFD8E0DEBFCDBF11E0A0E0B1E020
:10026000E2E6FDE302C005900D92A838B107D9F788
:1002700022E0A8E8B1E001C01D92AB37B207E1F778
:1002800011E0C7E2D1E004C02197FE010E94991E4F
:10029000C632D107C9F70E94761A0C94AF1E0C948F
:1002A0000000FB01309741F48130F9F08330E9F030
:1002B00060E070E0CB0108958130D9F038F08230F1
:1002C000D9F08330E1F090E080E002C0818192813A
:1002D0009C013F7384E0989F812D992711248130E0
:1002E0009105A9F078F00297A9F06FEF7FEFCB01AD
:1002F000089583819481ECCF85819681E9CF8781B0
:100300009085E6CFA4E6B0E00E948A1E0895A8EE8C
:10031000B3E0FACFA0E6BAEEF7CFFB01208131813E
:1003200098E0A901220F331F87FD216057FF04C009
:10033000F2E02F27F0E13F27880F915091F7FB0162
:10034000318320830895CF92DF92EF92FF920F9333
:100350001F93CF93DF93EC0188E4888382E4898341
:1003600087E58A83411588ED580781EC680782E4A8
:10037000780718F0585D614C72448E01065F1F4F7C
:1003800023968AE0C82ED12CE12CF12C0C171D07E6
:1003900081F0CB01BA01A70196010E94681E942F3B
:1003A000852F605DF80162938F01A901692F782F75
:1003B000EDCFDF91CF911F910F91FF90EF90DF90E4
:1003C000CF900895833081F028F4813099F0823005
:1003D000A9F008958730A9F08830C9F08430B1F4CD
:1003E000809180008F7D03C0809180008F77809303
:1003F0008000089584B58F7784BD089584B58F7D7E
:10040000FBCF8091B0008F778093B00008958091EA
:10041000B0008F7DF9CFCF93DF93282F30E0F90123
:10042000E45FFD4F8491F901E850FE4FD491F9014A
:10043000EC51FE4FC491CC23A1F081110E94E20146
:10044000EC2FF0E0EE0FFF1FE652FE4FA591B491A6
:10045000EC91ED2381E090E009F480E0DF91CF9111
:10046000089580E090E0FACF1F93CF93DF93282F79
:1004700030E0F901E45FFD4F8491F901E850FE4F4F
:10048000D491F901EC51FE4FC491CC23A9F0162F61
:1004900081110E94E201EC2FF0E0EE0FFF1FE0530C
:1004A000FE4FA591B4918FB7F894EC91111108C04B
:1004B000D095DE23DC938FBFDF91CF911F910895FC
:1004C000DE2BF8CFCF93DF9390E0FC01E850FE4F96
:1004D00024918C519E4FFC0184918823C9F090E0B7
:1004E000880F991FFC01EA53FE4FA591B491FC01BE
:1004F000E053FE4FC591D49161110DC09FB7F894A0
:100500008C91209582238C938881282328839FBFF8
:10051000DF91CF910895623051F49FB7F8943C91E8
:10052000822F809583238C93E8812E2BEFCF8FB77A
:10053000F894EC912E2B2C938FBFEACF2FB7F89421
:1005400060917102709172028091730290917402B5
:100550002FBF08950F931F93CF93DF93DC0117965E
:100560002D913C91232BA9F4442399F08B01EC01AC
:100570000E949E026B837C838D839E83D80112969A
:10058000ED91FC918081B4E68B9FC0011124988786
:100590008F83DF91CF911F910F910895AF92BF92FA
:1005A000CF92DF92EF92FF920F931F93CF93DF933F
:1005B0006C017B018B01040F151FEB015E01AE186E
:1005C000BF08C017D10759F06991D601ED91FC9190
:1005D0000190F081E02DC6010995892B79F7C501BD
:1005E000DF91CF911F910F91FF90EF90DF90CF900F
:1005F000BF90AF900895FC01538D448D252F30E0BE
:10060000842F90E0821B930B541710F0CF9608951F
:1006100001970895FC01918D828D981761F0A28D4C
:10062000AE0FBF2FB11D5D968C91928D9F5F9F7312
:10063000928F90E008958FEF9FEF0895FC01918DC8
:10064000828D981731F0828DE80FF11D858D90E035
:1006500008958FEF9FEF0895FC01918D228D892FD2
:1006600090E0805C9F4F821B91098F7399270895BA
:100670008DEC91E00E942C0321E0892B09F420E00D
:10068000822F089580E090E0892B29F00E943803A2
:1006900081110C9400000895FC01A48DA80FB92FBE
:1006A000B11DA35ABF4F2C91848D90E001968F739A
:1006B0009927848FA689B7892C93A089B1898C91B9
:1006C000837080648C93938D848D981306C0028808
:1006D000F389E02D80818F7D80830895EF92FF92D2
:1006E0000F931F93CF93DF93EC0181E0888F9B8D55
:1006F0008C8D98131AC0E889F989808185FF15C00F
:100700009FB7F894EE89FF896083E889F989808131
:100710008370806480839FBF81E090E0DF91CF9100
:100720001F910F91FF90EF900895F62E0B8D10E022
:100730000F5F1F4F0F731127E02E8C8D8E110CC091
:100740000FB607FCFACFE889F989808185FFF5CFDC
:10075000CE010E944C03F1CFEB8DEC0FFD2FF11D6C
:10076000E35AFF4FF0829FB7F8940B8FEA89FB8919
:1007700080818062CFCFCF93DF93EC01888D882377
:10078000B9F0AA89BB89E889F9898C9185FD03C0F4
:10079000808186FD0DC00FB607FCF7CF8C9185FFD9
:1007A000F2CF808185FFEDCFCE010E944C03E9CFCF
:1007B000DF91CF9108950895DC0115963C9115972E
:1007C0006317A0F4262F30E0220F331F16968D9169
:1007D0009C91280F391FF90180819181DC01ED91F5
:1007E000FC910280F381E02DBA010994FA01108294
:1007F00081E00895DC011296ED91FC916181728196
:100800008381948108958F929F92AF92BF92CF92ED
:10081000DF92EF92FF920F931F93CF93DF93EC0140
:10082000D62EB42E922EE881F9810484F585E02D30
:1008300083E0882EAA24A394C12CEE24EA94FE2CF3
:100840008701CE010995182F88859985009769F051
:1008500011110BC0DC01ED91FC910190F081E02DB4
:10086000092D2B2D4D2DBE010995812FDF91CF91A3
:100870001F910F91FF90EF90DF90CF90BF90AF90BE
:100880009F908F900895AF92CF92EF920F93FC01BB
:100890008581081708F5802F90E0880F991FA681A1
:1008A000B781A80FB91F0D90BC91A02D12968C9105
:1008B000811112C082859385009771F0AC2CCE2CEB
:1008C000E02E022F9A01AB01BF01DC01ED91FC91FA
:1008D0000190F081E02D09950F91EF90CF90AF90AE
:1008E00008959F92AF92BF92CF92DF92EF92FF92C4
:1008F0000F931F93CF93DF9300D000D000D01F92AF
:10090000CDB7DEB7DC0117962D913C91232B09F46E
:1009100043C0942E5B016C010E949E02F60103818C
:10092000148125813681AB01BC01401B510B620B48
:10093000730B87819085B0E0A0E0481759076A07DC
:100940007B0750F10E949E02D60113966D937D9312
:100950008D939C931697ED91FC910280F381E02D8D
:10096000BE016F5F7F4FC6010995D501ED91FC91E6
:100970000084F185E02DE12CF12C87019E012F5F91
:100980003F4F482F692DC50109958130B9F48AEF91
:1009900090E0F6019087878327960FB6F894DEBF24
:1009A0000FBECDBFDF91CF911F910F91FF90EF90C0
:1009B000DF90CF90BF90AF909F900895D60118968A
:1009C0001C921E921797E8CF0895DC011A96ED91BC
:1009D000FC91608161FF17C0FC018FEF840F8230B2
:1009E00040F462FB662760F981850E94340281E051
:1009F0000895433011F04111FACF62FB662760F988
:100A000081E06827F1CF80E00895EF92FF920F9385
:100A10001F93CF93DF93EC018B0189850E940B021A
:100A2000EA85FB85208122FBEE24E0F8F12C8E156F
:100A30009F0581F488ECF80180838D85811180E425
:100A4000F801818382E0DF91CF911F910F91FF9098
:100A5000EF90089580E0EFCFCF93DF93EC0189858D
:100A6000882399F09C859F3F99F4EA85FB856081F6
:100A700062FB662760F991E069270E94340261E019
:100A800089850E94620283E08C87DF91CF9108956F
:100A90002FEF290F223050F4EA85FB85608162FB3D
:100AA000662760F9DF91CF910C943402933011F0F6
:100AB0009111EBCFEA85FB85608162FB662760F9C7
:100AC00091E06927EFCF282F2F73807C803459F075
:100AD000803879F030E0A8EEB3E0882339F06FEF8A
:100AE0007FEFCB01089530E0A0E6BAEE0E948A1EA7
:100AF0000895A22FB0E020E432E44FE050E00E94DD
:100B0000551E0895CF93DF93EC010E942C058AA512
:100B1000811114C08C858F3FA1F4EA85FB8560812B
:100B200062FB662760F981E0682780E00E9434025A
:100B300061E08AA50E94620283E08C87DF91CF91F9
:100B400008959FEF980F923058F4EA85FB856081F5
:100B500062FB662760F980E0DF91CF910C9434024C
:100B6000833011F08111EACFEA85FB85608162FB59
:100B7000662760F981E06827EECF6F927F928F92AF
:100B80009F92BF92CF92DF92EF92FF920F931F93AB
:100B9000CF93DF93EC018B01B42E0E949E026B0178
:100BA0007C0189850E940B029C0191E02115310591
:100BB00009F490E08D85891799F09D87CE86DF86B0
:100BC000E88AF98ADF91CF911F910F91FF90EF9002
:100BD000DF90CF90BF909F908F907F906F900895FF
:100BE0004E855F856889798936014701641A750ADF
:100BF000860A970AB401A3014035510561057105C4
:100C000008F38C859C87EA85FB85408141FFDACF1C
:100C100040FD1DC08917B1F2D801ED91FC9102840D
:100C2000F385E02D4A8D81E0840F8A8F20E06B2DC3
:100C3000C801DF91CF911F910F91FF90EF90DF904E
:100C4000CF90BF909F908F907F906F90099489175D
:100C500061F0232B31F4CA8ADB8AEC8AFD8A1B8E71
:100C6000B1CF8B8D8111AECFD7CF232B09F0AACF77
:100C700081818F3F09F48AE0B4E68B9FC001112483
:100C80002B8D211123C04A895B896C897D893601AE
:100C90004701641A750A860A970AB401A301B0E0F5
:100CA000A0E0481759076A077B0708F48BCF81E05B
:100CB0008B8FCE8ADF8AE88EF98ED801ED91FC9178
:100CC0000284F385E02D21E04A8DB1CF4E895F8902
:100CD000688D798D36014701641A750A860A970A6C
:100CE000B401A30196958795B0E0A0E04817590795
:100CF0006A077B0708F466CFDCCFFC01848581118D
:100D000005C088ECFB01808381E0089580E0FACF84
:100D1000CF93DF93EC0162E089850E9462028985AE
:100D20000E940B0221E0892B09F420E02C872D87FB
:100D30000E949E026E877F87888B998B1B8EDF9126
:100D4000CF9108950F931F93CF93DF930091750276
:100D5000109176020115110581F0EC01FE016491FC
:100D6000662359F0D801ED91FC910190F081E02DBE
:100D7000C80109952196892B89F7DF91CF911F91A1
:100D80000F910895EF92FF920F931F93CF93DF93EC
:100D9000EC018B01F42EE881F9810084F185E02DCE
:100DA0000995E82EEA85FB858823B1F0808180FFD4
:100DB00005C041E08F2D8D7F813009F040E0B80102
:100DC000CE010E94AA02FC868E2DDF91CF911F9149
:100DD0000F91FF90EF90089540814170B801CE01CE
:100DE0000E94AA0288E690E00E94A206EDCF8F92B0
:100DF0009F92AF92BF92CF92EF920F931F93CF9398
:100E0000DF93EC014A015B01122F8091CB0190919D
:100E1000CC01892B31F1E881F9810688F789E02D31
:100E2000CE010995681579058A059B05D1F4809155
:100E3000CB019091CC01DC01ED91FC910190F0810E
:100E4000E02D0C2D2E2D412FBE010995DF91CF9164
:100E50001F910F91EF90CF90BF90AF909F908F9088
:100E60000895212FB501A401CE010E944304EECFC5
:100E7000FB0101900020E9F73197AF01461B570BAA
:100E8000DC01ED91FC910280F381E02D09948F92B9
:100E90009F92AF92BF92EF92FF920F931F93CF93C7
:100EA000DF93CDB7DEB7A1970FB6F894DEBF0FBEC4
:100EB000CDBF7C01FA01CB0119A2223008F42AE04F
:100EC0008E010F5D1F4F822E912CB12CA12CBF01E2
:100ED000A50194010E94681EF901CA016A300CF54F
:100EE000605DD8016E938D01232B242B252B79F780
:100EF00090E080E0109721F0BD01C7010E94380703
:100F0000A1960FB6F894DEBF0FBECDBFDF91CF9193
:100F10001F910F91FF90EF90BF90AF909F908F9097
:100F20000895695CDECFCF92DF92EF92FF920F932C
:100F30001F93CF93DF93EC016A017B01E881F98174
:100F40000190F081E02D6DE209958C014427552731
:100F5000BA014C195D096E097F092AE0CE010E9491
:100F60004707800F911FDF91CF911F910F91FF9045
:100F7000EF90DF90CF900895CF93C82F80917502A6
:100F8000909176020097D9F04C2F50E024E05595CF
:100F900047952A95E1F7052E000C660B770B20E1AB
:100FA0000E944707CF704C2F50E070E060E020E1D6
:100FB0008091750290917602CF910C944707CF9162
:100FC00008956F927F929F92AF92CF92DF92EF92AD
:100FD000FF921F93CF93DF93EC017C0187E6E80E2D
:100FE000F11CAA24AA943E01A3E66A0E711C35E006
:100FF000932ECC24CA94DC2C8C899D89DC01ED9144
:10100000FC910084F185E02D0995892B09F4C2C07B
:101010000E949E02F70160837183828393838C898F
:101020009D89DC01ED91FC910284F385E02D099509
:10103000182F87E091E01D3F11F085E091E00E94BC
:10104000A206812F0E94BC078F891C3F29F481FDD5
:101050001FC082608F8BD0CF1D3FD1F48D7F816008
:101060008F8B1092980110929701F30110821182D8
:10107000128213821D8E1E8E1F8E18A2D092960190
:10108000C092950165E971E08DEF0E948D01B4CFAA
:1010900080FFB2CF81FF03C010688D7F8F8B65E921
:1010A00071E0812F0E948D0180919701843088F436
:1010B0004D8D5E8D6F8D78A1762F652F542F44272F
:1010C000412B4D8F5E8F6F8F78A38F5F8093970139
:1010D00093CF843029F490929701109394018CCF90
:1010E0009091940193FF16C0292F2370233091F023
:1010F000893080F4D3014D915D916D917C91762F73
:10110000652F542F4427412BF30140835183628381
:101110007383DBCF8F3F71F0A092970119A3113435
:1011200008F46ACF8F898E7F8F8B86EF90E00E94C4
:10113000A20662CF80919801FE01E80FF11D12A373
:1011400021E0280F2093980139A1231355CF209136
:10115000950130919601232BD1F42F892E7F2F8B6F
:10116000FE01EE59FF4F9083815089A381E08C8F5F
:1011700084EF90E0DF91CF911F91FF90EF90DF908F
:10118000CF90AF909F907F906F900C94A2068CEEC2
:1011900090E0CDCFDF91CF911F91FF90EF90DF9046
:1011A000CF90AF909F907F906F900895482F80913F
:1011B000750290917602009731F050E070E060E0A7
:1011C0002AE00C9447070895CF92DF92EF92FF92A6
:1011D0000F931F93CF93C82F8B0188E392E00E9457
:1011E000A2068C2F0E94BC0782E392E00E94A20616
:1011F0000115110581F487E292E00E94A206C13038
:1012000029F0C12CD12C7601C33099F5CC24CA9495
:10121000DC2C76012EC0C130B1F130F0C230B1F11A
:10122000C330B9F1C0E002C0F801C1818C2F0E9427
:10123000D60883E292E00E94A2068C2F0E946305EA
:101240006B017C0100917502109176020115110568
:1012500061F028EE33E040E050E00E94681EBA01E1
:10126000A9012AE0C8010E94470780E292E00E949B
:10127000A206C701B601CF911F910F91FF90EF9089
:10128000DF90CF900895F801C281D0CFF801C381DB
:10129000CDCFF801C481CACFEF92FF920F931F9375
:1012A000CF938C01C62F7A018091750290917602BE
:1012B000009721F064E871E00E9438078C2F0E94AB
:1012C000BC07E114F10421F0B7018C2F0E948D01BD
:1012D00084E08C0F833068F4D80154968D919C91F2
:1012E000DC01ED91FC910190F081E02D6CEF09950E
:1012F000CF77F80184899589DC01ED91FC9101900B
:10130000F081E02D6C2FCF911F910F91FF90EF9006
:1013100009948F929F92AF92BF92CF92DF92EF92F9
:10132000FF920F931F93CF93DF9300D0CDB7DEB71B
:101330008C018FEF9FEF9A838983780124E7E20E77
:10134000F11CF70180819181A281B3818F3F9F4F72
:10135000AF4FBF4F99F0F801E858FF4FD801AE5991
:10136000BF4F8C9190E095958795837020E2829F86
:10137000C001112490819F79892B808388EE90E0B1
:101380000E94A2068DEF0E94BC0761E0D80156962C
:101390008C910E943402F80184899589DC01ED91D9
:1013A000FC910190F081E02D6DEF0995BE016F5F1A
:1013B0007F4F8DEF0E948D01F70180809180A28088
:1013C000B38054E0F52E6B2D772788279927AE013F
:1013D0004F5F5F4FC8010E944C09BA2CA92C982C72
:1013E0008824FA94F110EFCFAE014F5F5F4F780180
:1013F000F8E7EF0EF11CD7016C91C8010E944C096F
:10140000F701808183FF1AC0D80158968D909D9076
:10141000AD90BC905B9724E0F22E6B2D7727882748
:101420009927AE014F5F5F4FC8010E944C09BA2C4B
:10143000A92C982C8824FA94F110EFCF6801B9E711
:10144000CB0ED11CF60160816E5FAE014F5F5F4F26
:10145000C8010E944C09F12CD6018C91F81670F449
:10146000F801EF0DF11DE658FF4FAE014F5F5F4FE2
:101470006081C8010E944C09F394EECFBE016F5FFA
:101480007F4F80E00E948D01BE016F5F7F4F80E043
:101490000E948D016A8150E040E0C8010E944C0921
:1014A00050E040E06981C8010E944C09F80184893C
:1014B0009589DC01ED91FC910680F781E02D09957D
:1014C00060E0F80186890E943402D80157968C9119
:1014D0005797886057968C9386EE90E00E94A206FC
:1014E0000F900F90DF91CF911F910F91FF90EF9090
:1014F000DF90CF90BF90AF909F908F900895AF9264
:10150000BF92CF92DF92EF92FF920F931F93CF93F0
:10151000DF938C01C62FD42F790183E891E00E94DC
:10152000A2068C2F0E94BC0781E891E00E94A206CF
:1015300067015701AD0EB11CAC14BD0431F0D601EA
:101540008D916D010E94BC07F7CF8091750290913B
:101550007602009721F066E871E00E943807F801F2
:101560008581C817F8F46C2F70E0660F771F8681AD
:101570009781680F791FDB018D919C91DC01ED91C2
:10158000FC910190F081E02D97014D2FB801DF9182
:10159000CF911F910F91FF90EF90DF90CF90BF9070
:1015A000AF900994DF91CF911F910F91FF90EF9031
:1015B000DF90CF90BF90AF9008951F93CF93DF93AC
:1015C000EC01162F0E94201E181739F0612FCE0152
:1015D000DF91CF911F910C94281EDF91CF911F9125
:1015E00008950C94201E9F92AF92BF92CF92DF92EB
:1015F000EF92FF920F931F93CF93DF938C015B01C8
:101600007A01922ED0E0C0E06A0181E0C81AD108C8
:10161000CE15DF0579F0C6018C1B9D0B911001C022
:10162000CE018A0D9B1D0E94F10AF80181938F0162
:101630002196EECFDF91CF911F910F91FF90EF9008
:10164000DF90CF90BF90AF909F900895CF93DF939E
:10165000EC014C8150E020E061E070E08A819B81E8
:101660000E94F30AEA81FB81818192812381348186
:101670003183EA81FB812283EA81FB819383EA81C2
:10168000FB8184838091AA0181608093AA01DF910C
:10169000CF9108954F925F926F927F928F929F9217
:1016A000AF92BF92CF92DF92EF92FF920F931F9370
:1016B000CF93DF93CDB7DEB762970FB6F894DEBF56
:1016C0000FBECDBFFC014B0129013A01F02E8281F2
:1016D0009381A481B58184159505A605B70521F4EC
:1016E000DD24D39486818013D12C4282538264827C
:1016F0007582F68201E110E0A11002C006E010E060
:1017000088E1A82EB12C21E044E050E0B501CE01E3
:101710000E960E94F30A8E859F85A889B9898F3F0E
:101720002FEF9207A207B207D9F184159505A605F8
:10173000B705B1F520E041E050E0B5016C5F7F4FA7
:10174000CE0142960E94F30A8A898F1129C020E0B7
:1017500041E050E0B5016B5F7F4FCE0142960E94A1
:10176000F30A8A898E111CC020E04BE050E0B801DA
:101770006A0D7B1DCE0101960E94F30A898180FFCC
:101780000FC0CC86DD86D401ED91FC910280F381FF
:10179000E02D9E012F5F3F4F4DE06E2DC401099556
:1017A000BCE1AB0EB11C20E6A21623E0B20609F0A4
:1017B000AACF62960FB6F894DEBF0FBECDBFDF9101
:1017C000CF911F910F91FF90EF90DF90CF90BF903E
:1017D000AF909F908F907F906F905F904F90089503
:1017E0004F925F926F927F928F929F92AF92BF9231
:1017F000CF92DF92EF92FF920F931F93CF93DF93DD
:1018000000D000D01F92CDB7DEB72B01D42EB22E60
:10181000902E80E6682E83E0782E20E041E050E0B4
:10182000B301CE0105960E94F30A8D818F3F81F1AD
:101830008D112EC021E044E050E0B3016F5F7F4F77
:10184000CE0101960E94F30A20E041E050E0B3018E
:101850006B5F7F4FCE0105960E94F30A49815A8142
:101860006B817C81F201808D918DA28DB38D208161
:101870003181481759076A077B0749F5D901509606
:10188000ED91FC91C92CEB2C0D812D2DC2010995F8
:10189000B6E06B0E711CECEF6E16E3E07E0609F00D
:1018A000BCCF0F900F900F900F900F90DF91CF91C2
:1018B0001F910F91FF90EF90DF90CF90BF90AF906E
:1018C0009F908F907F906F905F904F900895D90177
:1018D0001C96ED91FC9188248394A12CCD807A01F3
:1018E0008B01292D4B2D6D2DC2010995D1CF1F9351
:1018F000CF93DF93EC01162F0E94F10A811739F084
:10190000612FCE01DF91CF911F910C94281EDF91A2
:10191000CF911F910895BF92CF92DF92EF92FF92E5
:101920000F931F93CF93DF93EC01062FB42E662302
:10193000C1F10E949E02FE01E959FF4FC080D18093
:10194000E280F380AB01BC014C195D096E097F098F
:101950007E012BE6E20EF11CF70180819181B0E05F
:10196000A0E084179507A607B70760F081E090E034
:10197000DF91CF911F910F91FF90EF90DF90CF906B
:10198000BF9008950E94C81D24E630E040E050E07A
:101990000E94361E6E527F4F8F4F9F4FF70171830B
:1019A000608381E0FE01E259FF4F8083369680819B
:1019B0009181A281B3818F3F9F4FAF4FBF4F09F4F9
:1019C0004BC0FE01E858FF4F80818370813009F4DD
:1019D00043C010E0B11609F446C0CE010E94890947
:1019E0000E949E026B017C010E949E026C197D097F
:1019F0008E099F09683C710581059105E8F4CE01C7
:101A00000E94E1078C8D882379F34D8D5E8D6F8D5B
:101A100078A1888D998DAA8DBB8D481759076A07C3
:101A20007B0711F71C8ECE010E94760D8F8983FDF6
:101A3000DBCF90E080E09CCF011102C01F5FCACFD6
:101A40000E949E026C197D098E099F0966397105F5
:101A50008105910598F78ACFCE010E9489098F8967
:101A6000877F8F8BE6CF82E090E082CF8F92AF921C
:101A7000CF92EF92FF920F931F93CF93DF93CDB747
:101A8000DEB7342F4091AA0143FD2EC0FC01EC5873
:101A9000FF4FE082F1820283138348EF3496408344
:101AA00044E0319640834BE4319640833196608325
:101AB0003196C082211116C022E0482D6A2DFC010A
:101AC000E358FF4F330F330F320F30830E948B0CDC
:101AD000DF91CF911F910F91FF90EF90CF90AF903A
:101AE0008F90089523E0E9CF81E0F2CF0F931F9309
:101AF000CF93DF93EC01FC01E159FF4F81E080833C
:101B00008F898E010E591F4F83FF28C0F8018081F5
:101B100090E025E0959587952A95E1F7282F237089
:101B20007696808190E0959587958370281316C0EE
:101B30007597408151816281738171968081918115
:101B4000A281B381481759076A077B0739F48EEDE4
:101B500090E00E94A2068F89877F8F8BF801808199
:101B60008370813029F189A1811128C08D8D9E8DCE
:101B7000AF8DB8A18F3F9F4FAF4FBF4FF9F0FE0120
:101B8000EC58FF4FDE01AD59BF4F8D919D910D90E7
:101B9000BC91A02D80839183A283B383349689E185
:101BA00080833196108243E060E0CE010E948B0C6E
:101BB00080E0DF91CF911F910F91089581E0F9CFDF
:101BC0002F923F924F925F926F927F928F929F924D
:101BD000AF92BF92CF92DF92EF92FF920F931F933B
:101BE000CF93DF9300D000D0CDB7DEB79C838B833B
:101BF0008091AA0180FF29C0AB81BC81ED91FC914D
:101C000011970680F781E02DCD01099510E0EB8159
:101C1000FC8185811817A0F4812F90E0880F991F0F
:101C20000680F781E02DE80FF91F80819181DC01AA
:101C3000ED91FC910680F781E02D09951F5FE7CFBC
:101C40008091AA018E7F8093AA0100E0EB81FC8144
:101C5000EE59FF4FFA83E9836B807C80F2E26F0ECE
:101C6000711C2BE4222E312C4B805C8017E6410E38
:101C7000511CAB81BC8115968C91081708F0D5C01A
:101C8000A8958B819C810E94E107EB81FC81848D6A
:101C9000882309F485C0148EA981BA811C91C58C52
:101CA000D68CE78CF0A0812F8370408D518D628D92
:101CB000738D833009F08DC081A181118AC0169582
:101CC000169516951F5F8FEF9FEFDC01103289F09C
:101CD00080E290E0811B910988248A94982C540119
:101CE00004C0880C991CAA1CBB1C8A95D2F7D5018C
:101CF000C4014C255D256E257F2584239523A623CD
:101D0000B723892B8A2B8B2B09F04AC061E0AB816A
:101D1000BC8156968C910E943402C1010197F1F763
:101D2000EB81FC8184899589DC01ED91FC91019026
:101D3000F081E02D68EF0995EB81FC81848995891C
:101D4000DC01ED91FC910680F781E02D099560E0C2
:101D5000EB81FC8186890E9434020E949E02D2019E
:101D60006D937D938D939C9313978FE891E00E94E0
:101D7000A206812F0E94D60889E891E00E94A2065F
:101D80008F2D0E94BC078E2D0E94BC078D2D0E94B6
:101D9000BC078C2D0E94BC0787E891E00E94A20638
:101DA000202F30E0220F331FEB81FC818681978149
:101DB000820F931FDC018D919C91DC01ED91FC91D0
:101DC0000480F581E02D402F6B817C8109950F5FA8
:101DD00050CF4C155D056E057F0529F0CF20CE2034
:101DE000CD20C094E9F68B819C810E94760D8823DA
:101DF000B9F221E0EB81FC81858D968DA78DB0A194
:101E00008F3F9F4FAF4FBF4F09F020E0AB81BC81A8
:101E1000ED91FC9111970288F389E02D91964C91F8
:101E20009197B301CD010995BBCF1091AA0111FD86
:101E300060C00E949E02683E73408105910508F4CF
:101E400058C081E013FD4CC08FEF9FEFDC01EB81A8
:101E5000FC81EC58FF4F80839183A283B38388EF8A
:101E6000EB81FC81E858FF4F808380E1EB81FC81AE
:101E7000E758FF4F808381E4EB81FC81E658FF4FF8
:101E80008083EB81FC81E558FF4F1082EB81FC8160
:101E90008089E458FF4F8083AB81BC8151968C913F
:101EA0005197FD01E358FF4F808352968C915297D2
:101EB00053969C9153973196908331968083589690
:101EC0004D915D916D917C915B97CD0180589F4FB5
:101ED0000E94A30143E061E08B819C810E948B0CF6
:101EE00091E0811190E08091AA0190FB81F98093AB
:101EF000AA01EB81FC818485882309F45EC00E94DD
:101F00009E026B017C01AB81BC811C968C919CEE86
:101F1000980F9230B8F48E50806480937C0080914A
:101F20007A00806480937A0080917A0086FDFCCFED
:101F3000809178009091790021E08A3F91053CF0F2
:101F400020E005C00E940B0221E0892BC9F7809197
:101F5000AB01823009F40DC108F0B3C0882309F445
:101F6000D1C0813009F4DCC0EB81FC8185858823F8
:101F700021F14091990150919A0160919B017091DA
:101F80009C0146015701841A950AA60AB70AB501B1
:101F9000A401453651056105710578F09091AB01BA
:101FA000953008F02AC1923008F046C1992309F40F
:101FB00037C161E0913009F434C1AB81BC811E9618
:101FC0008C911E97811105C01F968C91882309F46E
:101FD00061C00E949E020091A1011091A201209176
:101FE000A3013091A401601B710B820B930B6D3325
:101FF00071058105910508F44DC0EB81FC81868552
:10200000882311F1978598130BC0DF01A159BF4FA9
:102010009C91992329F091E0E259FF4F90831C9203
:102020009091AB01992331F0AB81BC811D969C91BD
:10203000891751F00B811C8102591F4FF8016081F3
:102040000E943402D8011C92EB81FC818785882391
:10205000B9F096858917A1F09091AB01992319F0F9
:102060009585891769F00B811C8101591F4F1A83CF
:102070000983D8016C910E943402E981FA811082AF
:102080000E949E026093A1017093A2018093A3011C
:102090009093A4010F900F900F900F90DF91CF912C
:1020A0001F910F91FF90EF90DF90CF90BF90AF9076
:1020B0009F908F907F906F905F904F903F902F9068
:1020C0000895843009F479C008F457C0853009F0C8
:1020D0004BCF211149CF10E000E06FEFC8010E9403
:1020E000770C0F5F1F4F0C3F23E01207B1F7AB8156
:1020F000BC81ED91FC9111970488F589E02DCD010B
:10210000099534C0222319F081E08093AB01C0927D
:102110009D01D0929E01E0929F01F092A00124CFF8
:1021200080919D0190919E01A0919F01B091A0018D
:1021300046015701881A990AAA0ABB0AD501C401A7
:10214000222351F089389341A105B10508F40CCF41
:1021500082E08093AB0108CF85369105A105B105DA
:1021600028F08091AA018D7F8093AA011092AB0183
:10217000FBCE83E0222349F2F7CE80919D0190911E
:102180009E01A0919F01B091A001B701A601481B3B
:10219000590B6A0B7B0BDB01CA0184369105A10543
:1021A000B10508F4E1CE222311F084E0AECF8131F5
:1021B0009742A105B105D0F6D7CE80919D019091AF
:1021C0009E01A0919F01B091A00146015701881A7C
:1021D000990AAA0ABB0AD501C40184369105A10552
:1021E000B10508F4C1CE222309F2893B9B40A10529
:1021F000B10508F4B9CE85E0ACCF953009F0DDCE5D
:102200004F3E52406105710508F4D7CE0E940B0283
:1022100061E0892B09F060E0EB81FC81858501C0DC
:1022200060E00E943402C0929901D0929A01E0923B
:102230009B01F0929C01C1CE0E940B0261E0892BB0
:1022400009F060E0AB81BC811D968C91EACFCF9202
:10225000DF92EF92FF920F931F93CF93DF93EC01E6
:102260000CEF13E060E070E0CB01CC24D62EE72E1B
:10227000F82EC8010E94F10A9601282BC701B90166
:102280000F5F1F4F011534E0130779F78B0197019A
:1022900001501109210931090E3F1F4F2F4F3F4FA8
:1022A00020F06FEF7FEF8FEF92E4688F798F8A8F46
:1022B0009B8F0E94171E0E94C81DC559DF4F24E640
:1022C00030E040E050E00E94361E6E527F4F8F4F4C
:1022D0009F4F798368838091AA018D7F8093AA01A3
:1022E000DF91CF911F910F91FF90EF90DF90CF90F2
:1022F0000895CF93DF935091AA0153FD28C0EC01BC
:10230000FC01EC58FF4F8FEF9FEFDC01808391833E
:10231000A283B383349688EF8083319683E0840F61
:10232000808331968BE4808331966083319610826E
:1023300050E0B901CE0183589F4F0E949F1E43E099
:1023400061E0CE010E948B0CDF91CF91089581E076
:10235000FBCFAF92BF92CF92DF92EF92FF920F939B
:102360001F93CF93DF93EC01C62ED42E5901C801E1
:10237000B7012091AA0123FD37C0611571058105C0
:10238000910539F4E881F9810688F789E02DCE01BD
:102390000995FE01EC58FF4F60837183828393831C
:1023A000349688EF8083319682E08D0D808331965C
:1023B00089E680833196C0824D2D50E0B501CE0173
:1023C00084589F4F0E949F1E43E061E0CE010E940F
:1023D0008B0CDF91CF911F910F91FF90EF90DF90C9
:1023E000CF90BF90AF90089581E0F3CF4F925F926E
:1023F0006F927F92AF92BF92CF92EF92FF920F9324
:102400001F93CF93DF93443009F49BC054E0C5166B
:1024100009F497C028013901142F5B01EC01E11484
:10242000F10471F0C1100CC0AC8DBD8D85E0F701D9
:1024300001900D928A95E1F782E990E00E94A20650
:102440001D8687E890E00E94A206812F0E94BC07AB
:102450008FE790E00E94A2068C850E94BC078C85C5
:10246000811328C0411451046104710409F055C05E
:10247000EC8584E0782EE43020F4F0E0E65DFE4F59
:102480007080B701872D0E94E4088B019C01C394E2
:10249000472DB501CE010E94F6119E858D859817B6
:1024A000C1F0EA85FB8540814170B501CE010E94F3
:1024B000AA020FC0412FB501CE010E94C206182FFB
:1024C0008CE790E00E94A2068C850E94BC07111147
:1024D000C9CF8D858E8783E790E00E94A206809108
:1024E000750290917602009739F04D8550E070E0CA
:1024F00060E02AE00E94470781E790E0DF91CF91FA
:102500001F910F91FF90EF90CF90BF90AF907F9071
:102510006F905F904F900C94A2068FEF481658066C
:102520006806780609F4B9CF0E949E024F86588A41
:10253000698A7A8A6B8B7C8B8D8B9E8B81E08D87F1
:10254000ACCFDF91CF911F910F91FF90EF90CF9083
:10255000BF90AF907F906F905F904F9008959F9243
:10256000AF92BF92CF92DF92EF92FF920F931F93A1
:10257000CF93DF93EC015B01942E0E949E020B89A6
:102580001C892D893E89601B710B820B930B0F8573
:10259000188929893A890617170728073907E0F4A7
:1025A0008D858823C9F01D86EC8584E0D82EE43023
:1025B00020F4F0E0E65DFE4FD0806C8D7D8D8D2D9A
:1025C0000E94E4088B019C01EC8CFD8CC12C4D2DEC
:1025D000B501CE010E94F611492DB501CE01DF9162
:1025E000CF911F910F91FF90EF90DF90CF90BF9010
:1025F000AF909F900C9471044F925F926F927F9274
:10260000AF92BF92CF92DF92EF92FF920F931F9300
:10261000CF93DF93EC015B0128013901E114F10450
:1026200069F0C1100BC0DC015F96EA16FB0631F0C1
:102630008BE0F70101900D928A95E1F71D868C855C
:10264000841332C0411451046104710409F043C081
:10265000EC8584E0D82EE43020F4F0E0E65DFE4F17
:10266000D0807E018FE1E80EF11CB7018D2D0E9414
:1026700051018B019C0184E0D81649F0C39483E09A
:102680008C1528F04D2DB501CE010E94FC129E85BF
:102690008D85981779F0EA85FB8540814170B501F9
:1026A000CE010E94AA0206C0B501CE010E94C20658
:1026B0008111C8CF8D858E87DF91CF911F910F91AA
:1026C000FF90EF90DF90CF90BF90AF907F906F9092
:1026D0005F904F9008958FEF481658066806780669
:1026E000B1F20E949E024F86588A698A7A8A6B8B61
:1026F0007C8B8D8B9E8B81E08D87C9CF9F92AF9213
:10270000BF92CF92DF92EF92FF920F931F93CF93DE
:10271000DF93EC015B01942E0E949E022D85222303
:1027200071F10B891C892D893E89601B710B820B0D
:10273000930B0F85188929893A89061717072807E7
:102740003907E8F41D86EC8584E0D82EE43020F4C7
:10275000F0E0E65DFE4FD0807E018FE1E80EF11CD7
:10276000B7018D2D0E9451018B019C0184E0D81688
:1027700031F0C12C4D2DB501CE010E94FC12492D26
:10278000B501CE01DF91CF911F910F91FF90EF9096
:10279000DF90CF90BF90AF909F900C9471044F92B8
:1027A0005F926F927F928F929F92AF92BF92CF92E1
:1027B000DF92EF92FF920F931F93CF93DF93222329
:1027C00069F1DB012C91EC01C359DF4F2A3521F06F
:1027D0002A3741F018820EC08091AA01877F80932A
:1027E000AA01F8CF88818823B1F08091AA0188607E
:1027F0008093AA01DF91CF911F910F91FF90EF90ED
:10280000DF90CF90BF90AF909F908F907F906F9010
:102810005F904F90089581E08883ECCF142F5B0187
:10282000EC018091AA0183FF28C0FB0180818537DC
:1028300009F7FE01EC58FF4FDE01AD59BF4F8D91F6
:102840009D910D90BC91A02D80839183A283B38331
:10285000349689E180833196108243E060E0CE01B6
:102860000E948B0C88E198E00FB6F894A8958093AD
:1028700060000FBE90936000FFCFFE01E359FF4F51
:1028800010823A97408151816281738171964083B1
:102890005183628373834E01F8E78F0E911C88E7A2
:1028A000D4018C93F5018081873509F460C108F06B
:1028B0004AC0853409F499C018F5813409F487C0F9
:1028C000833409F48AC0803409F064C08181813680
:1028D00009F079C0163009F076C081E791E00E94D6
:1028E000A206F501828181115DC0838181115AC0E8
:1028F0008481811157C084E691E00E94A2064AC0FB
:10290000823509F4F0C0833509F413C18B3409F022
:1029100041C0D50113968C91B82FB170CB2EE82E03
:10292000F12CF594E794F594E794E881F981008817
:10293000F189E02DD50112960C91129711962C91E8
:10294000CE01099527C09E0127583F4F7901833753
:1029500009F471C1B8F48C3609F42DC18E3609F42E
:102960004FC18836B9F485E391E00E94A2068889B8
:10297000FE01E658FF4F808389893196808382E08B
:10298000F70129C0883709F456C18B3C11F286370C
:1029900009F441C189E1F4018083FE01E758FF4F4A
:1029A000108288C0F2E0AF0EB11C0CEF13E0D5012D
:1029B0006D915D01C8010E94770C0F5F1F4F0115DB
:1029C000B4E01B07A1F7CE010E942711E3CF89E6EF
:1029D000FE01E658FF4F80836DC0E881F9810488CD
:1029E000F589E02DCE010995D5CF63808481982F9C
:1029F000969596959695FE01E758FF4F24E0290F8E
:102A00002083482E512C877011F09B5F908340816A
:102A100050E070E060E08E0106581F4FC8010E9430
:102A2000A81E85E6D8018C93F5018181FE01E55849
:102A3000FF4F8083D50112968C9112973196808337
:102A400013968C9131968083712CD12CC12C10E07F
:102A500000E0812C912C54018394F12CE12CE6149C
:102A6000F7040CF5C7018C0D9D1D0E94F10A8F3FE4
:102A7000B1F1F801A3E0F595E795AA95E1F7EC0F20
:102A8000FD1FE258FF4FC80187709927A5019401E7
:102A900004C0220F331F441F551F8A95D2F7C90166
:102AA0002081822B80830F5F1F4FC60CD71C4016DE
:102AB00051069CF643E060E0CE01DF91CF911F917B
:102AC0000F91FF90EF90DF90CF90BF90AF909F90CD
:102AD0008F907F906F905F904F900C948B0C3FEF96
:102AE000E31AF30ABCCF143009F054CF84E591E027
:102AF0000E94A206F501E180F280FE24EF24FE246C
:102B0000D12CD50113968C91D81678F40D2D10E0A8
:102B1000C8018E0D9F1D0E94F10A0C0F1D1FF801A8
:102B2000E658FF4F8083D394ECCFFE01E758FF4F68
:102B300052CF618139E6F32E8E0106581F4FD8011E
:102B4000FC92FE01E558FF4F6083E881F981048023
:102B5000F581E02DAE0144585F4FCE010995FE018D
:102B6000E758FF4F8E5F8083F801F082A3CF838107
:102B700090E004961817190609F00CCF83E491E051
:102B80000E94A206F501E180F280FE24EF24FE24DB
:102B900004E0EA18FB08011708F0FCCED5011496F2
:102BA0006C91C7018A0D9B1D0E94770C0F5FBFEFD0
:102BB000AB1ABB0AF0CF0381017012818D81181707
:102BC00008F0E8CE812F90E0880F991FEE81FF81F9
:102BD000E80FF91F0190F081E02D028386E291E079
:102BE0000E94A206812F0E94D60888E191E00E94EF
:102BF000A20682E191E0011180CE8BE091E07DCED2
:102C0000488D598D6A8D7B8DCE0186589F4F0E94CD
:102C1000A3018AE0B5CE8BE291E00E94A2068A89E8
:102C20009B89FE01E658FF4F90833196808382E0B6
:102C3000D7018C933FCF95012E5F3F4F4EEF410F51
:102C4000E881F9810280F381E02DD50111966C9124
:102C5000CE010995F501618189E6D82E8E010658CD
:102C60001F4FD801DC92FE01E558FF4F6083E881D9
:102C7000F9810480F581E02DAE0144585F4FCE010B
:102C800009958E5FF7018083D801DC9213CF4F92B4
:102C90005F926F927F928F929F92AF92BF92CF92EC
:102CA000EF92FF920F931F93CF93DF935C014B0141
:102CB000C42F790188ED90E00E94A206C93009F086
:102CC000A4C0D7011796DC9117978C91F501968DCA
:102CD0009D1306C018969C91992311F085FF14C08E
:102CE0008F70813009F064C08AEC90E00E94A206E7
:102CF000D5011C968C918130D9F0B0F08230F9F07A
:102D00008330F1F1F501D68FDF91CF911F910F91B3
:102D1000FF90EF90CF90BF90AF909F908F907F905B
:102D20006F905F904F900895F701C581C77013C0F1
:102D3000D7011596CC91C695C695C695F7CFF701E4
:102D4000C5818C2F8295869586958370C681C170CA
:102D5000CC0FCC0FC82BC430A9F2B7018C2F0E9426
:102D6000E4082B013C01F50184858C1771F0C12C1E
:102D7000930182014C2FB401C5010E94F611C2CF0C
:102D8000D7011696CC91C695D1CFC13009F465C054
:102D9000C33069F7FFEF4F165F066F067F0639F302
:102DA000F701808186FB882780F991E0892762C03E
:102DB0009EE0980F9F70933008F0A4CF833089F085
:102DC0008430B9F08DEB90E00E94A206D0FF0FC0D6
:102DD000C1E0B7018C2F0E94E4088B019C01C12C3B
:102DE000C9CF8CEA90E00E94A206D0FFF1CFC3E0E9
:102DF000F0CF84EA90E00E94A206D5011C968C9147
:102E0000833031F3882321F3F2CFD5015C96ED9125
:102E1000FC9185E0DF011D928A95E9F78DE990E04C
:102E20000E94A206F7018081893C48F0D5011C96DA
:102E30008C91833011F0811104C041E003C08111F5
:102E4000FCCF43E0C12CF12CE12C0FEF1FEF9801D8
:102E5000B401C5010E94F61157CFBFEF4B165B06B8
:102E60006B067B0609F483CFD7018C918095881F70
:102E70008827881F882309F47ACF0E949E02AB011D
:102E8000BC01D5011D968C911D97882309F43ACF7A
:102E90001F968D919D910D90BC91A02DF5010389F8
:102EA000148925893689800F911FA21FB31F841BA7
:102EB000950BA60BB70B8F3FFFEF9F07AF07BF0721
:102EC00009F420CF481659066A067B0608F04FCF52
:102ED00019CF2F923F924F925F927F928F929F9243
:102EE000AF92BF92CF92DF92EF92FF920F931F9318
:102EF000CF93DF93CDB7DEB72B970FB6F894DEBF35
:102F00000FBECDBF5C014B01F9014D3009F0BCC0D3
:102F1000108110FF2EC0D3848485D5015E969C91CC
:102F2000D91204C0882311F012FF23C019838181B4
:102F300092819B838A83838194819D838C83858105
:102F400096819F838E838781908599878887418525
:102F500052855B874A87F50104850130F1F108F15C
:102F6000023009F443C0033009F449C0D5015E962C
:102F7000DC922B960FB6F894DEBF0FBECDBFDF916B
:102F8000CF911F910F91FF90EF90DF90CF90BF9066
:102F9000AF909F908F907F905F904F903F902F9039
:102FA0000895F42FF7707F2E94E07916F9F2BE01A0
:102FB0006F5F7F4F872D0E9451011B012C01071568
:102FC00019F1C12CDE0111967D0192018101472D7D
:102FD000B401C5010E94FC12C9CF93E056954795F4
:102FE0009A95E1F7242F2770722EDECF86E0569552
:102FF00047958A95E1F7842F8770782ED5CF452F96
:1030000046954770742ED0CFB1E07B1609F449C0C5
:10301000E3E07E12D6CF16FB112710F981E01827C6
:10302000FFEF2F163F064F065F0659F2112349F2B4
:103030000E949E02AB01BC01D5011D968C911D978B
:10304000882309F493CF1F968D919D910D90BC918B
:10305000A02DF5010389148925893689800F911FD8
:10306000A21FB31F841B950BA60BB70B8F3FFFEF5F
:103070009F07AF07BF0709F479CF281639064A061C
:103080005B0608F09ECF72CF9C01215E3F4F8BE024
:10309000D9011D928A95E9F79F01C5010E94471643
:1030A00068CFBFEF2B163B064B065B0609F489CFB2
:1030B0001095111F1127111FB9CF2F923F924F92D8
:1030C0005F926F927F928F929F92AF92BF92CF92B8
:1030D000DF92EF92FF920F931F93CF93DF93482ECF
:1030E0009CEAE92E91E0F92E26E2C22E21E0D22EB2
:1030F000D0E0C0E0282E312C3EE1632E31E0732E6B
:1031000040E1842E41E0942EA1010C2E02C0559581
:1031100047950A94E2F75A01A1E0AA22BB24F701DD
:1031200080819181009779F041702091000130E019
:103130000C2E02C0359527950A94E2F721704217AC
:10314000D9F10E94F31CD6015C908E01000F111F73
:10315000AB2809F451C08BE290E00E94571CFC019F
:1031600012829C01295E3F4FD90155E01D925A956C
:10317000E9F7358F248F51860D531E4F1387028731
:1031800010861782158616861786108A118A128A6B
:10319000138A148A158A168A8FEF868F8487918204
:1031A0008082285F3F4FD9015BE01D925A95E9F775
:1031B00052A6D701ED93FC932196F2E0EF0EF11C9D
:1031C0005FEFC51AD50AC430D10509F09DCF4092F2
:1031D0000001DF91CF911F910F91FF90EF90DF9051
:1031E000CF90BF90AF909F908F907F906F905F90A7
:1031F0004F903F902F9008958CE190E00E94571CD3
:103200005C01FC01128271826082518605541E4F5E
:103210001387028751E05487558716861786108AD0
:10322000118A128A138A148A158A168A178A108EAE
:10323000118E128E138E62E0852D0E946202F701BC
:10324000B182A082B9CF8091B4018F3F41F484E173
:103250008093B40164E181E090E00E94DD0A8091F6
:10326000B5019091B601A091B701B091B8018F3F1F
:103270009F4FAF4FBF4F59F460EF87E090E00E943F
:10328000DD0A80EF8093BA0180E00C945D18809194
:10329000BA01FBCF1F920F920FB60F9211242F93FA
:1032A0003F938F939F93AF93BF93809171029091BF
:1032B0007202A0917302B09174023091700223E007
:1032C000230F2D3758F50196A11DB11D20937002D3
:1032D0008093710290937202A0937302B093740270
:1032E00080916C0290916D02A0916E02B0916F027C
:1032F0000196A11DB11D80936C0290936D02A09365
:103300006E02B0936F02BF91AF919F918F913F91E9
:103310002F910F900FBE0F901F90189526E8230F46
:103320000296A11DB11DD2CF1F920F920FB60F9220
:1033300011242F933F934F935F936F937F938F93BA
:103340009F93AF93BF93EF93FF938091A6019091CA
:10335000A701A091A801B091A901892B8A2B8B2BE1
:10336000C1F19091A5018091000089278093000010
:103370008091A6019091A701A091A801B091A90107
:10338000181619061A061B069CF48091A601909146
:10339000A701A091A801B091A9010197A109B109C4
:1033A0008093A6019093A701A093A801B093A901CF
:1033B000FF91EF91BF91AF919F918F917F916F910D
:1033C0005F914F913F912F910F900FBE0F901F90E3
:1033D000189580910101EEE9F1E0E4919FEF90935F
:1033E0000101E13051F030F0E23069F060E00E941C
:1033F0003402DECF10926E00F9CF90916F009D7F66
:1034000090936F00F3CF909170009D7F9093700028
:1034100091E09093B0009091B100987F9460909368
:10342000B1001092B300E2CF1F920F920FB60F922D
:1034300011242F933F934F935F936F937F938F93B9
:103440009F93AF93BF93EF93FF938DEC91E00E9416
:103450004C03FF91EF91BF91AF919F918F917F911D
:103460006F915F914F913F912F910F900FBE0F90F1
:103470001F9018951F920F920FB60F9211242F9341
:103480008F939F93EF93FF93E091DD01F091DE0125
:103490008081E091E301F091E40182FD1BC0908105
:1034A0008091E6018F5F8F732091E701821741F0D1
:1034B000E091E601F0E0E353FE4F958F8093E60143
:1034C000FF91EF919F918F912F910F900FBE0F90D1
:1034D0001F9018958081F4CF1F920F920FB60F9214
:1034E00011240F900FBE0F901F901895CF93DF936C
:1034F00000D0CDB7DEB7789484B5826084BD84B542
:10350000816084BD85B5826085BD85B5816085BDDE
:1035100080916E00816080936E0010928100809196
:10352000810082608093810080918100816080931E
:103530008100809180008160809380008091B10043
:1035400084608093B1008091B00081608093B0006E
:1035500080917A00846080937A0080917A00826002
:1035600080937A0080917A00816080937A008091C4
:103570007A00806880937A001092C10087E090E022
:103580000E94F10AB82E82E090E00E94F10A182F02
:1035900083E090E00E94F10A082F84E090E00E940E
:1035A000F10A90E0B0E0A0E07C01DD24CC24D02A38
:1035B000C12A85E090E00E94F10AF82ACF20CE20AF
:1035C000CD20C09409F4B12C8B2D0E945D18E091A0
:1035D000DD01F091DE0182E0A82EA082E091D90108
:1035E000F091DA011082E091DB01F091DC0187E6D5
:1035F00080831092E501E091E101F091E20186E221
:103600008083E091DF01F091E0018081806180831F
:10361000E091DF01F091E001808188608083E0919A
:10362000DF01F091E001808180688083E091DF011B
:10363000F091E00180818F7D808382E090E00E94A4
:10364000571C6C0182E891E0D6018D939C93D09237
:10365000CC01C092CB0187E090E00E94571C7C0116
:103660008CE791E0F70191838083128213821482A8
:10367000158216828AEB90E00E94571C8C0184E42C
:1036800091E0F80191838083E059FF4F80E098E357
:103690009183808332961182108287E1D80114963B
:1036A0008C93149784EB91E013969C938E931297CE
:1036B00084E015968C9315978CEA91E017969C936D
:1036C0008E9316971996DC92CE9218971B96FC92C1
:1036D000EE921A9751961C92519783E093E053967D
:1036E0009C938E9352978DEC91E055969C938E937C
:1036F00054975696AC9261E082E00E94620260E0CC
:10370000F80186890E943402D8015C961C92F80167
:10371000E959FF4F1082118212821382349682ED92
:1037200090E091838083F80115861686178680E1E4
:10373000808B1092760210927502C8010E942711A8
:10374000D8011C961C921092AB018091AA01877F30
:103750008093AA01F801E359FF4F108288E19EE0AF
:103760000FB6F894A895809360000FBE9093600008
:1037700080E691E0F8019183808310936B020093BF
:103780006A02C8010E94260B88E0D8011C968C931F
:1037900062E00E94620287E0F801858761E00E9492
:1037A00062028CEA91E00E94A206809175029091DB
:1037B0007602009739F04B2D50E070E060E020E198
:1037C0000E94470781EA91E00E94A2068091770259
:1037D00090917802009711F48BE792E0AE014F5F71
:1037E0005F4F481B590B80917502909176020097AC
:1037F00041F0052E000C660B770B77FF27C00E9467
:1038000093078FE991E00E94A20600E010E080910A
:103810006A0290916B02DC01ED91FC910190F081C4
:10382000E02D099583B7817F83BF83B7816083BF14
:10383000889583B78E7F83BF0115110541F30E94E0
:103840003803882321F30E940000E1CF2AE00E9480
:103850004707D7CFEDECF1E01382128288EE93E0B8
:10386000A0E0B0E084839583A683B78382E391E0F0
:103870009183808385EC90E09587848784EC90E049
:103880009787868780EC90E0918B808B81EC90E02D
:10389000938B828B82EC90E0958B848B86EC90E00E
:1038A000978B868B118E128E138E148E08950F9324
:1038B0001F93CF93DF938230910510F482E090E064
:1038C000E0917902F0917A0230E020E0B0E0A0E0EF
:1038D000309799F42115310509F44AC0281B390B9A
:1038E00024303105D8F58A819B816115710589F1F4
:1038F000FB0193838283FE0111C0408151810281CB
:10390000138148175907E0F04817590799F41097A1
:1039100061F012960C93129713961C933296CF0176
:10392000DF91CF911F910F91089500937902109329
:103930007A02F4CF2115310551F04217530738F0C0
:10394000A901DB019A01BD01DF01F801C1CFEF013F
:10395000F9CF90937A0280937902CDCFFE01E20FE6
:10396000F31F819391932250310939832883D7CF54
:103970002091770230917802232B41F420910401A9
:103980003091050130937802209377022091020153
:10399000309103012115310541F42DB73EB7409117
:1039A000060150910701241B350BE0917702F0913D
:1039B0007802E217F307A0F42E1B3F0B28173907F4
:1039C00078F0AC014E5F5F4F2417350748F04E0F7B
:1039D0005F1F5093780240937702819391939FCF1A
:1039E000F0E0E0E09CCFCF93DF930097E9F0FC019B
:1039F000329713821282A0917902B0917A02ED017E
:103A000030E020E01097A1F420813181820F931FD4
:103A100020917702309178022817390709F061C0A8
:103A2000F0937802E0937702DF91CF910895EA0155
:103A3000CE17DF07E8F54A815B819E0141155105EC
:103A4000B1F7E901FB83EA8349915991C40FD51F6E
:103A5000EC17FD0761F4808191810296840F951F18
:103A6000E90199838883828193819B838A83F0E033
:103A7000E0E012968D919C9113970097B9F52D91E6
:103A80003C911197CD010296820F931F20917702EE
:103A9000309178022817390739F6309751F510928E
:103AA0007A0210927902B0937802A0937702BCCF89
:103AB000D383C28340815181840F951FC817D907D2
:103AC00061F44E5F5F4F88819981480F591F518380
:103AD00040838A819B81938382832115310509F07C
:103AE000B0CFF0937A02E09379029ECFFD01DC0122
:103AF000C0CF13821282D7CF8F929F92AF92BF9284
:103B0000CF92DF92EF92FF92CF93DF93EC01688127
:103B100079818A819B81611571058105910521F467
:103B200064E279ED8BE597E02DE133EF41E050E081
:103B30000E94361E49015A019B01AC01A7EAB1E47B
:103B40000E94551E6B017C01ACEEB4EFA5019401FF
:103B50000E94631EC60ED71EE81EF91EF7FE06C0A1
:103B600081E0C81AD108E10880E8F80AC882D98241
:103B7000EA82FB82C701B6019F77DF91CF91FF9068
:103B8000EF90DF90CF90BF90AF909F908F9008956F
:103B90008F929F92AF92BF92CF92DF92EF92FF925D
:103BA000609108017091090180910A0190910B01C7
:103BB000611571058105910521F464E279ED8BE5CC
:103BC00097E02DE133EF41E050E00E94361E4901BD
:103BD0005A019B01AC01A7EAB1E40E94551E6B019A
:103BE0007C01ACEEB4EFA50194010E94631EC60EE9
:103BF000D71EE81EF91EF7FE06C081E0C81AD108DC
:103C0000E10880E8F80AC0920801D0920901E09228
:103C10000A01F0920B01C701B6019F77FF90EF9068
:103C2000DF90CF90BF90AF909F908F90089560935A
:103C300008017093090180930A0190930B01089584
:103C4000F999FECF92BD81BDF89A992780B5089564
:103C5000262FF999FECF1FBA92BD81BD20BD0FB6A8
:103C6000F894FA9AF99A0FBE01960895052E97FBDB
:103C70001EF400940E944D1E57FD07D00E94681E3E
:103C800007FC03D04EF40C944D1E50954095309592
:103C900021953F4F4F4F5F4F0895909580957095B8
:103CA00061957F4F8F4F9F4F08950E948A1EA59F59
:103CB000900DB49F900DA49F800D911D1124089527
:103CC000B7FF0C94551E0E94551E821B930B08953E
:103CD000A1E21A2EAA1BBB1BFD010DC0AA1FBB1F10
:103CE000EE1FFF1FA217B307E407F50720F0A21B82
:103CF000B30BE40BF50B661F771F881F991F1A94EF
:103D000069F760957095809590959B01AC01BD0118
:103D1000CF010895A29FB001B39FC001A39F700D72
:103D2000811D1124911DB29F700D811D1124911DC3
:103D30000895EE0FFF1F0590F491E02D0994FB010B
:103D4000DC0102C001900D9241505040D8F7089517
:103D5000DC0101C06D9341505040E0F70895F894A4
:103D6000FFCFFFFF00007B02800001000000000089
:103D70000000691705057E138205E50400000000B8
:103D8000E4047D06BD0588060E0F10110102030034
:103D9000000000006E03CE02FB02BB032C030A03EB
:103DA0001E0300000000E00D7F0ADC03DB03A91105
:103DB0000304360D79114304CF13260BFA030000D8
:103DC0000000E00D7F0ADC032319A9110304360D5E
:103DD0007911F706CF13260BFA03000000004A0BF7
:0A3DE00000000000F00B3A000A009A
:107000000C9434380C9451380C9451380C945138F9
:107010000C9451380C9451380C9451380C945138CC
:107020000C9451380C9451380C9451380C945138BC
:107030000C9451380C9451380C9451380C945138AC
:107040000C9451380C9451380C9451380C9451389C
:107050000C9451380C9451380C9451380C9451388C
:107060000C9451380C94513811241FBECFEFD8E046
:10707000DEBFCDBF11E0A0E0B1E0EAE9FAE702C06F
:1070800005900D92A630B107D9F721E0A6E0B1E056
:1070900001C01D92A43EB207E1F70E940D3A0C9484
:1070A0004B3D0C9400389091C00095FFFCCF80932D
:1070B000C6000895FB012081318198E0432F441FD1
:1070C0004427441F220F331F87FD2160442321F0F2
:1070D000F2E02F27F0E13F27880F915079F7FB016D
:1070E00031832083089510928B0110928A011092AF
:1070F0008E018FEF9FEF9093050180930401109212
:107100008D0108951092C100F894F0E0E0E0099438
:10711000CF93C82F0E945A3884E08C0F833040F4FC
:107120008CEF0E9453388C2F8F77CF910C9453386B
:107130008C2FFBCFCF93DF9380910901882309F433
:1071400035C0809100019091010123E0FC01209362
:107150005700E89507B600FCFDCF4AE851E0AAE0E9
:10716000B1E061E0EC01CA50D140FE01EA0FFB1F23
:1071700011962C9111973C9123273227232709013F
:1071800060935700E895112412964A175B0769F738
:1071900025E0FC0120935700E89507B600FCFDCFE1
:1071A00081E180935700E89510920901DF91CF911A
:1071B0000895CF9394E0980F933030F4C82F8CEF5C
:1071C0000E9453388C2F8F77CF910C945338AF9205
:1071D000BF92CF92DF92EF92FF920F931F93CF93C4
:1071E000DF9300D0CDB7DEB7F62EE72EB82EA92E4E
:1071F000142F69018FEF9FEF9A8389835A9A8DEF3D
:107200000E945338BE016F5F7F4F8DEF0E945A3846
:10721000BE016F5F7F4F8A2D0E948838BE016F5F6D
:107220007F4F8B2D0E948838BE016F5F7F4F8E2D60
:107230000E948838BE016F5F7F4F8F2D0E94883873
:10724000BE016F5F7F4F812F0E94883813FF1FC0E0
:107250001091E001F090E101E090E2018091E30102
:10726000BE016F5F7F4F0E948838BE016F5F7F4F06
:107270008E2D0E948838BE016F5F7F4F8F2D0E9438
:107280008838BE016F5F7F4F812F0E948838BE0112
:107290006F5F7F4F82E0800F0E94883876010C0D6F
:1072A0001D2D111DBE016F5F7F4FE016F10631F5F8
:1072B00080E00E945A38BE016F5F7F4F80E00E94DD
:1072C0005A388A810E94D93889810E94D9388091A0
:1072D000C00086FFFCCF8091C00080648093C00016
:1072E0005A980F900F90DF91CF911F910F91FF90BF
:1072F000EF90DF90CF90BF90AF900895F70181910C
:107300007F010E948838CECF0F934091DF014295D4
:10731000440F407E496100E030E020E00E94E73801
:107320000F9108950F93CF93DF9300D0CDB7DEB7C1
:107330008FEF898388E08A8302E09E012F5F3F4FB1
:1073400048EF6FEF7FEFCB010E94E7380F900F906F
:10735000DF91CF910F9108958F929F92AF92BF923C
:10736000CF92DF92EF92FF920F931F93CF93DF9311
:10737000CDB7DEB760970FB6F894DEBF0FBECDBFB6
:1073800081E489831A8280E18B831C821D8281E0E3
:107390008E836091E0017091E1018091E201909112
:1073A000E30128E42F8322E4288727E529878E013B
:1073B0000F5F1F4F7E0126E0E21AF10868012AE004
:1073C000822E912CA12CB12CA50194010E94133D79
:1073D000605DF8016787B901CA0101501109E01623
:1073E000F10691F700E1960148EF6FEF7FEFCB01D7
:1073F0000E94E73860960FB6F894DEBF0FBECDBF8F
:10740000DF91CF911F910F91FF90EF90DF90CF9080
:10741000BF90AF909F908F900895CF93DF93CDB79B
:10742000DEB7C854D1090FB6F894DEBF0FBECDBF8A
:1074300014B714BE0FB6F894A895809160008861C7
:1074400080936000109260000FBE8CEF93E00E946A
:10745000433D082F8DEF93E00E94433D90E0B0E064
:10746000A0E07C01DD24CC24F02A8EEF93E00E9482
:10747000433D082F8FEF93E00E94433D9601282B58
:10748000D701C901902B8093E0019093E101A09373
:10749000E201B093E3018F3F9F4FAF4FBF4F61F4C5
:1074A0008FEF9FEFAFEFB2E48093E0019093E101A3
:1074B000A093E201B093E30113FD08C0F0E0E0E027
:1074C00085919491019611F00E9482381092C50026
:1074D00083E38093C40086E28093C20088E18093B6
:1074E000C100529A5A9888EC90E020E931E0F90105
:1074F0003197F1F70197D9F70E94923980E29EE423
:107500000197F1F70E94AC391092800085E08093DA
:107510008100109285001092840081E086BB10E00B
:10752000CE0101963C01DE0116972396BFAFAEAFA8
:10753000239722242A94322C442443948091C0001F
:1075400087FF77C00091C60083E0800F8230B0F4DF
:1075500040928B0110928A0110928E0130920501A7
:107560002092040110928D013092030120920201B9
:1075700062E071E0802F0E945A38E0CF80918B0149
:107580008823E1F20C3F19F440928A01D7CF809111
:107590008A01882319F0006810928A0162E071E084
:1075A000802F0E945A3880918E018035C0F4E82FD8
:1075B000F0E0E157FE4F0083843089F4902F9871FA
:1075C00029F091E0202F2370233009F490E090936C
:1075D0008C01992309F43FC09AE090938D01E090CB
:1075E0008D01EE2071F02E2D30E0A901415051099E
:1075F0008417150631F4200F311D309305012093B7
:1076000004018F5F80938E01209104013091050168
:10761000121613060CF076C08217130609F072C01A
:10762000C0900201D0900301C114D104B1F00E94B6
:107630007338B09B83CF81E086BB1F5F163008F4A0
:107640007BCFF0E0E0E085919491019609F474CF4E
:107650000E94823871CF96E0C0CF60918F01709107
:10766000900180919101909192010E94353D279661
:107670006CAF7DAF8EAF9FAF279710919301809134
:107680008C01812C912C5401882361F0609194012C
:107690007091950180919601909197010E94353DDE
:1076A0004B015C01F12CF701E157FE4F2996FFAF2A
:1076B000EEAF2997319750800E947338169513705A
:1076C0001093DF0127962CAD3DAD4EAD5FAD2797F2
:1076D0002F3F3F4F4F4F5F4FD9F4952D923008F415
:1076E00092E00EEF090F39F12996AEADBFAD2997A3
:1076F0008C918A3751F580910701882319F14092C6
:10770000060119C0803508F419CF0E94733816CFCE
:107710008091E0019091E101A091E201B091E3013B
:1077200027962CAD3DAD4EAD5FAD27972817390795
:107730004A075B0791F2109285001092840046BAC6
:1077400010E077CF40920701F6CF8A3529F41092E6
:10775000060110920701EFCF20910601222379F054
:10776000853749F71092060110920701C501B4014F
:107770000E9484390E9492390E94AC39DCCFF70113
:10778000E157FE4F7F01803709F4E7C008F047C09A
:10779000873609F40FC138F4813471F3C501B4019F
:1077A0000E948439C8CF883609F4F6C08E36B1F706
:1077B0008EE689836091E0017091E1018091E201A0
:1077C0009091E30128E42A8322E42B8327E52C838C
:1077D0009E012F5F3F4F790169012AE030E040E0D0
:1077E00050E00E94133D605DD7011A966C93B90179
:1077F000CA01B1E0EB1AF1082396EEADFFAD239775
:10780000EE16FF0651F7412F4295440F407E48691E
:107810000BE09601C501B4010E94E7388CCF853793
:1078200009F4A0CF00F5823709F0B8CF0E949A384A
:10783000043008F480CFF70181819281982789274D
:1078400098270381013408F000E4D30186199709D1
:107850002A2F2619201708F4A7C0412F4295440F5C
:10786000407E496197C0863709F48BC0873709F09D
:1078700095CF043008F45FCFC180D280DC24CD24C2
:10788000DC2483812AEF522E590E851508F4582ED8
:1078900019825A82412F4295440F407E496102E08D
:1078A0009301C501B4010E94E7388091080181115C
:1078B0000FC083E0F0E0E0E080935700E89507B662
:1078C00000FCFDCF81E180935700E89540920801CC
:1078D000852D90E0B0E0A0E08C0D9D1DA11DB11D97
:1078E00081309047A105B10508F025CF57018601E9
:1078F0000E191F098A2D8E19851508F01CCF6801F5
:10790000CA0CDB1C460120E8822280910001909184
:1079100001018816990671F00E949A38909201012F
:107920008092000140E850E06FEF70E08AE091E063
:107930000E943C3D8091000190910101F601E81BFD
:10794000F90BE65FFE4FD50114968C91808340922F
:107950000901BFEFAB1ABB0ACDCF0E949A38309213
:107960000101209200011092090110920801198270
:1079700080E48A83412F4295440F407E496102E0B2
:1079800009C089831A824B82412F4295440F407E61
:10799000486903E093013ECF89831A82412F4295C3
:1079A000440F407E4869EBCFFC01EA0FFB1FE491D6
:1079B000ED934ECF0E949A38C501B4010E948439DC
:1079C00080E29EE40197F1F7053028F1D701119686
:1079D0000D911C9112971027012710271396ED90F7
:1079E000FC90FE24EF24FE243A8229820C151D050A
:1079F00049F489819A81E816F90609F09CCE0E9423
:107A0000823899CEF6018491B3010E945A38FFEF73
:107A1000CF1ADF0AEBCFF0E0E0E085919491019678
:107A200009F489CEECCFA1E21A2EAA1BBB1BFD01E3
:107A30000DC0AA1FBB1FEE1FFF1FA217B307E4074D
:107A4000F50720F0A21BB30BE40BF50B661F771FA5
:107A5000881F991F1A9469F7609570958095909585
:107A60009B01AC01BD01CF010895692796276927C5
:107A70007827872778270895DC0101C06D9341504E
:107A80005040E0F70895F999FECF92BD81BDF89A74
:107A9000992780B50895F894FFCFFFFFFFFFFFFF00
:00000001FF
